BL51 BANKED LINKER/LOCATER V6.22.2.0                                                    02/19/2024  15:53:55  PAGE 1


BL51 BANKED LINKER/LOCATER V6.22.2.0, INVOKED BY:
D:\KEIL 5\C51\BIN\BL51.EXE .\Objects\main.obj, .\Objects\Init.obj, .\Objects\Key.obj, .\Objects\Seg.obj, .\Objects\LED.o
>> bj TO .\Objects\2303002124 PRINT (.\Listings\2303002124.m51) RAMSIZE (256)


MEMORY MODEL: SMALL


INPUT MODULES INCLUDED:
  .\Objects\main.obj (MAIN)
  .\Objects\Init.obj (INIT)
  .\Objects\Key.obj (KEY)
  .\Objects\Seg.obj (SEG)
  .\Objects\LED.obj (LED)
  D:\KEIL 5\C51\LIB\C51S.LIB (?C_STARTUP)
  D:\KEIL 5\C51\LIB\C51S.LIB (?C?UIDIV)
  D:\KEIL 5\C51\LIB\C51S.LIB (?C_INIT)


LINK MAP OF MODULE:  .\Objects\2303002124 (MAIN)


            TYPE    BASE      LENGTH    RELOCATION   SEGMENT NAME
            -----------------------------------------------------

            * * * * * * *   D A T A   M E M O R Y   * * * * * * *
            REG     0000H     0008H     ABSOLUTE     "REG BANK 0"
            DATA    0008H     0002H     UNIT         ?DT?LED
                    000AH     0016H                  *** GAP ***
            BIT     0020H.0   0000H.2   UNIT         ?BI?MAIN
                    0020H.2   0000H.6                *** GAP ***
            DATA    0021H     001EH     UNIT         ?DT?MAIN
            IDATA   003FH     0001H     UNIT         ?STACK

            * * * * * * *   C O D E   M E M O R Y   * * * * * * *
            CODE    0000H     0003H     ABSOLUTE     
            CODE    0003H     0006H     UNIT         ?PR?INFOR_PROC?MAIN
            CODE    0009H     0001H     UNIT         ?PR?OTHER_PROC?MAIN
                    000AH     0001H                  *** GAP ***
            CODE    000BH     0003H     ABSOLUTE     
            CODE    000EH     008CH     UNIT         ?C_C51STARTUP
            CODE    009AH     0089H     UNIT         ?PR?TIMER0_SERVE?MAIN
            CODE    0123H     0073H     UNIT         ?PR?KEY_READ?KEY
            CODE    0196H     0055H     UNIT         ?C?LIB_CODE
            CODE    01EBH     0041H     UNIT         ?PR?_SEG_SHOW?SEG
            CODE    022CH     003BH     UNIT         ?PR?_LED_SHOW?LED
            CODE    0267H     0031H     UNIT         ?C_INITSEG
            CODE    0298H     0027H     UNIT         ?PR?KEY_PROC?MAIN
            CODE    02BFH     0025H     UNIT         ?PR?_BEEP?LED
            CODE    02E4H     0025H     UNIT         ?PR?_RELAY?LED
            CODE    0309H     001DH     UNIT         ?PR?INIT?INIT
            CODE    0326H     0019H     UNIT         ?CO?SEG
            CODE    033FH     0015H     UNIT         ?PR?TIMER0_INIT?MAIN
            CODE    0354H     0014H     UNIT         ?PR?_DELAY_MS?MAIN
            CODE    0368H     0011H     UNIT         ?PR?MAIN?MAIN



BL51 BANKED LINKER/LOCATER V6.22.2.0                                                  02/19/2024  15:53:55  PAGE 2


OVERLAY MAP OF MODULE:   .\Objects\2303002124 (MAIN)


SEGMENT
  +--> CALLED SEGMENT
---------------------
?PR?TIMER0_SERVE?MAIN
  +--> ?PR?_SEG_SHOW?SEG
  +--> ?PR?_LED_SHOW?LED

?PR?_SEG_SHOW?SEG
  +--> ?CO?SEG

*** NEW ROOT ***************************************************

?C_C51STARTUP
  +--> ?PR?MAIN?MAIN
  +--> ?C_INITSEG

?PR?MAIN?MAIN
  +--> ?PR?INIT?INIT
  +--> ?PR?TIMER0_INIT?MAIN
  +--> ?PR?KEY_PROC?MAIN
  +--> ?PR?INFOR_PROC?MAIN
  +--> ?PR?OTHER_PROC?MAIN

?PR?KEY_PROC?MAIN
  +--> ?PR?KEY_READ?KEY



SYMBOL TABLE OF MODULE:  .\Objects\2303002124 (MAIN)

  VALUE           TYPE          NAME
  ----------------------------------

  -------         MODULE        MAIN
  C:0000H         SYMBOL        _ICE_DUMMY_
  D:0080H         PUBLIC        P0
  D:0090H         PUBLIC        P1
  D:00A0H         PUBLIC        P2
  D:00B0H         PUBLIC        P3
  D:00C0H         PUBLIC        P4
  B:0020H.0       PUBLIC        Seg_Slow_Flag
  D:00C8H         PUBLIC        P5
  B:00A8H.7       PUBLIC        EA
  D:00E8H         PUBLIC        P6
  D:00F8H         PUBLIC        P7
  D:0025H         PUBLIC        Seg_Point
  D:00A8H         PUBLIC        IE
  B:0020H.1       PUBLIC        Key_Slow_Flag
  D:00B8H         PUBLIC        IP
  C:009AH         PUBLIC        Timer0_Serve
  D:002DH         PUBLIC        Seg_Buf
  C:0298H         PUBLIC        Key_Proc
  D:0035H         PUBLIC        Slow_Down
  D:00D8H         PUBLIC        CCON
BL51 BANKED LINKER/LOCATER V6.22.2.0                                                  02/19/2024  15:53:55  PAGE 3


  C:0368H         PUBLIC        main
  C:033FH         PUBLIC        Timer0_Init
  C:0354H         PUBLIC        _Delay_ms
  D:0098H         PUBLIC        SCON
  D:0089H         PUBLIC        TMOD
  D:0088H         PUBLIC        TCON
  D:008EH         PUBLIC        AUXR
  B:00A8H.1       PUBLIC        ET0
  B:0088H.5       PUBLIC        TF0
  D:008CH         PUBLIC        TH0
  D:008AH         PUBLIC        TL0
  D:0037H         PUBLIC        LED_Buf
  B:0088H.4       PUBLIC        TR0
  C:0003H         PUBLIC        Infor_Proc
  D:00D0H         PUBLIC        PSW
  C:0009H         PUBLIC        Other_Proc
  -------         PROC          KEY_PROC
  -------         DO            
  D:0021H         SYMBOL        Key_Down
  D:0022H         SYMBOL        Key_UP
  D:0023H         SYMBOL        Key_New
  D:0024H         SYMBOL        Key_Old
  -------         ENDDO         
  C:0298H         LINE#         19
  C:0298H         LINE#         20
  C:0298H         LINE#         24
  C:029BH         LINE#         25
  C:029DH         LINE#         27
  C:02A2H         LINE#         28
  C:02ABH         LINE#         29
  C:02B1H         LINE#         30
  C:02B4H         LINE#         32
  C:02B8H         LINE#         33
  C:02B8H         LINE#         34
  C:02B8H         LINE#         35
  C:02BBH         LINE#         36
  C:02BEH         LINE#         37
  C:02BEH         LINE#         40
  C:02BEH         LINE#         41
  -------         ENDPROC       KEY_PROC
  -------         PROC          INFOR_PROC
  C:0003H         LINE#         44
  C:0003H         LINE#         45
  C:0003H         LINE#         46
  C:0006H         LINE#         47
  C:0008H         LINE#         49
  -------         ENDPROC       INFOR_PROC
  -------         PROC          OTHER_PROC
  C:0009H         LINE#         52
  C:0009H         LINE#         53
  C:0009H         LINE#         55
  -------         ENDPROC       OTHER_PROC
  -------         PROC          TIMER0_INIT
  C:033FH         LINE#         58
  C:033FH         LINE#         59
  C:033FH         LINE#         60
  C:0342H         LINE#         61
BL51 BANKED LINKER/LOCATER V6.22.2.0                                                  02/19/2024  15:53:55  PAGE 4


  C:0345H         LINE#         62
  C:0348H         LINE#         63
  C:034BH         LINE#         64
  C:034DH         LINE#         65
  C:034FH         LINE#         66
  C:0351H         LINE#         67
  C:0353H         LINE#         68
  -------         ENDPROC       TIMER0_INIT
  -------         PROC          TIMER0_SERVE
  C:009AH         LINE#         71
  C:00B7H         LINE#         73
  C:00D0H         LINE#         74
  C:00E1H         LINE#         75
  C:00F9H         LINE#         76
  C:0108H         LINE#         77
  -------         ENDPROC       TIMER0_SERVE
  -------         PROC          _DELAY_MS
  D:0006H         SYMBOL        xms
  -------         DO            
  D:0005H         SYMBOL        i
  D:0004H         SYMBOL        j
  -------         ENDDO         
  C:0354H         LINE#         80
  C:0354H         LINE#         81
  C:0354H         LINE#         83
  C:0358H         LINE#         84
  C:0358H         LINE#         85
  C:035AH         LINE#         86
  C:035CH         LINE#         88
  C:035CH         LINE#         89
  C:035EH         LINE#         90
  C:0360H         LINE#         91
  C:0365H         LINE#         92
  C:0367H         LINE#         93
  -------         ENDPROC       _DELAY_MS
  -------         PROC          MAIN
  C:0368H         LINE#         96
  C:0368H         LINE#         97
  C:0368H         LINE#         99
  C:036BH         LINE#         100
  C:036EH         LINE#         102
  C:036EH         LINE#         103
  C:036EH         LINE#         104
  C:0371H         LINE#         105
  C:0374H         LINE#         106
  C:0377H         LINE#         107
  -------         ENDPROC       MAIN
  -------         ENDMOD        MAIN

  -------         MODULE        INIT
  C:0000H         SYMBOL        _ICE_DUMMY_
  D:0080H         PUBLIC        P0
  D:0090H         PUBLIC        P1
  D:00A0H         PUBLIC        P2
  D:00B0H         PUBLIC        P3
  D:00C0H         PUBLIC        P4
  D:00C8H         PUBLIC        P5
BL51 BANKED LINKER/LOCATER V6.22.2.0                                                  02/19/2024  15:53:55  PAGE 5


  D:00E8H         PUBLIC        P6
  D:00F8H         PUBLIC        P7
  D:00A8H         PUBLIC        IE
  C:0309H         PUBLIC        Init
  D:00B8H         PUBLIC        IP
  D:00D8H         PUBLIC        CCON
  D:0098H         PUBLIC        SCON
  D:0088H         PUBLIC        TCON
  D:00D0H         PUBLIC        PSW
  -------         PROC          INIT
  C:0309H         LINE#         7
  C:0309H         LINE#         8
  C:0309H         LINE#         9
  C:030CH         LINE#         10
  C:0314H         LINE#         11
  C:0317H         LINE#         13
  C:031AH         LINE#         14
  C:0322H         LINE#         15
  C:0325H         LINE#         16
  -------         ENDPROC       INIT
  -------         ENDMOD        INIT

  -------         MODULE        KEY
  C:0000H         SYMBOL        _ICE_DUMMY_
  D:0080H         PUBLIC        P0
  D:0090H         PUBLIC        P1
  D:00A0H         PUBLIC        P2
  D:00B0H         PUBLIC        P3
  D:00C0H         PUBLIC        P4
  D:00C8H         PUBLIC        P5
  D:00E8H         PUBLIC        P6
  D:00F8H         PUBLIC        P7
  C:0123H         PUBLIC        Key_Read
  D:00A8H         PUBLIC        IE
  D:00B8H         PUBLIC        IP
  D:00D8H         PUBLIC        CCON
  B:00B0H.0       PUBLIC        P30
  D:0098H         PUBLIC        SCON
  B:00B0H.1       PUBLIC        P31
  D:0088H         PUBLIC        TCON
  B:00B0H.2       PUBLIC        P32
  B:00C0H.2       PUBLIC        P42
  B:00B0H.3       PUBLIC        P33
  B:00B0H.4       PUBLIC        P34
  B:00C0H.4       PUBLIC        P44
  B:00B0H.5       PUBLIC        P35
  D:00D0H         PUBLIC        PSW
  -------         PROC          KEY_READ
  -------         DO            
  D:0007H         SYMBOL        temp
  -------         ENDDO         
  C:0123H         LINE#         7
  C:0123H         LINE#         8
  C:0123H         LINE#         9
  C:0125H         LINE#         10
  C:012DH         LINE#         11
  C:0132H         LINE#         12
BL51 BANKED LINKER/LOCATER V6.22.2.0                                                  02/19/2024  15:53:55  PAGE 6


  C:0137H         LINE#         13
  C:013CH         LINE#         14
  C:0141H         LINE#         15
  C:0149H         LINE#         16
  C:014EH         LINE#         17
  C:0153H         LINE#         18
  C:0158H         LINE#         19
  C:015DH         LINE#         20
  C:0165H         LINE#         21
  C:016AH         LINE#         22
  C:016FH         LINE#         23
  C:0174H         LINE#         24
  C:0179H         LINE#         25
  C:0181H         LINE#         26
  C:0186H         LINE#         27
  C:018BH         LINE#         28
  C:0190H         LINE#         29
  C:0195H         LINE#         30
  C:0195H         LINE#         31
  -------         ENDPROC       KEY_READ
  -------         ENDMOD        KEY

  -------         MODULE        SEG
  C:0000H         SYMBOL        _ICE_DUMMY_
  D:0080H         PUBLIC        P0
  D:0090H         PUBLIC        P1
  D:00A0H         PUBLIC        P2
  D:00B0H         PUBLIC        P3
  D:00C0H         PUBLIC        P4
  D:00C8H         PUBLIC        P5
  D:00E8H         PUBLIC        P6
  D:00F8H         PUBLIC        P7
  D:00A8H         PUBLIC        IE
  D:00B8H         PUBLIC        IP
  C:0337H         PUBLIC        Seg_Wula
  C:01EBH         PUBLIC        _Seg_Show
  D:00D8H         PUBLIC        CCON
  D:0098H         PUBLIC        SCON
  D:0088H         PUBLIC        TCON
  C:0326H         PUBLIC        Seg_Table
  D:00D0H         PUBLIC        PSW
  -------         PROC          _SEG_SHOW
  D:0007H         SYMBOL        Wula
  D:0004H         SYMBOL        Table
  D:0002H         SYMBOL        Point
  C:01EBH         LINE#         28
  C:01EBH         LINE#         29
  C:01EBH         LINE#         30
  C:01EEH         LINE#         31
  C:01F6H         LINE#         32
  C:01F9H         LINE#         34
  C:0200H         LINE#         35
  C:0208H         LINE#         36
  C:020BH         LINE#         38
  C:0219H         LINE#         39
  C:021DH         LINE#         40
  C:0220H         LINE#         41
BL51 BANKED LINKER/LOCATER V6.22.2.0                                                  02/19/2024  15:53:55  PAGE 7


  C:0228H         LINE#         42
  C:022BH         LINE#         43
  -------         ENDPROC       _SEG_SHOW
  -------         ENDMOD        SEG

  -------         MODULE        LED
  C:0000H         SYMBOL        _ICE_DUMMY_
  C:02E4H         PUBLIC        _Relay
  D:0080H         PUBLIC        P0
  D:0090H         PUBLIC        P1
  D:00A0H         PUBLIC        P2
  D:00B0H         PUBLIC        P3
  D:00C0H         PUBLIC        P4
  D:00C8H         PUBLIC        P5
  D:00E8H         PUBLIC        P6
  D:00F8H         PUBLIC        P7
  D:00A8H         PUBLIC        IE
  D:00B8H         PUBLIC        IP
  D:00D8H         PUBLIC        CCON
  D:0098H         PUBLIC        SCON
  D:0088H         PUBLIC        TCON
  D:0008H         SYMBOL        temp_old
  C:022CH         PUBLIC        _LED_Show
  D:0009H         SYMBOL        temp_new
  D:00D0H         PUBLIC        PSW
  C:02BFH         PUBLIC        _Beep
  -------         PROC          _LED_SHOW
  D:0007H         SYMBOL        addr
  D:0004H         SYMBOL        enable
  C:022CH         LINE#         9
  C:022CH         LINE#         10
  C:022CH         LINE#         11
  C:0230H         LINE#         12
  C:023FH         LINE#         14
  C:024DH         LINE#         16
  C:0253H         LINE#         17
  C:0253H         LINE#         18
  C:0258H         LINE#         19
  C:0260H         LINE#         20
  C:0263H         LINE#         21
  C:0266H         LINE#         22
  C:0266H         LINE#         23
  -------         ENDPROC       _LED_SHOW
  -------         PROC          _BEEP
  D:0007H         SYMBOL        flag
  C:02BFH         LINE#         26
  C:02BFH         LINE#         27
  C:02BFH         LINE#         28
  C:02C2H         LINE#         29
  C:02C7H         LINE#         31
  C:02CAH         LINE#         33
  C:02D0H         LINE#         34
  C:02D0H         LINE#         35
  C:02D5H         LINE#         36
  C:02DDH         LINE#         37
  C:02E0H         LINE#         38
  C:02E3H         LINE#         39
BL51 BANKED LINKER/LOCATER V6.22.2.0                                                  02/19/2024  15:53:55  PAGE 8


  C:02E3H         LINE#         40
  -------         ENDPROC       _BEEP
  -------         PROC          _RELAY
  D:0007H         SYMBOL        flag
  C:02E4H         LINE#         43
  C:02E4H         LINE#         44
  C:02E4H         LINE#         45
  C:02E7H         LINE#         46
  C:02ECH         LINE#         48
  C:02EFH         LINE#         50
  C:02F5H         LINE#         51
  C:02F5H         LINE#         52
  C:02FAH         LINE#         53
  C:0302H         LINE#         54
  C:0305H         LINE#         55
  C:0308H         LINE#         56
  C:0308H         LINE#         57
  -------         ENDPROC       _RELAY
  -------         ENDMOD        LED

  -------         MODULE        ?C?UIDIV
  C:0196H         PUBLIC        ?C?UIDIV
  -------         ENDMOD        ?C?UIDIV

*** WARNING L16: UNCALLED SEGMENT, IGNORED FOR OVERLAY PROCESS
    SEGMENT: ?PR?_DELAY_MS?MAIN

*** WARNING L16: UNCALLED SEGMENT, IGNORED FOR OVERLAY PROCESS
    SEGMENT: ?PR?_BEEP?LED

*** WARNING L16: UNCALLED SEGMENT, IGNORED FOR OVERLAY PROCESS
    SEGMENT: ?PR?_RELAY?LED

Program Size: data=41.2 xdata=0 code=888
LINK/LOCATE RUN COMPLETE.  3 WARNING(S),  0 ERROR(S)
