:03000000020BC62A
:0C0BC600787FE4F6D8FD758163020C0D09
:100CCD0008390A0A0A0A0A0A0A0A082B0000000053
:100CDD000000000008490000000000000000013580
:100CED002801382801441E01551E02560154025E8A
:100CFD000154045A3F80000004603F80000001222F
:0A0D0D00000123000124000125006D
:1006F70030010302095BD201120C528F22E52265F9
:1007070023FFE522F45FF524E5225FF52585222303
:1007170024FB603024FD605C14700302084924F850
:100727007003020918240D600302095BE52A6402BD
:100737007004C205F549052AE52A64036003020926
:100747005BF52A22AF2A7E00EF7006A207B3920755
:1007570022EF64014E7006A202B3920222EF6402F6
:100767004E600302095B0543E54364036003020926
:100777005BF54322AF2A7E00EF6401702D2002163D
:10078700740A2535F535D3945A7480948050030242
:10079700095B75355A220544D3E544945074809417
:1007A70080500302095B75445022EF64024E6003D8
:1007B70002095BE54314602C1460492402600302BC
:1007C700095B74052527F527E43526F526D3E527A4
:1007D700945AE52664809480500302095B752600CD
:1007E70075275A22740A2557F557E43556F556D317
:1007F700E5579406E5569427500302095B7556277B
:1008070075570622AF5DAE5CAD5BAC5A7BCD7ACC3B
:1008170079CC783D1200258F5D8E5C8D5B8C5AE418
:10082700FFFEFD7C40AB5DAA5CA95BA85A1202BC27
:100837006002500302095BE4F55DF55CF55B755AF0
:100847004022AF2A7E00EF6401702D20021674F655
:100857002535F535C3940A74809480400302095BFB
:1008670075350A221544D3E54494C87480948050A2
:100877000302095BE4F54422EF64024E60030209B8
:100887005BE54314602D14604B2402600302095B8F
:1008970074FB2527F52774FF3526F526C3E527942E
:1008A700A6E5266480947F400302095B7526FF75E1
:1008B70027A62274F62557F55774FF3556F556C304
:1008C700E557940AE5569400400302095B75560004
:1008D70075570A22AF5DAE5CAD5BAC5A7BCD7ACC67
:1008E70079CC783D1200218F5D8E5C8D5B8C5A7FB1
:1008F700CD7ECC7DCC7C3DAB5DAA5CA95BA85A12B2
:1009070002BC5050755DCD755CCC755BCC755A3D9E
:1009170022E4F543C207C202F52A7538287535283F
:1009270075551E75441EF533F534F526F527755EA6
:1009370001755F54755601755754F563F562756116
:100947008075603FF55DF55C755B80755A3FF558BE
:04095700C204C2050F
:01095B002279
:10048D003000030206F6D200E52A14700302055867
:10049D001470030205B3240260030206F6E4F5317D
:1004AD00AF48AE47AD46AC45120373EF75F00A8405
:1004BD0075F00A8485F039EF75F00A8485F03A7588
:1004CD002C01E4FFFE7D207C41AB48AA47A946A83C
:1004DD00451201161203737C007D0A1203F48D3B45
:1004ED00753C0BAE36AF377C007D641203F47C0097
:1004FD007D0A1203F48D3EA207E433F530AE36AF1C
:10050D00377C007D0A1203F47C007D0A1203F48D02
:10051D003FAE36AF377C007D0A1203F48D4075591E
:10052D0005C3E55994077480948040030206F630A4
:10053D0007030206F674392559F8E660030206F63C
:10054D0074392559F8760A055980D6E4F530F52C1D
:10055D00755902C3E559940674809480500B743913
:10056D002559F8760A055980EA75390C200215755A
:10057D003A01E53575F00A8475F00A8485F03FE59A
:10058D00350206EF753A02E54475F00A8475F00AF6
:10059D008485F03FE54475F00A8485F040E53F60C1
:1005AD00030206F6805475390DE54304F53AE5432B
:1005BD001470030206401470030206AA240260039D
:1005CD000206F6E4F531753E0AC3E5266480948093
:1005DD00402CAE26AF277C007D0A1204497C007D9D
:1005ED000A1204498D3FAE26AF277C007D0A120406
:1005FD00498D40E53F60030206F6753F0A22C3E4CC
:10060D009527FBE49526FA7C007D0AAF03FE1204C4
:10061D00497C007D0A1204498D3F7C007D0AAF03A1
:10062D00AE021204498D40E53F7004753F0B2275F3
:10063D003E0B22AE56AF577C037DE81203F47C00CF
:10064D007D0A1203F48D3DAE56AF577C007D6412CA
:10065D0003F47C007D0A1203F48D3EAE56AF577C39
:10066D00007D0A1203F47C007D0A1203F48D3FAE67
:10067D0056AF577C007D0A1203F48D40755904C3A3
:10068D00E559940774809480505F74392559F8E6C4
:10069D00705774392559F8760A055980E275590253
:1006AD00C3E559940674809480500B74392559F81C
:1006BD00760A055980EAAF5DAE5CAD5BAC5A1203AC
:1006CD0073EF75F00A8485F03F753101E4FFFE7D0F
:1006DD00207C41AB5DAA5CA95BA85A1201161203DE
:0A06ED0073EF75F00A8485F04022D7
:100E8700200320D203AF2A7E00EF640170047D01A6
:100E970080027D008D50EF64024E7007D205A204D8
:040EA70033F54922B4
:10095C00E4FFFE7D4C7C42AB54AA53A952A8511221
:10096C000116120373120F46AF387E00EF24FBFD05
:10097C00EE34FFFCD3ED9537EC95365029EF24057A
:10098C00FFEE33FEC3EF9537EE95364019AC55E4C8
:10099C0012033FAB48AA47A946A8451202BC600205
:1009AC0050047F0180027F00120EAB300603020A56
:1009BC00EFD206120DDB8F488E478D468C45120EFA
:1009CC000F8E288F29AC5EAD5FE412033A7B007A60
:1009DC0040799C784612021FC004C005C006C007AF
:1009EC00AC28AD29E412033AD003D002D001D000D8
:1009FC00120116C004C005C006C007AC33AD34EC00
:100A0C0012033AD003D002D001D0001200251203F9
:100A1C00738E368F37AF2A7E00EF6002C207EF6409
:100A2C00014E6002C202EF64024E6003E4F54330F3
:100A3C0002058535388003854455AF437E00EF6051
:100A4C0006852633852734EF64014E600685565E95
:100A5C0085575FEF64024E600C855D63855C628533
:100A6C005B61855A60D3E537940AE5369400500DE6
:100A7C0085635485625385615285605122C3E53785
:100A8C00945AE5369400400CE4F554F5537552A095
:100A9C0075514022AB63AA62A961A860E4FFFE7D98
:100AAC00A07C40120021E4FBFA79A0784212021FCC
:100ABC00C004C005C006C007E53724A6FDE53634E2
:100ACC00FFFCE412033AD003D002D001D000120193
:100ADC0016E4FBFA79A078401200258F548E538DC2
:040AEC00528C5122B5
:100F7A00538EBF53890F758B18758DFCC28FD28E15
:050F8A00D2ABD2AF2242
:03001B00020AF0E6
:100AF000C0E0C0F0C083C082C0D075D000C000C0CC
:100B000001C002C003C004C005C006C0070542E51D
:100B10004270020541FFAE41BE010BBF9008C20604
:100B2000754100754200AE41AF427C007D0A120360
:100B3000F4ED4C7002C201AE41AF427C007D141254
:100B400003F4ED4C7002C203AE41AF427C007DC89D
:100B50001203F4ED4C7002C200E5425407FBFF247F
:100B600039F8E6FD7C00742B2BF8E6FB7A00120DB9
:100B700024E52A7012E537F4F580E5A0541F44807F
:100B8000F5A053A01F800FE5425407FF2449F8E663
:100B9000FD7C00120D6B30050F0558E5586464703C
:100BA00007F558A204B3920412048DD007D006D0E2
:100BB00005D004D003D002D001D000D0D0D082D054
:060BC00083D0F0D0E0320A
:0C0FC6007F237E337DB6DDFEDEFCDFFA0B
:010FD20022FC
:10000300120F0F120F7A120DDB120FC612095C12B8
:0700130006F7120E8780F5CD
:100F0F00E4F580E5A0541F44A0F5A053A01F758001
:0D0F1F0080E5A0541F4480F5A053A01F22C0
:100C5200E4FFC2B4D2B5D2C2D2C420B0027F132004
:100C6200B1027F1220B2027F1120B3027F10D2B4F0
:100C7200C2B5D2C2D2C420B0027F0F20B1027F0E11
:100C820020B2027F0D20B3027F0CD2B4D2B5C2C211
:100C9200D2C420B0027F0B20B1027F0A20B2027FB1
:100CA2000920B3027F0820B20520B3027F11D2B41B
:100CB200D2B5D2C2C2C420B0027F0720B1027F06E1
:0A0CC20020B2027F0520B3027F0478
:010CCC002205
:100FA400C0F9A4B0999282F88090FFBF8C8E888398
:030FB400C6A1864D
:100D24007580FFE5A0541F44E0F5A053A01FA80759
:100D34007401088002C333D8FCF580E5A0541F4435
:100D4400C0F5A053A01F74A42DF582740F3CF58345
:100D5400E493F580EB4A600353807FE5A0541F447D
:070D6400E0F5A053A01F22DF
:0C0D17000108000109FF010A00010BFFA8
:100D6B00ED4C600FA8077401088002C333D8FC4216
:100D7B0008800EA8077401088002C333D8FCF45214
:100D8B0008E50865096013E508F4F580E5A0541F34
:0A0D9B004480F5A053A01F8508094D
:010DA500222B
:100EAB00EF6005430A108003530AEFE50A650B60F8
:100EBB0011850A80E5A0541F44A0F5A053A01F85FF
:020ECB000A0B10
:010ECD002202
:040F2C00D2A07F0AC6
:100F3000000000000000000000000000000000AE03
:060F4000071FEE70EB221A
:0F0FB700D2A1120F2CC2A17F0A120F30C2A022AA
:0C0FD300C2A1120F2CD2A17F0A020F3025
:020DA600AD0797
:100DA800E4FCECC39408748094805024C2A07F0AA9
:100DB800120F30ED30E704D2A18002C2A17F0A12DF
:100DC8000F30D2A0ED25E0FD7F0A120F300C80D243
:020DD800C2A0B7
:010DDA0022F6
:030F8F00120DA69A
:100F9200120F2CA2A1E433FDC2A07F0A120F30AFC0
:010FA2000549
:010FA300222B
:100F4600AB07120FB77F90120F8F7F43120F8FAF31
:0A0F560003120DA6120F92020FD332
:040EF1007F057E00FB
:100EF500EF1FAA0670011E4A600FE4FDEDC3940CB6
:090F05007480948050EA0D80F321
:010F0E0022C0
:020E3900A90707
:100E3B00E4FBEBC39408748094805012C294E913C2
:100E4B009294120EF1D294E9C313F90B80E47F054F
:050E5B007E00020EF50F
:100ECE00E4FBEBC39408748094805014C294ECC37A
:100EDE0013FCD294309403430480120EF10B80E283
:020EEE00AF044F
:010EF00022DF
:100E6000C208D2947F0C7E00120EF5C2947F507E91
:100E700000120EF5D2947F0A7E00120EF5A2949213
:060E800008120EF1A208A9
:010E86002249
:100DDB00120E607FCC120E397F44120E39120E6048
:100DEB007FCC120E397FBE120E39120ECEA907120E
:100DFB000ECEEFAD01FCEC12033AE4FBFA798078EE
:040E0B004102021F7F
:060FDF0000007F21DFFE8F
:010FE50022E9
:100F6000E4FEEEC3940874809480500DD290120F6A
:090F7000DFC290120FDF0E80E9D0
:010F79002255
:100E0F00E4FDFCF5D9F5E9F5F9120F60D2DE20DF2C
:100E1F00032091FAC2DE30DF06C2DFE4FEFF22AF0D
:090E2F00F9EFADE9FCEDAE04FFA2
:010E38002297
:10001E000203DFE86480F8E933E83360110460F02E
:10002E00ED33EC337009E8FCE9FDEAFEEBFF220448
:10003E0060DED3EB9FEA9EE99DE8C2E78CF0C2F743
:10004E0095F0400CE8CCF8E9CDF9EACEFAEBCFFB0F
:10005E001203AA85D0F05804700320D5B3E80470BB
:10006E00075002B2D50203E992D5EC0460F7E4CC56
:10007E00C0E0C398F8603B94186008400DD0E0FBD8
:10008E000203C1E4FBFAC9FC8028E830E406E4C9A7
:10009E00FBE4CAFCE830E305E4C9CACBFCE854072C
:1000AE006010F8C3E913F9EA13FAEB13FBEC13FC37
:1000BE00D8F130F52FC3E49CFCEF9BFFEE9AFEEDDA
:1000CE0099FDD0E0FBEF4E4D4C701222DB03020384
:1000DE00E6EC2CFCEF33FFEE33FEED33FDED30E7B7
:1000EE00EB0203C1EF2BFFEE3AFEED39FDD0E0FB44
:1000FE0050130BBB00030203E9ED13FDEE13FEEFED
:08010E0013FFEC13FC0203C116
:10011600EC4D6011E8497017ED33EC3304600DE4E3
:10012600FCFFFEFD22E933E8330470F80203DF1218
:1001360003AA58046009E4CC248150062850090219
:1001460003E92840030203E6C0E0EB4A7044B980A5
:1001560006D0E0FB0203D5EF4E701CBD8008EBFF16
:10016600EAFEE9FD80EBE98DF0A4FEE5F00201FF71
:10017600E9CDF9EAFEEBFFEF89F0A4FCE5F0CE89C4
:10018600F0A42EFFE435F0CD89F0A42DFEE435F081
:100196008067EF4E7005BD80D780C3EF8BF0A4ACAF
:1001A600F0EE8BF0A42CFCE435F0F8EF8AF0A42CEA
:1001B600E5F038FCE433CB8DF0A42CFCE5F03BF8FD
:1001C600EE8AF0A42CFCE5F038F8E433CF89F0A4ED
:1001D6002CFCE5F038CF3400CE89F0A42FFFE5F0F3
:1001E6003EFEE433C98DF0A42EFEE5F039CD8AF04B
:1001F600A42FFFE5F03EFEE43DFD33D0E0FB5007C3
:100206000BBB000F0203E9EC2CFCEF33FFEE33FED1
:06021600ED33FD0203C1FF
:10021C000203E9EC5D046005E8590470030203DF96
:10022C001203AA580460F6EC4860F2EC7004FDFE70
:10023C00FF22C860DB2481C85009C39860025006B5
:10024C000203E69850CAF582E9294B4A7005AB8245
:10025C000203D575F0007C1A7880C3EF9BEE9AED03
:10026C0099400DC3EF9BFFEE9AFEED99FDE842F02D
:10027C00DC23ACF0D0E0FFD0E0FED0E0FDAB822080
:10028C00E7101BEB60BAEC2CFCEF33FFEE33FEED0A
:10029C0033FD0203C1E803F830E705C0F075F00048
:1002AC00EF2FFFEE33FEED33FD40B830E7C280AAEE
:1002BC0074F8CC6480CCC86480C8F58204604FC3E9
:1002CC00EB9FF5F0EA9E42F0E99D42F0E89C45F088
:1002DC00603C501DE5825FFFE582D313CB5BCBF412
:1002EC002B5582FB50280ABA002409B9002008803B
:1002FC001DE5825BFBE582D313CF5FCFF4C3132FD5
:10030C005582FF50090EBE00050DBD00010CC3EB5C
:10031C009FF5F0EA9E42F0E99D42F0E89C45F060C2
:09032C0007CC4820E701B3EC22E4
:1003350075F020800E75F010800575F0087D007E43
:10034500007F003392D530D50312047FEC33401083
:10035500EF33FFEE33FEED33FDEC33FCD5F0ED224C
:0E036500E5F0247EA2D513CC92E7CDCEFF2288
:10037300EDD2E7CD33EC3392D524814006E4FFFE82
:10038300FDFC22FCE4CFCECDCC24E0501174FF80E1
:10039300EDC3CC13CCCD13CDCE13CECF13CF04707E
:0703A300F030D5DE02047FFB
:1003AA00E9D2E7C933E833F892D5EDD2E7CD33EC99
:0703BA0033FC5002B2D52212
:1003C100EC30E7100FBF000C0EBE00080DBD00049D
:1003D1000BEB6014A2D5EB13FCED92E7FD2274FF49
:1003E100FCFDFEFF22E480F8A2D574FF13FC7D80A2
:0303F100E480EFB6
:100BD200020003E493A3F8E493A34003F68001F236
:100BE20008DFF48029E493A3F85407240CC8C33324
:100BF200C4540F4420C8834004F456800146F6DFF3
:100C0200E4800B0102040810204080900CCDE47EA9
:100C1200019360BCA3FF543F30E509541FFEE493E7
:100C2200A360010ECF54C025E060A840B8E493A3AE
:100C3200FAE493A3F8E493A3C8C582C8CAC583CAD9
:100C4200F0A3C8C582C8CAC583CADFE9DEE780BE91
:010D230000CF
:1003F400BC000BBE0029EF8DF084FFADF022E4CCED
:10040400F875F008EF2FFFEE33FEEC33FCEE9DECB5
:10041400984005FCEE9DFE0FD5F0E9E4CEFD22EDFB
:10042400F8F5F0EE8420D21CFEADF075F008EF2F45
:10043400FFED33FD4007985006D5F0F222C398FD36
:050444000FD5F0EA22D3
:10044900C2D5EC30E709B2D5E4C39DFDE49CFCEECE
:1004590030E715B2D5E4C39FFFE49EFE1203F4C34F
:10046900E49DFDE49CFC80031203F430D507C3E44A
:060479009FFFE49EFE223D
:0E047F00C3E49FFFE49EFEE49DFDE49CFC228E
:00000001FF
