BL51 BANKED LINKER/LOCATER V6.22.2.0                                                    01/28/2024  12:42:24  PAGE 1


BL51 BANKED LINKER/LOCATER V6.22.2.0, INVOKED BY:
D:\KEIL 5\C51\BIN\BL51.EXE .\Objects\main.obj, .\Objects\Key.obj, .\Objects\Seg.obj, .\Objects\LED.obj, .\Objects\Init.o
>> bj, .\Objects\iic.obj TO .\Objects\project PRINT (.\Listings\project.m51) RAMSIZE (256)


MEMORY MODEL: SMALL


INPUT MODULES INCLUDED:
  .\Objects\main.obj (MAIN)
  .\Objects\Key.obj (KEY)
  .\Objects\Seg.obj (SEG)
  .\Objects\LED.obj (LED)
  .\Objects\Init.obj (INIT)
  .\Objects\iic.obj (IIC)
  D:\KEIL 5\C51\LIB\C51S.LIB (?C_STARTUP)
  D:\KEIL 5\C51\LIB\C51S.LIB (?C?UIDIV)
  D:\KEIL 5\C51\LIB\C51S.LIB (?C_INIT)


LINK MAP OF MODULE:  .\Objects\project (MAIN)


            TYPE    BASE      LENGTH    RELOCATION   SEGMENT NAME
            -----------------------------------------------------

            * * * * * * *   D A T A   M E M O R Y   * * * * * * *
            REG     0000H     0008H     ABSOLUTE     "REG BANK 0"
            DATA    0008H     0006H     UNIT         ?DT?LED
                    000EH     0012H                  *** GAP ***
            BIT     0020H.0   0000H.2   UNIT         ?BI?MAIN
            BIT     0020H.2   0000H.2   UNIT         _BIT_GROUP_
                    0020H.4   0000H.4                *** GAP ***
            DATA    0021H     0022H     UNIT         ?DT?MAIN
            IDATA   0043H     0001H     UNIT         ?STACK

            * * * * * * *   C O D E   M E M O R Y   * * * * * * *
            CODE    0000H     0003H     ABSOLUTE     
            CODE    0003H     0001H     UNIT         ?PR?LED_PROC?MAIN
                    0004H     0007H                  *** GAP ***
            CODE    000BH     0003H     ABSOLUTE     
            CODE    000EH     008CH     UNIT         ?C_C51STARTUP
            CODE    009AH     008AH     UNIT         ?PR?TIMER0_SEVER?MAIN
            CODE    0124H     0055H     UNIT         ?C?LIB_CODE
            CODE    0179H     0041H     UNIT         ?PR?_SEG_DISP?SEG
            CODE    01BAH     003AH     UNIT         ?PR?_LED_DISP?LED
            CODE    01F4H     0037H     UNIT         ?C_INITSEG
            CODE    022BH     0035H     UNIT         ?PR?_IIC_SENDBYTE?IIC
            CODE    0260H     0026H     UNIT         ?PR?IIC_RECBYTE?IIC
            CODE    0286H     0026H     UNIT         ?PR?_AD_READDATA?IIC
            CODE    02ACH     0025H     UNIT         ?PR?SEG_PROC?MAIN
            CODE    02D1H     0025H     UNIT         ?PR?_BEEP?LED
            CODE    02F6H     0025H     UNIT         ?PR?_RELAY?LED
            CODE    031BH     001DH     UNIT         ?PR?SYSTEM_INIT?INIT
            CODE    0338H     001BH     UNIT         ?PR?IIC_WAITACK?IIC
            CODE    0353H     0019H     UNIT         ?PR?KEY_PROC?MAIN
            CODE    036CH     0017H     UNIT         ?PR?KEY_READ?KEY
            CODE    0383H     0017H     UNIT         ?PR?IIC_SENDACK?IIC
BL51 BANKED LINKER/LOCATER V6.22.2.0                                                  01/28/2024  12:42:24  PAGE 2


            CODE    039AH     0016H     UNIT         ?CO?SEG
            CODE    03B0H     0016H     UNIT         ?PR?_DA_WRITEDATA?IIC
            CODE    03C6H     0015H     UNIT         ?PR?TIMER0_INIT?MAIN
            CODE    03DBH     0011H     UNIT         ?PR?MAIN?MAIN
            CODE    03ECH     000FH     UNIT         ?PR?IIC_START?IIC
            CODE    03FBH     000CH     UNIT         ?PR?_IIC_DELAY?IIC
            CODE    0407H     000CH     UNIT         ?PR?IIC_STOP?IIC



OVERLAY MAP OF MODULE:   .\Objects\project (MAIN)


SEGMENT                           BIT_GROUP 
  +--> CALLED SEGMENT          START    LENGTH
----------------------------------------------
?PR?TIMER0_SEVER?MAIN          -----    -----
  +--> ?PR?_SEG_DISP?SEG
  +--> ?PR?_LED_DISP?LED

?PR?_SEG_DISP?SEG              -----    -----
  +--> ?CO?SEG

?PR?_LED_DISP?LED              0020H.2  0000H.1

*** NEW ROOT ***************************************************

?C_C51STARTUP                  -----    -----
  +--> ?PR?MAIN?MAIN
  +--> ?C_INITSEG

?PR?MAIN?MAIN                  -----    -----
  +--> ?PR?TIMER0_INIT?MAIN
  +--> ?PR?SYSTEM_INIT?INIT
  +--> ?PR?KEY_PROC?MAIN
  +--> ?PR?SEG_PROC?MAIN
  +--> ?PR?LED_PROC?MAIN

?PR?KEY_PROC?MAIN              -----    -----
  +--> ?PR?KEY_READ?KEY

?PR?SEG_PROC?MAIN              -----    -----
  +--> ?PR?_DA_WRITEDATA?IIC
  +--> ?PR?_AD_READDATA?IIC

?PR?_DA_WRITEDATA?IIC          -----    -----
  +--> ?PR?IIC_WAITACK?IIC
  +--> ?PR?_IIC_SENDBYTE?IIC
  +--> ?PR?IIC_STOP?IIC

?PR?IIC_WAITACK?IIC            0020H.3  0000H.1
  +--> ?PR?IIC_START?IIC
  +--> ?PR?_IIC_SENDBYTE?IIC
  +--> ?PR?_IIC_DELAY?IIC

?PR?IIC_START?IIC              -----    -----
  +--> ?PR?_IIC_DELAY?IIC
BL51 BANKED LINKER/LOCATER V6.22.2.0                                                  01/28/2024  12:42:24  PAGE 3



?PR?_IIC_SENDBYTE?IIC          -----    -----
  +--> ?PR?_IIC_DELAY?IIC

?PR?IIC_STOP?IIC               -----    -----
  +--> ?PR?_IIC_DELAY?IIC

?PR?_AD_READDATA?IIC           -----    -----
  +--> ?PR?IIC_WAITACK?IIC
  +--> ?PR?_IIC_SENDBYTE?IIC
  +--> ?PR?IIC_START?IIC
  +--> ?PR?IIC_RECBYTE?IIC
  +--> ?PR?IIC_SENDACK?IIC
  +--> ?PR?IIC_STOP?IIC

?PR?IIC_RECBYTE?IIC            -----    -----
  +--> ?PR?_IIC_DELAY?IIC

?PR?IIC_SENDACK?IIC            0020H.3  0000H.1
  +--> ?PR?_IIC_DELAY?IIC



SYMBOL TABLE OF MODULE:  .\Objects\project (MAIN)

  VALUE           TYPE          NAME
  ----------------------------------

  -------         MODULE        MAIN
  C:0000H         SYMBOL        _ICE_DUMMY_
  D:0080H         PUBLIC        P0
  D:0090H         PUBLIC        P1
  D:00A0H         PUBLIC        P2
  D:00B0H         PUBLIC        P3
  D:00C0H         PUBLIC        P4
  B:0020H.0       PUBLIC        Seg_Slow_Flag
  D:00C8H         PUBLIC        P5
  B:00A8H.7       PUBLIC        EA
  D:00E8H         PUBLIC        P6
  D:00F8H         PUBLIC        P7
  D:0023H         PUBLIC        Seg_Point
  D:00A8H         PUBLIC        IE
  B:0020H.1       PUBLIC        Key_Slow_Flag
  C:02ACH         PUBLIC        Seg_Proc
  D:00B8H         PUBLIC        IP
  C:009AH         PUBLIC        Timer0_Sever
  D:002BH         PUBLIC        Seg_Buf
  C:0353H         PUBLIC        Key_Proc
  D:0033H         PUBLIC        Slow_Down
  D:00D8H         PUBLIC        CCON
  D:0035H         PUBLIC        Key_Down
  C:03DBH         PUBLIC        main
  C:03C6H         PUBLIC        Timer0_Init
  D:0036H         PUBLIC        Key_UP
  D:0098H         PUBLIC        SCON
  D:0089H         PUBLIC        TMOD
  D:0088H         PUBLIC        TCON
BL51 BANKED LINKER/LOCATER V6.22.2.0                                                  01/28/2024  12:42:24  PAGE 4


  D:0037H         PUBLIC        usLED
  D:008EH         PUBLIC        AUXR
  B:00A8H.1       PUBLIC        ET0
  B:0088H.5       PUBLIC        TF0
  C:0003H         PUBLIC        LED_Proc
  D:008CH         PUBLIC        TH0
  D:008AH         PUBLIC        TL0
  B:0088H.4       PUBLIC        TR0
  D:003FH         PUBLIC        dat1
  D:0041H         PUBLIC        dat2
  D:00D0H         PUBLIC        PSW
  -------         PROC          KEY_PROC
  -------         DO            
  D:0021H         SYMBOL        Key_Val
  D:0022H         SYMBOL        Key_Old
  -------         ENDDO         
  C:0353H         LINE#         21
  C:0353H         LINE#         22
  C:0353H         LINE#         25
  C:0356H         LINE#         26
  C:0358H         LINE#         28
  C:035DH         LINE#         29
  C:0368H         LINE#         30
  C:036BH         LINE#         33
  -------         ENDPROC       KEY_PROC
  -------         PROC          SEG_PROC
  C:02ACH         LINE#         36
  C:02ACH         LINE#         37
  C:02ACH         LINE#         38
  C:02AFH         LINE#         39
  C:02B1H         LINE#         42
  C:02B6H         LINE#         44
  C:02C0H         LINE#         45
  C:02CAH         LINE#         46
  C:02CDH         LINE#         47
  C:02D0H         LINE#         55
  -------         ENDPROC       SEG_PROC
  -------         PROC          LED_PROC
  C:0003H         LINE#         58
  C:0003H         LINE#         59
  C:0003H         LINE#         61
  -------         ENDPROC       LED_PROC
  -------         PROC          TIMER0_INIT
  C:03C6H         LINE#         64
  C:03C6H         LINE#         65
  C:03C6H         LINE#         66
  C:03C9H         LINE#         67
  C:03CCH         LINE#         68
  C:03CFH         LINE#         69
  C:03D2H         LINE#         70
  C:03D4H         LINE#         71
  C:03D6H         LINE#         72
  C:03D8H         LINE#         73
  C:03DAH         LINE#         74
  -------         ENDPROC       TIMER0_INIT
  -------         PROC          TIMER0_SEVER
  C:009AH         LINE#         77
BL51 BANKED LINKER/LOCATER V6.22.2.0                                                  01/28/2024  12:42:24  PAGE 5


  C:00B7H         LINE#         79
  C:00D0H         LINE#         80
  C:00E1H         LINE#         81
  C:00F9H         LINE#         82
  C:0109H         LINE#         83
  -------         ENDPROC       TIMER0_SEVER
  -------         PROC          MAIN
  C:03DBH         LINE#         86
  C:03DBH         LINE#         87
  C:03DBH         LINE#         88
  C:03DEH         LINE#         89
  C:03E1H         LINE#         91
  C:03E1H         LINE#         92
  C:03E1H         LINE#         93
  C:03E4H         LINE#         94
  C:03E7H         LINE#         95
  C:03EAH         LINE#         96
  -------         ENDPROC       MAIN
  -------         ENDMOD        MAIN

  -------         MODULE        KEY
  C:0000H         SYMBOL        _ICE_DUMMY_
  D:0080H         PUBLIC        P0
  D:0090H         PUBLIC        P1
  D:00A0H         PUBLIC        P2
  D:00B0H         PUBLIC        P3
  D:00C0H         PUBLIC        P4
  D:00C8H         PUBLIC        P5
  D:00E8H         PUBLIC        P6
  D:00F8H         PUBLIC        P7
  C:036CH         PUBLIC        Key_Read
  D:00A8H         PUBLIC        IE
  D:00B8H         PUBLIC        IP
  D:00D8H         PUBLIC        CCON
  B:00B0H.0       PUBLIC        P30
  D:0098H         PUBLIC        SCON
  B:00B0H.1       PUBLIC        P31
  D:0088H         PUBLIC        TCON
  B:00B0H.2       PUBLIC        P32
  B:00B0H.4       PUBLIC        P34
  D:00D0H         PUBLIC        PSW
  -------         PROC          KEY_READ
  -------         DO            
  D:0007H         SYMBOL        Key_Temp
  -------         ENDDO         
  C:036CH         LINE#         5
  C:036CH         LINE#         6
  C:036CH         LINE#         7
  C:036EH         LINE#         8
  C:0373H         LINE#         9
  C:0378H         LINE#         10
  C:037DH         LINE#         11
  C:0382H         LINE#         12
  C:0382H         LINE#         13
  -------         ENDPROC       KEY_READ
  -------         ENDMOD        KEY

BL51 BANKED LINKER/LOCATER V6.22.2.0                                                  01/28/2024  12:42:24  PAGE 6


  -------         MODULE        SEG
  C:0000H         SYMBOL        _ICE_DUMMY_
  D:0080H         PUBLIC        P0
  D:0090H         PUBLIC        P1
  D:00A0H         PUBLIC        P2
  D:00B0H         PUBLIC        P3
  D:00C0H         PUBLIC        P4
  D:00C8H         PUBLIC        P5
  D:00E8H         PUBLIC        P6
  D:00F8H         PUBLIC        P7
  C:03A2H         PUBLIC        Seg_Dula
  D:00A8H         PUBLIC        IE
  C:0179H         PUBLIC        _Seg_Disp
  D:00B8H         PUBLIC        IP
  C:039AH         PUBLIC        Seg_Wula
  D:00D8H         PUBLIC        CCON
  D:0098H         PUBLIC        SCON
  D:0088H         PUBLIC        TCON
  D:00D0H         PUBLIC        PSW
  -------         PROC          _SEG_DISP
  D:0007H         SYMBOL        Wula
  D:0004H         SYMBOL        Dula
  D:0002H         SYMBOL        Point
  C:0179H         LINE#         8
  C:0179H         LINE#         9
  C:0179H         LINE#         10
  C:017CH         LINE#         11
  C:0184H         LINE#         12
  C:0187H         LINE#         14
  C:018EH         LINE#         15
  C:0196H         LINE#         16
  C:0199H         LINE#         18
  C:01A7H         LINE#         19
  C:01ABH         LINE#         20
  C:01AEH         LINE#         21
  C:01B6H         LINE#         22
  C:01B9H         LINE#         23
  -------         ENDPROC       _SEG_DISP
  -------         ENDMOD        SEG

  -------         MODULE        LED
  C:0000H         SYMBOL        _ICE_DUMMY_
  C:02F6H         PUBLIC        _Relay
  D:0080H         PUBLIC        P0
  D:0090H         PUBLIC        P1
  D:00A0H         PUBLIC        P2
  D:00B0H         PUBLIC        P3
  D:00C0H         PUBLIC        P4
  D:00C8H         PUBLIC        P5
  D:00E8H         PUBLIC        P6
  D:00F8H         PUBLIC        P7
  D:00A8H         PUBLIC        IE
  D:00B8H         PUBLIC        IP
  D:00D8H         PUBLIC        CCON
  D:0098H         PUBLIC        SCON
  D:0088H         PUBLIC        TCON
  C:01BAH         PUBLIC        _LED_Disp
BL51 BANKED LINKER/LOCATER V6.22.2.0                                                  01/28/2024  12:42:24  PAGE 7


  D:00D0H         PUBLIC        PSW
  C:02D1H         PUBLIC        _Beep
  -------         PROC          _LED_DISP
  D:0007H         SYMBOL        addr
  B:0020H.2       SYMBOL        enable
  -------         DO            
  D:0008H         SYMBOL        temp
  D:0009H         SYMBOL        temp_old
  -------         ENDDO         
  C:01BAH         LINE#         6
  C:01BAH         LINE#         7
  C:01BAH         LINE#         11
  C:01BDH         LINE#         12
  C:01CCH         LINE#         14
  C:01DAH         LINE#         16
  C:01E0H         LINE#         17
  C:01E0H         LINE#         18
  C:01E5H         LINE#         19
  C:01EDH         LINE#         20
  C:01F0H         LINE#         21
  C:01F3H         LINE#         22
  C:01F3H         LINE#         23
  -------         ENDPROC       _LED_DISP
  -------         PROC          _BEEP
  D:0007H         SYMBOL        flag
  -------         DO            
  D:000AH         SYMBOL        temp
  D:000BH         SYMBOL        temp_old
  -------         ENDDO         
  C:02D1H         LINE#         26
  C:02D1H         LINE#         27
  C:02D1H         LINE#         31
  C:02D4H         LINE#         32
  C:02D9H         LINE#         34
  C:02DCH         LINE#         36
  C:02E2H         LINE#         37
  C:02E2H         LINE#         38
  C:02E7H         LINE#         39
  C:02EFH         LINE#         40
  C:02F2H         LINE#         41
  C:02F5H         LINE#         42
  C:02F5H         LINE#         43
  -------         ENDPROC       _BEEP
  -------         PROC          _RELAY
  D:0007H         SYMBOL        flag
  -------         DO            
  D:000CH         SYMBOL        temp
  D:000DH         SYMBOL        temp_old
  -------         ENDDO         
  C:02F6H         LINE#         46
  C:02F6H         LINE#         47
  C:02F6H         LINE#         51
  C:02F9H         LINE#         52
  C:02FEH         LINE#         54
  C:0301H         LINE#         56
  C:0307H         LINE#         57
  C:0307H         LINE#         58
BL51 BANKED LINKER/LOCATER V6.22.2.0                                                  01/28/2024  12:42:24  PAGE 8


  C:030CH         LINE#         59
  C:0314H         LINE#         60
  C:0317H         LINE#         61
  C:031AH         LINE#         62
  C:031AH         LINE#         63
  -------         ENDPROC       _RELAY
  -------         ENDMOD        LED

  -------         MODULE        INIT
  C:0000H         SYMBOL        _ICE_DUMMY_
  C:031BH         PUBLIC        System_Init
  D:0080H         PUBLIC        P0
  D:0090H         PUBLIC        P1
  D:00A0H         PUBLIC        P2
  D:00B0H         PUBLIC        P3
  D:00C0H         PUBLIC        P4
  D:00C8H         PUBLIC        P5
  D:00E8H         PUBLIC        P6
  D:00F8H         PUBLIC        P7
  D:00A8H         PUBLIC        IE
  D:00B8H         PUBLIC        IP
  D:00D8H         PUBLIC        CCON
  D:0098H         PUBLIC        SCON
  D:0088H         PUBLIC        TCON
  D:00D0H         PUBLIC        PSW
  -------         PROC          SYSTEM_INIT
  C:031BH         LINE#         9
  C:031BH         LINE#         10
  C:031BH         LINE#         11
  C:031EH         LINE#         12
  C:0326H         LINE#         13
  C:0329H         LINE#         15
  C:032CH         LINE#         16
  C:0334H         LINE#         17
  C:0337H         LINE#         18
  -------         ENDPROC       SYSTEM_INIT
  -------         ENDMOD        INIT

  -------         MODULE        IIC
  C:0000H         SYMBOL        _ICE_DUMMY_
  D:0090H         PUBLIC        P1
  D:00A0H         PUBLIC        P2
  D:00B0H         PUBLIC        P3
  D:00A8H         PUBLIC        IE
  D:00B8H         PUBLIC        IP
  C:03FFH         PUBLIC        _IIC_Delay
  D:0098H         PUBLIC        SCON
  D:0088H         PUBLIC        TCON
  C:03ECH         PUBLIC        IIC_Start
  C:0383H         PUBLIC        IIC_SendAck
  B:00A0H.1       PUBLIC        SDA
  C:022BH         PUBLIC        _IIC_SendByte
  C:0342H         PUBLIC        IIC_WaitAck
  C:0407H         PUBLIC        IIC_Stop
  C:0286H         PUBLIC        _AD_ReadData
  B:00A0H.0       PUBLIC        SCL
  D:00C8H         PUBLIC        T2CON
BL51 BANKED LINKER/LOCATER V6.22.2.0                                                  01/28/2024  12:42:24  PAGE 9


  C:0260H         PUBLIC        IIC_RecByte
  C:03B0H         PUBLIC        _DA_WriteData
  D:00D0H         PUBLIC        PSW
  C:03FBH         SYMBOL        L?0024
  -------         PROC          L?0023
  -------         ENDPROC       L?0023
  C:03FBH         SYMBOL        L?0024
  -------         PROC          _IIC_DELAY
  D:0007H         SYMBOL        i
  C:03FFH         LINE#         11
  C:03FFH         LINE#         12
  C:03FFH         LINE#         13
  C:0400H         LINE#         14
  C:0406H         LINE#         15
  -------         ENDPROC       _IIC_DELAY
  -------         PROC          IIC_START
  C:03ECH         LINE#         18
  C:03ECH         LINE#         19
  C:03ECH         LINE#         20
  C:03EEH         LINE#         21
  C:03EEH         LINE#         22
  C:03F1H         LINE#         23
  C:03F3H         LINE#         24
  C:03F8H         LINE#         25
  C:03FAH         LINE#         26
  -------         ENDPROC       IIC_START
  -------         PROC          IIC_STOP
  C:0407H         LINE#         29
  C:0407H         LINE#         30
  C:0407H         LINE#         31
  C:0409H         LINE#         32
  C:0409H         LINE#         33
  C:040CH         LINE#         34
  C:040EH         LINE#         35
  -------         ENDPROC       IIC_STOP
  -------         PROC          IIC_SENDACK
  B:0020H.3       SYMBOL        ackbit
  C:0383H         LINE#         39
  C:0383H         LINE#         40
  C:0383H         LINE#         41
  C:0385H         LINE#         42
  C:0389H         LINE#         43
  C:038EH         LINE#         44
  C:038EH         LINE#         45
  C:0391H         LINE#         46
  C:0393H         LINE#         47
  C:0395H         LINE#         48
  -------         ENDPROC       IIC_SENDACK
  -------         PROC          L?0022
  -------         ENDPROC       L?0022
  -------         PROC          IIC_WAITACK
  -------         DO            
  B:0020H.3       SYMBOL        ackbit
  -------         ENDDO         
  C:0342H         LINE#         52
  C:0342H         LINE#         53
  C:0342H         LINE#         56
BL51 BANKED LINKER/LOCATER V6.22.2.0                                                  01/28/2024  12:42:24  PAGE 10


  C:0342H         LINE#         57
  C:0345H         LINE#         58
  C:0349H         LINE#         59
  C:034BH         LINE#         60
  C:0350H         LINE#         61
  C:0352H         LINE#         62
  -------         ENDPROC       IIC_WAITACK
  -------         PROC          _IIC_SENDBYTE
  D:0005H         SYMBOL        byt
  -------         DO            
  D:0004H         SYMBOL        i
  -------         ENDDO         
  C:022BH         LINE#         65
  C:022DH         LINE#         66
  C:022DH         LINE#         69
  C:0239H         LINE#         70
  C:0239H         LINE#         71
  C:023BH         LINE#         72
  C:0240H         LINE#         73
  C:0248H         LINE#         74
  C:024AH         LINE#         75
  C:024FH         LINE#         76
  C:0251H         LINE#         77
  C:0255H         LINE#         78
  C:025AH         LINE#         79
  C:025DH         LINE#         80
  C:025FH         LINE#         81
  -------         ENDPROC       _IIC_SENDBYTE
  -------         PROC          IIC_RECBYTE
  -------         DO            
  D:0004H         SYMBOL        i
  D:0005H         SYMBOL        da
  -------         ENDDO         
  C:0260H         LINE#         84
  C:0260H         LINE#         85
  C:0260H         LINE#         87
  C:026CH         LINE#         88
  C:026CH         LINE#         89
  C:026CH         LINE#         90
  C:026FH         LINE#         91
  C:0273H         LINE#         92
  C:0279H         LINE#         93
  C:027BH         LINE#         94
  C:0280H         LINE#         95
  C:0283H         LINE#         96
  C:0285H         LINE#         97
  -------         ENDPROC       IIC_RECBYTE
  -------         PROC          _AD_READDATA
  D:0003H         SYMBOL        addr
  -------         DO            
  D:0005H         SYMBOL        Temp
  -------         ENDDO         
  C:0286H         LINE#         101
  C:0286H         LINE#         102
  C:0286H         LINE#         104
  C:0286H         LINE#         105
  C:0286H         LINE#         106
BL51 BANKED LINKER/LOCATER V6.22.2.0                                                  01/28/2024  12:42:24  PAGE 11


  C:0289H         LINE#         107
  C:028EH         LINE#         108
  C:0291H         LINE#         109
  C:0294H         LINE#         110
  C:0299H         LINE#         111
  C:029CH         LINE#         112
  C:02A1H         LINE#         113
  C:02A6H         LINE#         114
  C:02A9H         LINE#         115
  C:02ABH         LINE#         116
  -------         ENDPROC       _AD_READDATA
  -------         PROC          _DA_WRITEDATA
  D:0003H         SYMBOL        dat
  C:03B0H         LINE#         119
  C:03B0H         LINE#         120
  C:03B0H         LINE#         121
  C:03B0H         LINE#         122
  C:03B0H         LINE#         123
  C:03B3H         LINE#         124
  C:03B8H         LINE#         125
  C:03BBH         LINE#         126
  C:03C0H         LINE#         127
  C:03C3H         LINE#         128
  -------         ENDPROC       _DA_WRITEDATA
  -------         ENDMOD        IIC

  -------         MODULE        ?C?UIDIV
  C:0124H         PUBLIC        ?C?UIDIV
  -------         ENDMOD        ?C?UIDIV

*** WARNING L16: UNCALLED SEGMENT, IGNORED FOR OVERLAY PROCESS
    SEGMENT: ?PR?_BEEP?LED

*** WARNING L16: UNCALLED SEGMENT, IGNORED FOR OVERLAY PROCESS
    SEGMENT: ?PR?_RELAY?LED

Program Size: data=49.4 xdata=0 code=1036
LINK/LOCATE RUN COMPLETE.  2 WARNING(S),  0 ERROR(S)
