:101070002020CAB1BCE43A2532642D2532642D25E6
:10108000640D0A002020CEC2B6C83A252E3166B6BD
:10109000C80D0A002020B5E7D1B93A252E3266B72F
:1010A000FC0D0A002020C6B5C2CA3A252E306C6657
:1010B000BAD5D7C80D0A002020BEE0C0EB3A25649F
:1010C000C0E5C3D70D0A0020204545524F520D0AF6
:0810D0000020204F4B0D0A0027
:1012480008870A0A0A0A0A0A0A0A087F0000000030
:101258000000000008950000000000000000039254
:10126800173B37038F173B37012200012300012466
:04127800000125004C
:100CDD00300A03020E12D20A1215A98F24E52465DB
:100CED0025FF5524F522E524F45FF523852425E51C
:100CFD00256406702CE5267028D20CC3E52894F4E3
:100D0D00E5279401401D7B007A00798F1210D87B66
:100D1D00007A00798F121207E4F527F528C20C80AE
:100D2D0002C20CE52224FB601314601C2402702CFB
:100D3D000526E52664057024F52680201526E52672
:100D4D00F470197526048014E5267010FB7A00796D
:100D5D0092F5687569037D10FC1212F9E52264079E
:100D6D006003020E12E526146031146045146059BB
:100D7D0014607124046003020E127566FF7567100E
:100D8D007568707892E6756900F56A08E6756B000E
:100D9D00F56C08E6756D00F56E80587566FF756724
:100DAD0010756884855F6C855E6B855D6A855C6991
:100DBD0080417566FF75671075689485336C853253
:100DCD006B85316A853069802A7566FF7567107588
:100DDD0068A4AC29AD2AE41201D18F6C8E6B8D6A9B
:100DED008C69800F7566FF7567107568B77569003A
:100DFD00852D6A7B007A0079481206727B007A0095
:050E0D00794812148079
:010E120022BD
:100A8500300903020CDCD2097B007A00799212123C
:100A9500071213668F5F8E5E8D5D8C5C7F4312142B
:100AA5005BAC07E41201D6E4FBFA794C78421201FB
:100AB5002F8F338E328D318C301212BE8F2DE5265D
:100AC50014605F147003020B79147003020BF014A9
:100AD5007003020C8724046003020CDCE47884F6BE
:100AE50008F67892E6FF75F00A847887F6EF75F0D8
:100AF5000A8408A6F008760B7893E6FF75F00A8459
:100B0500788AF6EF75F00A8408A6F008760B7894D3
:100B1500E6FF75F00A84788DF6EF75F00A8408A66D
:100B2500F0227887760E756001C3E56094057480C0
:100B35009480500B74872560F8760A056080EAAFCB
:100B45005FAE5EAD5DAC5C12020AEF75F00A8475AE
:100B5500F00A84788CA6F0EF75F00A8408A6F07880
:100B6500857601E4FFFE7D207C41AB5FAA5EA95D31
:100B7500A85C80657887761278847601E408F67536
:100B85006001C3E560940574809480500B748725DB
:100B950060F8760A056080EAAF33AE32AD31AC302D
:100BA50012020AEF75F00A84788CA6F0E4FFFE7D48
:100BB500207C41AB33AA32A931A83012002612029B
:100BC5000AEF75F00A84788DA6F0E4FFFE7DC87CF7
:100BD50042AB33AA32A931A83012002612020A7C90
:100BE500007D0A12057D788EA60522E47884F678C4
:100BF5008776117889760A18760AAE29AF2A7C2776
:100C05007D1012057D7C007D0A12057D788AA6057A
:100C1500AE29AF2A7C037DE812057D7C007D0A1292
:100C2500057D788BA605AE29AF2A7C007D6412056B
:100C35007D7C007D0A12057D788CA605AE29AF2A3C
:100C45007C007D0A12057D7C007D0A12057D788D6C
:100C5500A605AE29AF2A7C007D0A12057D788EA6F1
:100C650005756003C3E560940774809480506874CB
:100C7500872560F8E6706074872560F8760A056058
:100C850080E2788B760A18760A18760A18760A189A
:100C9500760FE52D75F0648475F00A84788CA6F0DE
:100CA500E52D75F00A8475F00A8408A6F0E52D7522
:100CB500F00A8408A6F0756005C3E56094077480A2
:100CC5009480501374872560F8E6700B748725604F
:080CD500F8760A056080E222B6
:10000300E4FFFE7D4C7C42AB33AA32A931A8301207
:08001300002612020A0215EC9E
:100EDD00E56164086003020F69E534644C705FE5F9
:100EED003564457059E53664447053E538642070B7
:100EFD004DE539643D7047E53A64207041E537248E
:100F0D00D0FFE434FFFED3EF9407EE64809480505D
:100F1D002DE53B24D0FFE434FFFED3EF9401EE64C6
:100F2D0080948040028017E53B24D0FF74652537FF
:100F3D00F8A6077566FF7567107568D18009756627
:100F4D00FF7567107568C77B007A007948120672C5
:0D0F5D007B007A007948121480E4F56122CF
:10161500538E7F5389F0438905E4F58AF58CC28D95
:03162500D28C2242
:1015D700538EBF53890F758B18758DFCC28FD28EB2
:0515E700D2ABD2AF22DF
:03001B00020E13BF
:100E1300C0E0C0F0C083C082C0D075D000C000C0A5
:100E230001C002C003C004C005C006C007052CE50D
:100E33002C7002052BFFAE2BBE010BBF9008C2091D
:100E4300752B00752C00AE2BAF2C7C007D0A120590
:100E53007DED4C7002C20AE52C5407FBFF2487F892
:100E6300E6FD7C00747F2BF8E6FB7A001211C6E5E1
:100E73002C5407FF2495F8E6FD7C00121283052FFE
:100E8300E52F7002052EFFAE2EBE0319BFE816AF85
:100E93008CEFAD8AF529EDF52A758A00758C0075FE
:100EA3002E00752F00300C170528E5287002052742
:100EB300C394F4E527940140067527017528F5D0FE
:100EC30007D006D005D004D003D002D001D000D083
:0A0ED300D0D082D083D0F0D0E032FE
:030023000214A51F
:1014A500C0E0C0D075D000C000C00730980CAF6157
:1014B500056174342FF8A699C298D007D000D0D012
:0314C500D0E03242
:100FF6001215091213661215D71216151215C07B93
:10100600007A0079627568007569017D087C0012B6
:101016001135E56264427012FB7A007992F56875C3
:1010260069037D10FC12113580297562427B007AB6
:101036000079627568007569017D087C001212F9F5
:101046007B007A0079927568007569037D107C00D3
:101056001212F97B007A0079921210D8120CDD1266
:0A1066000A85120003120EDD80F26D
:10150900E4F580E5A0541F44A0F5A053A01F758001
:0D151900FFE5A0541F4480F5A053A01F2241
:1015A900E4FF20B0027F0720B1027F0620B2027F4C
:0615B9000520B3027F04CF
:0115BF002209
:10154200C0F9A4B0999282F88090FFBF8883C6A1A7
:0B155200868E8C0102040810204080EF
:1011C6007580FFE5A0541F44E0F5A053A01FEF90E3
:1011D600155593F580E5A0541F44C0F5A053A01FF4
:1011E60074422DF58274153CF583E493F580EB4A41
:1011F600600353807FE5A0541F44E0F5A053A01F71
:0112060022C5
:06127C000109000108FF5A
:10128300ED4C600FA8077401088002C333D8FC42F9
:1012930009800EA8077401088002C333D8FCF452F6
:1012A30009E50965086013E509F4F580E5A0541F15
:0B12B3004480F5A053A01F850908220D
:10152600E4FEEEC3940874809480500FC297EF13C4
:0B15360092A3EFC313FFD2970E80E7D3
:011541002287
:10160100C29300C29700D29300121526AF0512159E
:0416110026C2932238
:0A117F00E56625E0FFC374859FFFBD
:10118900E4FDC29300C29700D29300121526E4FF32
:10119900EFC39408748094805011C297EDC313FD76
:1011A90030A303430580D2970F80E5C29300C2970D
:0C11B90000D29700C2A300D2A300AF0533
:0111C5002207
:0610D8008B638A64896548
:1010DE00E4FCFD7F8E121601ECC3940374809480A1
:1010EE00503EAB63AA64A965120525FF75F00A840C
:1010FE00C454F0FEEF75F00A84E5F04E12056BEC69
:10110E0025E0FFC374849FFFAB630565E565AA64A4
:10111E007002056414F9120525FD1216010C80B833
:07112E007D807F8E02160197
:061207008B638A64896517
:10120D00E4F566F566C3E566940374809480502A10
:10121D0012117FEFC4540F75F00AA4FC12117FEF69
:10122D00540F2CFFAB630565E565AA647002056478
:0A123D0014F9EF12056B056680CB73
:011247002284
:04155D00D2A07F0594
:10156100000000000000000000000000000000AECC
:06157100071FEE70EB22E3
:0F162800D2A112155DC2A17F05121561C2A022C9
:0C163700C2A112155DD2A17F0502156151
:02133100AD0706
:10133300E4FCECC39408748094805024C2A07F051D
:10134300121561ED30E704D2A18002C2A17F05121C
:101353001561D2A0ED25E0FD7F051215610C80D249
:02136300C2A026
:011365002265
:10140F00E4FCECC3940874809480501712155DEDC2
:10141F0025E0FD30A103430501C2A07F0512156130
:05142F000C80DFAF0599
:011434002295
:10143500AB05AA041216287FA0121331121449AF66
:04144500031213314A
:1014490012155DA2A1E433FDC2A07F05121561AF9B
:01145900058D
:01145A00226F
:10159100C2A0EF24FF92A17F0512156112155DC251
:0815A100A0D2A17F0502156133
:02145B00AB07DD
:10145D001216287F9012143E1216287F9112133106
:10146D0012144912140FAD077F0112159112163780
:02147D00AF05B9
:01147F00224A
:1015EC00AB071216287F901213311214497F411247
:0515FC00143E02163749
:1012F9008B638A648965121435E5691569AE68706E
:101309000215684E601FAB630565E565AA64700246
:10131900056414F9120525FF1213311214497FC807
:0813290012156180D402163791
:101135008B638A6489651214351216287FA11213F0
:1011450031121449E5691569AE68700215684E607B
:101155002612140FAB630565E565AA647002056484
:1011650014F9EF12056BE56945686004E4FF800238
:0A1175007F0112159180CD0216379C
:0414EB007F057E00FB
:1014EF00EF1FAA0670011E4A600FE4FDEDC3940CB6
:0914FF007480948050EA0D80F322
:0115080022C0
:02139A00A907A1
:10139C00E4FBEBC39408748094805012C294E9135C
:1013AC0092941214EBD294E9C313F90B80E47F05E9
:0513BC007E000214EFA9
:1014C800E4FBEBC39408748094805014C294ECC37A
:1014D80013FCD2943094034304801214EB0B80E283
:0214E800AF044F
:0114EA0022DF
:1013C100C200D2947F0C7E001214EFC2947F507E33
:1013D100001214EFD2947F0A7E001214EFA29492AD
:0613E100001214EBA20053
:0113E70022E3
:101366001213C17FCC12139A7F4412139A1213C11F
:101376007FCC12139A7FBE12139A1214C8A90712B1
:1013860014C8EFAD01FCEC1201D1E4FBFA798078C8
:041396004102012FE0
:06164B0000007F21DFFE1C
:011651002276
:10157700E4FEEEC3940874809480500DD290121646
:091587004BC29012164B0E80E9D4
:011590002238
:1012BE00E4FDFCF5D9F5E9F5F9121577D2DE30919A
:1012CE000330DFFAC2DE30DF05C2DF7F0022AFF966
:1012DE00EFADE9FCEDAE04FFE41201D17B967A434B
:0A12EE00798B783C12002612020AE8
:0112F80022D3
:1015C000759850438E01538EFB75D7E675D6FF4351
:0715D0008E10D2ACD2AF2255
:081643008F993099FDC2992234
:101480008B638A648965AB63AA64A96512052560CC
:10149000130565E5657002056414F9120525FF1250
:0514A000164380E2226A
:10002600EC4D6011E8497017ED33EC3304600DE4D4
:10003600FCFFFEFD22E933E8330470F80202761273
:10004600024158046009E4CC248150062850090274
:10005600028028400302027DC0E0EB4A7044B9806A
:1000660006D0E0FB02026CEF4E701CBD8008EBFF71
:10007600EAFEE9FD80EBE98DF0A4FEE5F002010F52
:10008600E9CDF9EAFEEBFFEF89F0A4FCE5F0CE89B5
:10009600F0A42EFFE435F0CD89F0A42DFEE435F072
:1000A6008067EF4E7005BD80D780C3EF8BF0A4ACA0
:1000B600F0EE8BF0A42CFCE435F0F8EF8AF0A42CDB
:1000C600E5F038FCE433CB8DF0A42CFCE5F03BF8EE
:1000D600EE8AF0A42CFCE5F038F8E433CF89F0A4DE
:1000E6002CFCE5F038CF3400CE89F0A42FFFE5F0E4
:1000F6003EFEE433C98DF0A42EFEE5F039CD8AF03C
:10010600A42FFFE5F03EFEE43DFD33D0E0FB5007B3
:100116000BBB000F020280EC2CFCEF33FFEE33FE2C
:06012600ED33FD0202585A
:10012C00020280EC5D046005E8590470030202765B
:10013C00120241580460F6EC4860F2EC7004FDFECB
:10014C00FF22C860DB2481C85009C39860025006A6
:10015C0002027D9850CAF582E9294B4A7005AB82A0
:10016C0002026C75F0007C1A7880C3EF9BEE9AED5E
:10017C0099400DC3EF9BFFEE9AFEED99FDE842F01E
:10018C00DC23ACF0D0E0FFD0E0FED0E0FDAB822071
:10019C00E7101BEB60BAEC2CFCEF33FFEE33FEEDFB
:1001AC0033FD020258E803F830E705C0F075F000A3
:1001BC00EF2FFFEE33FEED33FD40B830E7C280AADF
:1001CC0075F020800E75F010800575F0087D007EAE
:1001DC00007F003392D530D5031205D2EC3340109A
:1001EC00EF33FFEE33FEED33FDEC33FCD5F0ED22B7
:0E01FC00E5F0247EA2D513CC92E7CDCEFF22F3
:10020A00EDD2E7CD33EC3392D524814006E4FFFEEC
:10021A00FDFC22FCE4CFCECDCC24E0501174FF804B
:10022A00EDC3CC13CCCD13CDCE13CECF13CF0470E8
:07023A00F030D5DE0205D211
:10061600E57A2466F8E6057A22786330070278667A
:10062600E475F0011205E00205252000EB7F2ED2CD
:10063600008018EF540F2490D43440D4FF30040BBC
:10064600EF24BFB41A0050032461FFE57B60021556
:100656007B057EE57E7002057D30070D7863E475C7
:10066600F0011205E0EF02056B0213E87403D207EE
:100676008003E4C207F57A8B638A648965E4F57BB7
:10068600F57DF57EE57B60077F2012065180F575C6
:100696007CFFC201C200C202C203C205C206C20872
:1006A60012061FFF700D3007057F00120662AF7E2F
:1006B600AE7D22B4255FC2D5C20412061FFF24D028
:1006C600B40A00501A75F00A787B30D50508B6FFD3
:1006D6000106C6A426F620D5047002D20380D924CA
:1006E600CFB41A00EF5004C2E5D20402094FD2017A
:1006F60080C6D20080C0D20280BCD2D580BAD205D4
:1007060080B47F201206512002077401B57B004099
:10071600F1120616FF12065102068AD208D2068088
:1007260095120616FB120616FA120616F94A4B70B1
:100736000679467A0A7BFF20022EE57B602A7E0038
:100746008E8275830012053E60060EEE657C70F0A3
:10075600C2D5EBC0E0EAC0E0E9C0E0EE1209AFD0D6
:10076600E0F9D0E0FAD0E0FB120525FF60AAEBC065
:10077600E0EAC0E0E9C0E0120651D0E02401F9D079
:10078600E03400FAD0E0FBE57C0460DCD57CD9805F
:1007960087D20280A212099260F7E57C70010412EA
:1007A600028BA97C600DE57C600914F57C120A3980
:1007B600EF60F3EA30E702F404C3995077EAF425D0
:1007C6007C0430E701E404F57C800D12099260C1D7
:1007D600EA057C257C12028BEA7879F630E701E49B
:1007E600257C04D57C04200501141209AFE4C0E081
:1007F600120A397879E6601320E70714F6120639EB
:10080600802204F6D0E014C0E07F00120639E57CB1
:100816006007120630157C800B300503120630D0B7
:10082600E002068AD0E00480C512099260A0E57C49
:100836000412028B7879EAF6E57C20050260010451
:0508460024041209AFBB
:10084B0074FF04C0E0120A39120639E57C20050258
:10085B006003120630D0E0B57CE87F451206437882
:10086B0079E67F2B30E7047F2DF404C0E0120651AC
:10087B00D0E075F00A84C0F012063AD0E012063AC6
:10088B0002068A791080027908C206C2088008D253
:10089B00D5790A8004790AC2D5E57C047002F57C0F
:1008AB00E4FAFDFEFF120616FC7B0820011312066C
:1008BB0016FD7B1030000A120616FE120616FF7B81
:1008CB0020EC3382D592D55013C3E43000069FFF42
:1008DB00E49EFEE42001039DFDE49CFCE4CBF8C206
:1008EB0001EC700CCFCECDCCE824F8F870F3801768
:1008FB00C3EF33FFEE33FEED33FDEC33FCEB33FB99
:10090B00994002FB0FD8E9EB300105F8D0E0C44861
:10091B00B201C0E00AEC4D4E4F78207B0070C2EA6A
:10092B00B57C0040BCC0E01209B1D0F0D0E0200192
:10093B0004C4C0E0C4B201C0F012063AD0F0D5F046
:10094B00EB02068A1205F0072753088E5806F84C5F
:10095B0006F44208924F089A44089A49070D430837
:10096B00A05507D146082F45079B470A665006FC42
:10097B002D07002E07232B0704230721200A4F2ABC
:10098B0006BC480000071BE57CB4FF03757C061210
:10099B000616FC120616FD120616FE120616FF7838
:1009AB00720202BA790AA2D5200314300509B910D4
:1009BB00020404B9080104A2D52006025001042048
:1009CB0002689202B57B005034C0E07F20300319DF
:1009DB007F30A20272067205500F120A08C202C2C1
:1009EB0006C205C2087F30800F300503E9C0E01254
:1009FB000651300503D0E0F9D0E0B57BCC300517BC
:100A0B007F30B9100C1206517F583004077F788065
:100A1B0003B908031206513002057F2D0206517FE0
:100A2B00202008F87F2B2006F322920280CF7F0034
:100A3B00B4070050052472F8E6FF22286E756C6C23
:100A4B002900D2011206163001F8C201787B30D58D
:100A5B000108F60206BC2D50434958120616240312
:100A6B00B405004001E4900A6193120642743A12F5
:0A0A7B000642D203757B0402088EC8
:10024100E9D2E7C933E833F892D5EDD2E7CD33EC03
:0702510033FC5002B2D5227C
:10025800EC30E7100FBF000C0EBE00080DBD000407
:100268000BEB6014A2D5EB13FCED92E7FD2274FFB3
:10027800FCFDFEFF22E480F8A2D574FF13FC7D800C
:03028800E480EF20
:10028B00F920E72824F950037907E4F42402FB183A
:10029B00DBFDE624FB5014E9600DE4F618E604F6EA
:0F02AB00B40A08E4F6D9F57401F60A22C2D52286
:1002BA00ED33EC3392D5FA602AB4FF33EDC2E77B13
:1002CA00FF60067A0279DFE4227A0279E820D5040F
:1002DA007A0279E3224E614E002B494E46002D499F
:1002EA004E4600E47A08F608DAFC7B00740722E836
:1002FA00C0E0ECC0E0EDC0E0EEC0E0EFC0E0EA75BF
:10030A00F010A4CAABF075F04DA42BFBE435F0FC59
:10031A00EA2410FAEB34C5FBEC34D9FCEDC2E7FF52
:10032A0075F056A4F42411C5F0F434C58FF0A42A4C
:10033A00E5F03BE43CF620E7141204E5D0E0FFD0F8
:10034A00E0FED0E0FDD0E0FC12012F8014F404128C
:10035A0004E5D0E0FFD0E0FED0E0FDD0E0FC1200E2
:10036A0026D0E0F8E6FAEDD2E7CD33EC332482FB6F
:10037A00E4C3CF33CFCE33CECD33CD33DBF37B07DC
:10038A0075F00A846004F6081B0AE5F0F6088FF097
:10039A00740AA4FFACF08EF0740AA42CFEACF050E0
:1003AA00010C8DF0740AA42CFDE435F0F608DBDEAE
:0303BA00740722A3
:1003BD00020276E86480F8E933E83360110460F0F6
:1003CD00ED33EC337009E8FCE9FDEAFEEBFF2204A6
:1003DD0060DED3EB9FEA9EE99DE8C2E78CF0C2F7A1
:1003ED0095F0400CE8CCF8E9CDF9EACEFAEBCFFB6D
:1003FD0012024185D0F05804700320D5B3E8047083
:10040D00075002B2D502028092D5EC0460F7E4CC1D
:10041D00C0E0C398F8603B94186008400DD0E0FB35
:10042D00020258E4FBFAC9FC8028E830E406E4C96E
:10043D00FBE4CAFCE830E305E4C9CACBFCE8540789
:10044D006010F8C3E913F9EA13FAEB13FBEC13FC94
:10045D00D8F130F52FC3E49CFCEF9BFFEE9AFEED37
:10046D0099FDD0E0FBEF4E4D4C701222DB030202E2
:10047D007DEC2CFCEF33FFEE33FEED33FDED30E77D
:10048D00EB020258EF2BFFEE3AFEED39FDD0E0FB0B
:10049D0050130BBB0003020280ED13FDEE13FEEFB4
:0804AD0013FFEC13FC020258DE
:1004B5003F8000004120000042C80000447A00004F
:1004C500461C400047C35000497424004B189680D1
:1004D5004CBEBC205A0E1BCA6753C21C749DC5AEC8
:1004E500FB60065407601C2323120513EB54386088
:1004F500091204FF12050E120026ECF8EDF9EEFACA
:10050500EFCB22EB12050E80F1543803241C900426
:10051500B5FE93FC0EEE93FD0EEE930ECE93FF22E9
:03000000020F6A82
:0C0F6A00787FE4F6D8FD75819C020FB181
:10052500BB010689828A83E0225002E722BBFE02D4
:09053500E32289828A83E4932207
:10053E00BB010CE58229F582E5833AF583E0225072
:10054E0006E92582F8E622BBFE06E92582F8E222BC
:0D055E00E58229F582E5833AF583E49322D6
:10056B00BB010689828A83F0225002F722BBFE016F
:02057B00F32269
:10057D00BC000BBE0029EF8DF084FFADF022E4CC62
:10058D00F875F008EF2FFFEE33FEEC33FCEE9DEC2B
:10059D00984005FCEE9DFE0FD5F0E9E4CEFD22ED71
:1005AD00F8F5F0EE8420D21CFEADF075F008EF2FBB
:1005BD00FFED33FD4007985006D5F0F222C398FDAC
:0505CD000FD5F0EA2249
:0E05D200C3E49FFFE49EFEE49DFDE49CFC223A
:1005E000FAE6FB0808E6F925F0F618E6CA3AF6221C
:1005F000D083D082F8E4937012740193700DA3A39A
:1006000093F8740193F5828883E4737402936860AD
:06061000EFA3A3A380DFAD
:1013E800EFB40A07740D1213F3740A309811A89910
:1013F800B8130CC2983098FDA899C298B811F63065
:0714080099FDC299F599223C
:100F7600020FF6E493A3F8E493A34003F68001F28C
:100F860008DFF48029E493A3F85407240CC8C3337C
:100F9600C4540F4420C8834004F456800146F6DF4B
:100FA600E4800B0102040810204080901248E47E81
:100FB600019360BCA3FF543F30E509541FFEE49340
:100FC600A360010ECF54C025E060A840B8E493A307
:100FD600FAE493A3F8E493A3C8C582C8CAC583CA32
:100FE600F0A3C8C582C8CAC583CADFE9DEE780BEEA
:01128200006B
:00000001FF
