BL51 BANKED LINKER/LOCATER V6.22.2.0                                                    01/30/2024  13:53:54  PAGE 1


BL51 BANKED LINKER/LOCATER V6.22.2.0, INVOKED BY:
D:\KEIL 5\C51\BIN\BL51.EXE .\Objects\main.obj, .\Objects\Init.obj, .\Objects\Key.obj, .\Objects\Seg.obj, .\Objects\LED.o
>> bj, .\Objects\iic.obj, .\Objects\onewire.obj TO .\Objects\project PRINT (.\Listings\project.m51) RAMSIZE (256)


MEMORY MODEL: SMALL WITH FLOATING POINT ARITHMETIC


INPUT MODULES INCLUDED:
  .\Objects\main.obj (MAIN)
  .\Objects\Init.obj (INIT)
  .\Objects\Key.obj (KEY)
  .\Objects\Seg.obj (SEG)
  .\Objects\LED.obj (LED)
  .\Objects\iic.obj (IIC)
  .\Objects\onewire.obj (ONEWIRE)
  D:\KEIL 5\C51\LIB\C51FPS.LIB (?C?FPADD)
  D:\KEIL 5\C51\LIB\C51FPS.LIB (?C?FPMUL)
  D:\KEIL 5\C51\LIB\C51FPS.LIB (?C?FPDIV)
  D:\KEIL 5\C51\LIB\C51FPS.LIB (?C?FPCMP)
  D:\KEIL 5\C51\LIB\C51FPS.LIB (?C?FCAST)
  D:\KEIL 5\C51\LIB\C51FPS.LIB (?C?CASTF)
  D:\KEIL 5\C51\LIB\C51FPS.LIB (?C?FPGETOPN)
  D:\KEIL 5\C51\LIB\C51S.LIB (?C_STARTUP)
  D:\KEIL 5\C51\LIB\C51S.LIB (?C?IMUL)
  D:\KEIL 5\C51\LIB\C51S.LIB (?C?UIDIV)
  D:\KEIL 5\C51\LIB\C51S.LIB (?C?LNEG)
  D:\KEIL 5\C51\LIB\C51S.LIB (?C_INIT)


LINK MAP OF MODULE:  .\Objects\project (MAIN)


            TYPE    BASE      LENGTH    RELOCATION   SEGMENT NAME
            -----------------------------------------------------

            * * * * * * *   D A T A   M E M O R Y   * * * * * * *
            REG     0000H     0008H     ABSOLUTE     "REG BANK 0"
            DATA    0008H     0006H     UNIT         ?DT?LED
            DATA    000EH     0001H     UNIT         _DATA_GROUP_
                    000FH     0011H                  *** GAP ***
            BIT     0020H.0   0000H.2   UNIT         ?BI?MAIN
            BIT     0020H.2   0000H.2   UNIT         _BIT_GROUP_
            BIT     0020H.4   0000H.1   UNIT         ?BI?IIC_SENDACK?IIC
                    0020H.5   0000H.3                *** GAP ***
            DATA    0021H     002AH     UNIT         ?DT?MAIN
            IDATA   004BH     0001H     UNIT         ?STACK

            * * * * * * *   C O D E   M E M O R Y   * * * * * * *
            CODE    0000H     0003H     ABSOLUTE     
                    0003H     0008H                  *** GAP ***
            CODE    000BH     0003H     ABSOLUTE     
            CODE    000EH     044BH     UNIT         ?C?LIB_CODE
            CODE    0459H     00F0H     UNIT         ?PR?SEG_PROC?MAIN
            CODE    0549H     00EBH     UNIT         ?PR?LED_PROC?MAIN
            CODE    0634H     008CH     UNIT         ?C_C51STARTUP
            CODE    06C0H     008BH     UNIT         ?PR?TIMER0_SERVE?MAIN
            CODE    074BH     0073H     UNIT         ?PR?KEY_READ?KEY
BL51 BANKED LINKER/LOCATER V6.22.2.0                                                  01/30/2024  13:53:54  PAGE 2


            CODE    07BEH     0045H     UNIT         ?PR?KEY_PROC?MAIN
            CODE    0803H     0040H     UNIT         ?PR?_SEG_DISP?SEG
            CODE    0843H     003DH     UNIT         ?C_INITSEG
            CODE    0880H     003AH     UNIT         ?PR?_LED_DISP?LED
            CODE    08BAH     0035H     UNIT         ?PR?_IIC_SENDBYTE?IIC
            CODE    08EFH     0034H     UNIT         ?PR?TEM_READ?ONEWIRE
            CODE    0923H     002AH     UNIT         ?PR?_AD_READ?IIC
            CODE    094DH     0027H     UNIT         ?PR?_WRITE_DS18B20?ONEWIRE
            CODE    0974H     0027H     UNIT         ?PR?INIT_DS18B20?ONEWIRE
            CODE    099BH     0026H     UNIT         ?PR?IIC_RECBYTE?IIC
            CODE    09C1H     0025H     UNIT         ?PR?_BEEP?LED
            CODE    09E6H     0025H     UNIT         ?PR?_RELAY?LED
            CODE    0A0BH     0023H     UNIT         ?PR?READ_DS18B20?ONEWIRE
            CODE    0A2EH     001DH     UNIT         ?PR?SYSTEM_INIT?INIT
            CODE    0A4BH     001BH     UNIT         ?PR?MAIN?MAIN
            CODE    0A66H     0019H     UNIT         ?PR?IIC_WAITACK?IIC
            CODE    0A7FH     0018H     UNIT         ?PR?_DA_WRITE?IIC
            CODE    0A97H     0017H     UNIT         ?PR?IIC_SENDACK?IIC
            CODE    0AAEH     0016H     UNIT         ?CO?SEG
            CODE    0AC4H     0016H     UNIT         ?PR?_DELAY_ONEWIRE?ONEWIRE
            CODE    0ADAH     0015H     UNIT         ?PR?TIMER0INIT?MAIN
            CODE    0AEFH     0014H     UNIT         ?PR?_DELAY_MS?MAIN
            CODE    0B03H     000FH     UNIT         ?PR?IIC_START?IIC
            CODE    0B12H     000CH     UNIT         ?PR?_IIC_DELAY?IIC
            CODE    0B1EH     000CH     UNIT         ?PR?IIC_STOP?IIC



OVERLAY MAP OF MODULE:   .\Objects\project (MAIN)


SEGMENT                               BIT_GROUP          DATA_GROUP 
  +--> CALLED SEGMENT              START    LENGTH     START    LENGTH
----------------------------------------------------------------------
?PR?TIMER0_SERVE?MAIN              -----    -----      -----    -----
  +--> ?PR?_SEG_DISP?SEG
  +--> ?PR?_LED_DISP?LED

?PR?_SEG_DISP?SEG                  0020H.2  0000H.1    -----    -----
  +--> ?CO?SEG

?PR?_LED_DISP?LED                  0020H.2  0000H.1    -----    -----

*** NEW ROOT ***************************************************

?C_C51STARTUP                      -----    -----      -----    -----
  +--> ?PR?MAIN?MAIN
  +--> ?C_INITSEG

?PR?MAIN?MAIN                      -----    -----      -----    -----
  +--> ?PR?TIMER0INIT?MAIN
  +--> ?PR?SYSTEM_INIT?INIT
  +--> ?PR?TEM_READ?ONEWIRE
  +--> ?PR?_DELAY_MS?MAIN
  +--> ?PR?KEY_PROC?MAIN
  +--> ?PR?SEG_PROC?MAIN
  +--> ?PR?LED_PROC?MAIN
BL51 BANKED LINKER/LOCATER V6.22.2.0                                                  01/30/2024  13:53:54  PAGE 3



?PR?TEM_READ?ONEWIRE               -----    -----      -----    -----
  +--> ?PR?INIT_DS18B20?ONEWIRE
  +--> ?PR?_WRITE_DS18B20?ONEWIRE
  +--> ?PR?READ_DS18B20?ONEWIRE

?PR?INIT_DS18B20?ONEWIRE           0020H.3  0000H.1    -----    -----
  +--> ?PR?_DELAY_ONEWIRE?ONEWIRE

?PR?_WRITE_DS18B20?ONEWIRE         -----    -----      -----    -----
  +--> ?PR?_DELAY_ONEWIRE?ONEWIRE

?PR?READ_DS18B20?ONEWIRE           -----    -----      -----    -----
  +--> ?PR?_DELAY_ONEWIRE?ONEWIRE

?PR?KEY_PROC?MAIN                  -----    -----      -----    -----
  +--> ?PR?KEY_READ?KEY

?PR?SEG_PROC?MAIN                  -----    -----      -----    -----
  +--> ?PR?TEM_READ?ONEWIRE

?PR?LED_PROC?MAIN                  -----    -----      000EH    0001H
  +--> ?PR?_DA_WRITE?IIC

?PR?_DA_WRITE?IIC                  -----    -----      -----    -----
  +--> ?PR?IIC_WAITACK?IIC
  +--> ?PR?_IIC_SENDBYTE?IIC
  +--> ?PR?IIC_STOP?IIC

?PR?IIC_WAITACK?IIC                0020H.3  0000H.1    -----    -----
  +--> ?PR?IIC_START?IIC
  +--> ?PR?_IIC_SENDBYTE?IIC
  +--> ?PR?_IIC_DELAY?IIC

?PR?IIC_START?IIC                  -----    -----      -----    -----
  +--> ?PR?_IIC_DELAY?IIC

?PR?_IIC_SENDBYTE?IIC              -----    -----      -----    -----
  +--> ?PR?_IIC_DELAY?IIC

?PR?IIC_STOP?IIC                   -----    -----      -----    -----
  +--> ?PR?_IIC_DELAY?IIC



SYMBOL TABLE OF MODULE:  .\Objects\project (MAIN)

  VALUE           TYPE          NAME
  ----------------------------------

  -------         MODULE        MAIN
  C:0000H         SYMBOL        _ICE_DUMMY_
  D:0080H         PUBLIC        P0
  D:0090H         PUBLIC        P1
  D:00A0H         PUBLIC        P2
  D:00B0H         PUBLIC        P3
  D:00C0H         PUBLIC        P4
BL51 BANKED LINKER/LOCATER V6.22.2.0                                                  01/30/2024  13:53:54  PAGE 4


  B:0020H.0       PUBLIC        Seg_Slow_Flag
  D:00C8H         PUBLIC        P5
  B:00A8H.7       PUBLIC        EA
  D:00E8H         PUBLIC        P6
  D:00F8H         PUBLIC        P7
  D:0023H         PUBLIC        Seg_Mode
  D:0024H         PUBLIC        Seg_Point
  D:00A8H         PUBLIC        IE
  B:0020H.1       PUBLIC        Key_Slow_Flag
  C:0459H         PUBLIC        Seg_Proc
  D:00B8H         PUBLIC        IP
  C:06C0H         PUBLIC        Timer0_Serve
  D:002CH         PUBLIC        Seg_Buf
  C:07BEH         PUBLIC        Key_Proc
  D:0034H         PUBLIC        Slow_Down
  D:00D8H         PUBLIC        CCON
  D:0036H         PUBLIC        Key_Down
  C:0A4BH         PUBLIC        main
  D:0037H         PUBLIC        DAC_Mode
  D:0038H         PUBLIC        Key_UP
  C:0AEFH         PUBLIC        _Delay_ms
  D:0098H         PUBLIC        SCON
  D:0089H         PUBLIC        TMOD
  D:0088H         PUBLIC        TCON
  D:0039H         PUBLIC        dat
  D:003DH         PUBLIC        usLED
  D:008EH         PUBLIC        AUXR
  B:00A8H.1       PUBLIC        ET0
  B:0088H.5       PUBLIC        TF0
  C:0ADAH         PUBLIC        Timer0Init
  C:0549H         PUBLIC        LED_Proc
  D:008CH         PUBLIC        TH0
  D:008AH         PUBLIC        TL0
  D:0045H         PUBLIC        T
  B:0088H.4       PUBLIC        TR0
  D:0049H         PUBLIC        T_Num_Temp
  D:004AH         PUBLIC        T_Set_Num
  D:00D0H         PUBLIC        PSW
  -------         PROC          KEY_PROC
  -------         DO            
  D:0021H         SYMBOL        Key_Val
  D:0022H         SYMBOL        Key_Old
  -------         ENDDO         
  C:07BEH         LINE#         27
  C:07BEH         LINE#         28
  C:07BEH         LINE#         30
  C:07C1H         LINE#         31
  C:07C3H         LINE#         33
  C:07C8H         LINE#         34
  C:07D0H         LINE#         35
  C:07D3H         LINE#         37
  C:07DAH         LINE#         38
  C:07DAH         LINE#         40
  C:07E6H         LINE#         42
  C:07E9H         LINE#         43
  C:07E9H         LINE#         44
  C:07EFH         LINE#         45
BL51 BANKED LINKER/LOCATER V6.22.2.0                                                  01/30/2024  13:53:54  PAGE 5


  C:07EFH         LINE#         46
  C:07F7H         LINE#         47
  C:07FAH         LINE#         48
  C:0800H         LINE#         49
  C:0802H         LINE#         50
  C:0802H         LINE#         51
  -------         ENDPROC       KEY_PROC
  -------         PROC          SEG_PROC
  C:0459H         LINE#         54
  C:0459H         LINE#         55
  C:0459H         LINE#         56
  C:045FH         LINE#         57
  C:0461H         LINE#         59
  C:046CH         LINE#         61
  C:047BH         LINE#         62
  C:047BH         LINE#         64
  C:047BH         LINE#         65
  C:047EH         LINE#         66
  C:0495H         LINE#         67
  C:049DH         LINE#         68
  C:04A0H         LINE#         69
  C:04BEH         LINE#         70
  C:04CDH         LINE#         71
  C:04CFH         LINE#         73
  C:04CFH         LINE#         74
  C:04D2H         LINE#         75
  C:04D5H         LINE#         76
  C:04D8H         LINE#         77
  C:04DBH         LINE#         78
  C:04E3H         LINE#         79
  C:04ECH         LINE#         80
  C:04EDH         LINE#         82
  C:04EDH         LINE#         83
  C:04F0H         LINE#         84
  C:04F3H         LINE#         85
  C:04F6H         LINE#         86
  C:0509H         LINE#         87
  C:050CH         LINE#         88
  C:052AH         LINE#         89
  C:0548H         LINE#         90
  C:0548H         LINE#         91
  C:0548H         LINE#         92
  -------         ENDPROC       SEG_PROC
  -------         PROC          LED_PROC
  -------         DO            
  D:000EH         SYMBOL        i
  -------         ENDDO         
  C:0549H         LINE#         95
  C:0549H         LINE#         96
  C:0549H         LINE#         97
  C:054CH         LINE#         98
  C:0563H         LINE#         100
  C:0567H         LINE#         101
  C:0567H         LINE#         102
  C:057AH         LINE#         103
  C:0584H         LINE#         105
  C:058BH         LINE#         106
BL51 BANKED LINKER/LOCATER V6.22.2.0                                                  01/30/2024  13:53:54  PAGE 6


  C:058DH         LINE#         109
  C:058DH         LINE#         110
  C:05A3H         LINE#         111
  C:05B0H         LINE#         112
  C:05C4H         LINE#         113
  C:05D1H         LINE#         115
  C:05F5H         LINE#         116
  C:05F5H         LINE#         119
  C:05F9H         LINE#         120
  C:05FEH         LINE#         122
  C:0601H         LINE#         124
  C:0612H         LINE#         125
  C:0633H         LINE#         126
  -------         ENDPROC       LED_PROC
  -------         PROC          TIMER0INIT
  C:0ADAH         LINE#         129
  C:0ADAH         LINE#         130
  C:0ADAH         LINE#         131
  C:0ADDH         LINE#         132
  C:0AE0H         LINE#         133
  C:0AE3H         LINE#         134
  C:0AE6H         LINE#         135
  C:0AE8H         LINE#         136
  C:0AEAH         LINE#         137
  C:0AECH         LINE#         138
  C:0AEEH         LINE#         139
  -------         ENDPROC       TIMER0INIT
  -------         PROC          TIMER0_SERVE
  C:06C0H         LINE#         142
  C:06DDH         LINE#         144
  C:06F6H         LINE#         145
  C:0707H         LINE#         146
  C:0720H         LINE#         147
  C:0730H         LINE#         148
  -------         ENDPROC       TIMER0_SERVE
  -------         PROC          _DELAY_MS
  D:0006H         SYMBOL        xms
  -------         DO            
  D:0005H         SYMBOL        i
  D:0004H         SYMBOL        j
  -------         ENDDO         
  C:0AEFH         LINE#         151
  C:0AEFH         LINE#         152
  C:0AEFH         LINE#         154
  C:0AF3H         LINE#         155
  C:0AF3H         LINE#         156
  C:0AF5H         LINE#         157
  C:0AF7H         LINE#         159
  C:0AF7H         LINE#         160
  C:0AF9H         LINE#         161
  C:0AFBH         LINE#         162
  C:0B00H         LINE#         163
  C:0B02H         LINE#         164
  -------         ENDPROC       _DELAY_MS
  -------         PROC          MAIN
  C:0A4BH         LINE#         167
  C:0A4BH         LINE#         168
BL51 BANKED LINKER/LOCATER V6.22.2.0                                                  01/30/2024  13:53:54  PAGE 7


  C:0A4BH         LINE#         169
  C:0A4EH         LINE#         170
  C:0A51H         LINE#         171
  C:0A54H         LINE#         172
  C:0A5BH         LINE#         173
  C:0A5BH         LINE#         174
  C:0A5BH         LINE#         175
  C:0A5EH         LINE#         176
  C:0A61H         LINE#         177
  C:0A64H         LINE#         178
  -------         ENDPROC       MAIN
  -------         ENDMOD        MAIN

  -------         MODULE        INIT
  C:0000H         SYMBOL        _ICE_DUMMY_
  D:0080H         PUBLIC        P0
  C:0A2EH         PUBLIC        System_Init
  D:0090H         PUBLIC        P1
  D:00A0H         PUBLIC        P2
  D:00B0H         PUBLIC        P3
  D:00C0H         PUBLIC        P4
  D:00C8H         PUBLIC        P5
  D:00E8H         PUBLIC        P6
  D:00F8H         PUBLIC        P7
  D:00A8H         PUBLIC        IE
  D:00B8H         PUBLIC        IP
  D:00D8H         PUBLIC        CCON
  D:0098H         PUBLIC        SCON
  D:0088H         PUBLIC        TCON
  D:00D0H         PUBLIC        PSW
  -------         PROC          SYSTEM_INIT
  C:0A2EH         LINE#         7
  C:0A2EH         LINE#         8
  C:0A2EH         LINE#         9
  C:0A31H         LINE#         10
  C:0A39H         LINE#         11
  C:0A3CH         LINE#         13
  C:0A3FH         LINE#         14
  C:0A47H         LINE#         15
  C:0A4AH         LINE#         16
  -------         ENDPROC       SYSTEM_INIT
  -------         ENDMOD        INIT

  -------         MODULE        KEY
  C:0000H         SYMBOL        _ICE_DUMMY_
  D:0080H         PUBLIC        P0
  D:0090H         PUBLIC        P1
  D:00A0H         PUBLIC        P2
  D:00B0H         PUBLIC        P3
  D:00C0H         PUBLIC        P4
  D:00C8H         PUBLIC        P5
  D:00E8H         PUBLIC        P6
  D:00F8H         PUBLIC        P7
  C:074BH         PUBLIC        Key_Read
  D:00A8H         PUBLIC        IE
  D:00B8H         PUBLIC        IP
  D:00D8H         PUBLIC        CCON
BL51 BANKED LINKER/LOCATER V6.22.2.0                                                  01/30/2024  13:53:54  PAGE 8


  B:00B0H.0       PUBLIC        P30
  D:0098H         PUBLIC        SCON
  B:00B0H.1       PUBLIC        P31
  D:0088H         PUBLIC        TCON
  B:00B0H.2       PUBLIC        P32
  B:00C0H.2       PUBLIC        P42
  B:00B0H.3       PUBLIC        P33
  B:00B0H.4       PUBLIC        P34
  B:00C0H.4       PUBLIC        P44
  B:00B0H.5       PUBLIC        P35
  D:00D0H         PUBLIC        PSW
  -------         PROC          KEY_READ
  -------         DO            
  D:0007H         SYMBOL        temp
  -------         ENDDO         
  C:074BH         LINE#         7
  C:074BH         LINE#         8
  C:074BH         LINE#         9
  C:074DH         LINE#         10
  C:0755H         LINE#         11
  C:075AH         LINE#         12
  C:075FH         LINE#         13
  C:0764H         LINE#         14
  C:0769H         LINE#         15
  C:0771H         LINE#         16
  C:0776H         LINE#         17
  C:077BH         LINE#         18
  C:0780H         LINE#         19
  C:0785H         LINE#         20
  C:078DH         LINE#         21
  C:0792H         LINE#         22
  C:0797H         LINE#         23
  C:079CH         LINE#         24
  C:07A1H         LINE#         25
  C:07A9H         LINE#         26
  C:07AEH         LINE#         27
  C:07B3H         LINE#         28
  C:07B8H         LINE#         29
  C:07BDH         LINE#         30
  C:07BDH         LINE#         31
  -------         ENDPROC       KEY_READ
  -------         ENDMOD        KEY

  -------         MODULE        SEG
  C:0000H         SYMBOL        _ICE_DUMMY_
  D:0080H         PUBLIC        P0
  D:0090H         PUBLIC        P1
  D:00A0H         PUBLIC        P2
  D:00B0H         PUBLIC        P3
  D:00C0H         PUBLIC        P4
  D:00C8H         PUBLIC        P5
  D:00E8H         PUBLIC        P6
  D:00F8H         PUBLIC        P7
  C:0AB6H         PUBLIC        Seg_Dula
  D:00A8H         PUBLIC        IE
  C:0803H         PUBLIC        _Seg_Disp
  D:00B8H         PUBLIC        IP
BL51 BANKED LINKER/LOCATER V6.22.2.0                                                  01/30/2024  13:53:54  PAGE 9


  C:0AAEH         PUBLIC        Seg_Wula
  D:00D8H         PUBLIC        CCON
  D:0098H         PUBLIC        SCON
  D:0088H         PUBLIC        TCON
  D:00D0H         PUBLIC        PSW
  -------         PROC          _SEG_DISP
  D:0007H         SYMBOL        Wula
  D:0004H         SYMBOL        Dula
  B:0020H.2       SYMBOL        Point
  C:0803H         LINE#         10
  C:0803H         LINE#         11
  C:0803H         LINE#         12
  C:0806H         LINE#         13
  C:080EH         LINE#         14
  C:0811H         LINE#         16
  C:0818H         LINE#         17
  C:0820H         LINE#         18
  C:0823H         LINE#         20
  C:0831H         LINE#         21
  C:0834H         LINE#         22
  C:0837H         LINE#         23
  C:083FH         LINE#         24
  C:0842H         LINE#         25
  -------         ENDPROC       _SEG_DISP
  -------         ENDMOD        SEG

  -------         MODULE        LED
  C:0000H         SYMBOL        _ICE_DUMMY_
  D:0080H         PUBLIC        P0
  C:09E6H         PUBLIC        _Relay
  D:0090H         PUBLIC        P1
  D:00A0H         PUBLIC        P2
  D:00B0H         PUBLIC        P3
  D:00C0H         PUBLIC        P4
  D:00C8H         PUBLIC        P5
  D:00E8H         PUBLIC        P6
  D:00F8H         PUBLIC        P7
  D:00A8H         PUBLIC        IE
  D:00B8H         PUBLIC        IP
  D:00D8H         PUBLIC        CCON
  D:0098H         PUBLIC        SCON
  D:0088H         PUBLIC        TCON
  C:0880H         PUBLIC        _LED_Disp
  D:00D0H         PUBLIC        PSW
  C:09C1H         PUBLIC        _Beep
  -------         PROC          _LED_DISP
  D:0007H         SYMBOL        addr
  B:0020H.2       SYMBOL        enable
  -------         DO            
  D:0008H         SYMBOL        temp
  D:0009H         SYMBOL        temp_old
  -------         ENDDO         
  C:0880H         LINE#         7
  C:0880H         LINE#         8
  C:0880H         LINE#         12
  C:0883H         LINE#         13
  C:0892H         LINE#         15
BL51 BANKED LINKER/LOCATER V6.22.2.0                                                  01/30/2024  13:53:54  PAGE 10


  C:08A0H         LINE#         17
  C:08A6H         LINE#         18
  C:08A6H         LINE#         19
  C:08ABH         LINE#         20
  C:08B3H         LINE#         21
  C:08B6H         LINE#         22
  C:08B9H         LINE#         23
  C:08B9H         LINE#         24
  -------         ENDPROC       _LED_DISP
  -------         PROC          _BEEP
  D:0007H         SYMBOL        flag
  -------         DO            
  D:000AH         SYMBOL        temp
  D:000BH         SYMBOL        temp_old
  -------         ENDDO         
  C:09C1H         LINE#         28
  C:09C1H         LINE#         29
  C:09C1H         LINE#         33
  C:09C4H         LINE#         34
  C:09C9H         LINE#         36
  C:09CCH         LINE#         38
  C:09D2H         LINE#         39
  C:09D2H         LINE#         40
  C:09D7H         LINE#         41
  C:09DFH         LINE#         42
  C:09E2H         LINE#         43
  C:09E5H         LINE#         44
  C:09E5H         LINE#         45
  -------         ENDPROC       _BEEP
  -------         PROC          _RELAY
  D:0007H         SYMBOL        flag
  -------         DO            
  D:000CH         SYMBOL        temp
  D:000DH         SYMBOL        temp_old
  -------         ENDDO         
  C:09E6H         LINE#         49
  C:09E6H         LINE#         50
  C:09E6H         LINE#         54
  C:09E9H         LINE#         55
  C:09EEH         LINE#         57
  C:09F1H         LINE#         59
  C:09F7H         LINE#         60
  C:09F7H         LINE#         61
  C:09FCH         LINE#         62
  C:0A04H         LINE#         63
  C:0A07H         LINE#         64
  C:0A0AH         LINE#         65
  C:0A0AH         LINE#         66
  -------         ENDPROC       _RELAY
  -------         ENDMOD        LED

  -------         MODULE        IIC
  C:0000H         SYMBOL        _ICE_DUMMY_
  D:0090H         PUBLIC        P1
  D:00A0H         PUBLIC        P2
  D:00B0H         PUBLIC        P3
  D:00A8H         PUBLIC        IE
BL51 BANKED LINKER/LOCATER V6.22.2.0                                                  01/30/2024  13:53:54  PAGE 11


  D:00B8H         PUBLIC        IP
  C:0B16H         PUBLIC        _IIC_Delay
  D:0098H         PUBLIC        SCON
  D:0088H         PUBLIC        TCON
  C:0B03H         PUBLIC        IIC_Start
  C:0A97H         PUBLIC        IIC_SendAck
  B:00A0H.1       PUBLIC        SDA
  C:08BAH         PUBLIC        _IIC_SendByte
  C:0A6EH         PUBLIC        IIC_WaitAck
  C:0B1EH         PUBLIC        IIC_Stop
  B:00A0H.0       PUBLIC        SCL
  C:0923H         PUBLIC        _AD_Read
  D:00C8H         PUBLIC        T2CON
  C:099BH         PUBLIC        IIC_RecByte
  C:0A7FH         PUBLIC        _DA_Write
  D:00D0H         PUBLIC        PSW
  C:0B12H         SYMBOL        L?0024
  -------         PROC          L?0023
  -------         ENDPROC       L?0023
  C:0B12H         SYMBOL        L?0024
  -------         PROC          _IIC_DELAY
  D:0007H         SYMBOL        i
  C:0B16H         LINE#         10
  C:0B16H         LINE#         11
  C:0B16H         LINE#         12
  C:0B17H         LINE#         13
  C:0B1DH         LINE#         14
  -------         ENDPROC       _IIC_DELAY
  -------         PROC          IIC_START
  C:0B03H         LINE#         17
  C:0B03H         LINE#         18
  C:0B03H         LINE#         19
  C:0B05H         LINE#         20
  C:0B05H         LINE#         21
  C:0B08H         LINE#         22
  C:0B0AH         LINE#         23
  C:0B0FH         LINE#         24
  C:0B11H         LINE#         25
  -------         ENDPROC       IIC_START
  -------         PROC          IIC_STOP
  C:0B1EH         LINE#         28
  C:0B1EH         LINE#         29
  C:0B1EH         LINE#         30
  C:0B20H         LINE#         31
  C:0B20H         LINE#         32
  C:0B23H         LINE#         33
  C:0B25H         LINE#         34
  -------         ENDPROC       IIC_STOP
  -------         PROC          IIC_SENDACK
  B:0020H.4       SYMBOL        ackbit
  C:0A97H         LINE#         38
  C:0A97H         LINE#         39
  C:0A97H         LINE#         40
  C:0A99H         LINE#         41
  C:0A9DH         LINE#         42
  C:0AA2H         LINE#         43
  C:0AA2H         LINE#         44
BL51 BANKED LINKER/LOCATER V6.22.2.0                                                  01/30/2024  13:53:54  PAGE 12


  C:0AA5H         LINE#         45
  C:0AA7H         LINE#         46
  C:0AA9H         LINE#         47
  -------         ENDPROC       IIC_SENDACK
  -------         PROC          L?0022
  -------         ENDPROC       L?0022
  -------         PROC          IIC_WAITACK
  -------         DO            
  B:0020H.3       SYMBOL        ackbit
  -------         ENDDO         
  C:0A6EH         LINE#         51
  C:0A6EH         LINE#         52
  C:0A6EH         LINE#         55
  C:0A6EH         LINE#         56
  C:0A71H         LINE#         57
  C:0A75H         LINE#         58
  C:0A77H         LINE#         59
  C:0A7CH         LINE#         60
  C:0A7EH         LINE#         61
  -------         ENDPROC       IIC_WAITACK
  -------         PROC          _IIC_SENDBYTE
  D:0005H         SYMBOL        byt
  -------         DO            
  D:0004H         SYMBOL        i
  -------         ENDDO         
  C:08BAH         LINE#         64
  C:08BCH         LINE#         65
  C:08BCH         LINE#         68
  C:08C8H         LINE#         69
  C:08C8H         LINE#         70
  C:08CAH         LINE#         71
  C:08CFH         LINE#         72
  C:08D7H         LINE#         73
  C:08D9H         LINE#         74
  C:08DEH         LINE#         75
  C:08E0H         LINE#         76
  C:08E4H         LINE#         77
  C:08E9H         LINE#         78
  C:08ECH         LINE#         79
  C:08EEH         LINE#         80
  -------         ENDPROC       _IIC_SENDBYTE
  -------         PROC          IIC_RECBYTE
  -------         DO            
  D:0004H         SYMBOL        i
  D:0005H         SYMBOL        da
  -------         ENDDO         
  C:099BH         LINE#         83
  C:099BH         LINE#         84
  C:099BH         LINE#         86
  C:09A7H         LINE#         87
  C:09A7H         LINE#         88
  C:09A7H         LINE#         89
  C:09AAH         LINE#         90
  C:09AEH         LINE#         91
  C:09B4H         LINE#         92
  C:09B6H         LINE#         93
  C:09BBH         LINE#         94
BL51 BANKED LINKER/LOCATER V6.22.2.0                                                  01/30/2024  13:53:54  PAGE 13


  C:09BEH         LINE#         95
  C:09C0H         LINE#         96
  -------         ENDPROC       IIC_RECBYTE
  -------         PROC          _AD_READ
  D:0003H         SYMBOL        addr
  -------         DO            
  D:0005H         SYMBOL        temp
  -------         ENDDO         
  C:0923H         LINE#         101
  C:0925H         LINE#         102
  C:0925H         LINE#         103
  C:0927H         LINE#         104
  C:0927H         LINE#         105
  C:0927H         LINE#         106
  C:092AH         LINE#         107
  C:092FH         LINE#         108
  C:0932H         LINE#         109
  C:0935H         LINE#         110
  C:093AH         LINE#         111
  C:093DH         LINE#         112
  C:0942H         LINE#         113
  C:0947H         LINE#         114
  C:094AH         LINE#         115
  C:094CH         LINE#         116
  -------         ENDPROC       _AD_READ
  -------         PROC          _DA_WRITE
  D:0003H         SYMBOL        dat
  C:0A7FH         LINE#         119
  C:0A81H         LINE#         120
  C:0A81H         LINE#         121
  C:0A81H         LINE#         122
  C:0A81H         LINE#         123
  C:0A84H         LINE#         124
  C:0A89H         LINE#         125
  C:0A8CH         LINE#         126
  C:0A91H         LINE#         127
  C:0A94H         LINE#         128
  -------         ENDPROC       _DA_WRITE
  -------         ENDMOD        IIC

  -------         MODULE        ONEWIRE
  C:0000H         SYMBOL        _ICE_DUMMY_
  D:0090H         PUBLIC        P1
  D:00B0H         PUBLIC        P3
  C:0A0BH         PUBLIC        Read_DS18B20
  C:08EFH         PUBLIC        Tem_Read
  D:00A8H         PUBLIC        IE
  C:0AC8H         PUBLIC        _Delay_OneWire
  C:094DH         PUBLIC        _Write_DS18B20
  B:0090H.4       PUBLIC        DQ
  D:00B8H         PUBLIC        IP
  C:0974H         PUBLIC        init_ds18b20
  D:0098H         PUBLIC        SCON
  D:0088H         PUBLIC        TCON
  D:00C8H         PUBLIC        T2CON
  D:00D0H         PUBLIC        PSW
  C:0AC4H         SYMBOL        L?0017
BL51 BANKED LINKER/LOCATER V6.22.2.0                                                  01/30/2024  13:53:54  PAGE 14


  -------         PROC          L?0016
  -------         ENDPROC       L?0016
  C:0AC4H         SYMBOL        L?0017
  -------         PROC          _DELAY_ONEWIRE
  D:0006H         SYMBOL        t
  C:0AC8H         LINE#         7
  C:0AC8H         LINE#         8
  C:0AC8H         LINE#         9
  C:0ACFH         LINE#         10
  C:0AD9H         LINE#         11
  -------         ENDPROC       _DELAY_ONEWIRE
  -------         PROC          _WRITE_DS18B20
  D:0003H         SYMBOL        dat
  -------         DO            
  D:0002H         SYMBOL        i
  -------         ENDDO         
  C:094DH         LINE#         14
  C:094FH         LINE#         15
  C:094FH         LINE#         17
  C:095BH         LINE#         18
  C:095BH         LINE#         19
  C:095DH         LINE#         20
  C:0961H         LINE#         21
  C:0964H         LINE#         22
  C:0966H         LINE#         23
  C:096AH         LINE#         24
  C:096DH         LINE#         25
  -------         ENDPROC       _WRITE_DS18B20
  -------         PROC          READ_DS18B20
  -------         DO            
  D:0002H         SYMBOL        i
  D:0003H         SYMBOL        dat
  -------         ENDDO         
  C:0A0BH         LINE#         29
  C:0A0BH         LINE#         30
  C:0A0BH         LINE#         34
  C:0A17H         LINE#         35
  C:0A17H         LINE#         36
  C:0A19H         LINE#         37
  C:0A1DH         LINE#         38
  C:0A1FH         LINE#         39
  C:0A22H         LINE#         40
  C:0A22H         LINE#         41
  C:0A25H         LINE#         42
  C:0A25H         LINE#         43
  C:0A28H         LINE#         44
  C:0A2BH         LINE#         45
  C:0A2DH         LINE#         46
  -------         ENDPROC       READ_DS18B20
  -------         PROC          INIT_DS18B20
  -------         DO            
  B:0020H.3       SYMBOL        initflag
  -------         ENDDO         
  C:0974H         LINE#         49
  C:0974H         LINE#         50
  C:0974H         LINE#         51
  C:0976H         LINE#         53
BL51 BANKED LINKER/LOCATER V6.22.2.0                                                  01/30/2024  13:53:54  PAGE 15


  C:0978H         LINE#         54
  C:097FH         LINE#         55
  C:0981H         LINE#         56
  C:0988H         LINE#         57
  C:098AH         LINE#         58
  C:0991H         LINE#         59
  C:0995H         LINE#         60
  C:0998H         LINE#         62
  C:099AH         LINE#         63
  -------         ENDPROC       INIT_DS18B20
  -------         PROC          TEM_READ
  -------         DO            
  D:0007H         SYMBOL        high
  D:0001H         SYMBOL        low
  -------         ENDDO         
  C:08EFH         LINE#         65
  C:08EFH         LINE#         66
  C:08EFH         LINE#         68
  C:08F2H         LINE#         69
  C:08F7H         LINE#         70
  C:08FCH         LINE#         71
  C:08FFH         LINE#         72
  C:0904H         LINE#         73
  C:0909H         LINE#         75
  C:090EH         LINE#         76
  C:0911H         LINE#         78
  -------         ENDPROC       TEM_READ
  -------         ENDMOD        ONEWIRE

  -------         MODULE        ?C?FPADD
  C:0015H         PUBLIC        ?C?FPADD
  C:0011H         PUBLIC        ?C?FPSUB
  -------         ENDMOD        ?C?FPADD

  -------         MODULE        ?C?FPMUL
  C:0106H         PUBLIC        ?C?FPMUL
  -------         ENDMOD        ?C?FPMUL

  -------         MODULE        ?C?FPDIV
  C:020FH         PUBLIC        ?C?FPDIV
  -------         ENDMOD        ?C?FPDIV

  -------         MODULE        ?C?FPCMP
  C:02AEH         PUBLIC        ?C?FPCMP
  C:02ACH         PUBLIC        ?C?FPCMP3
  -------         ENDMOD        ?C?FPCMP

  -------         MODULE        ?C?FCAST
  C:032FH         PUBLIC        ?C?FCASTC
  C:032AH         PUBLIC        ?C?FCASTI
  C:0325H         PUBLIC        ?C?FCASTL
  -------         ENDMOD        ?C?FCAST

  -------         MODULE        ?C?CASTF
  C:0363H         PUBLIC        ?C?CASTF
  -------         ENDMOD        ?C?CASTF

BL51 BANKED LINKER/LOCATER V6.22.2.0                                                  01/30/2024  13:53:54  PAGE 16


  -------         MODULE        ?C?IMUL
  C:03E4H         PUBLIC        ?C?IMUL
  -------         ENDMOD        ?C?IMUL

  -------         MODULE        ?C?UIDIV
  C:03F6H         PUBLIC        ?C?UIDIV
  -------         ENDMOD        ?C?UIDIV

  -------         MODULE        ?C?LNEG
  C:044BH         PUBLIC        ?C?LNEG
  -------         ENDMOD        ?C?LNEG

*** WARNING L16: UNCALLED SEGMENT, IGNORED FOR OVERLAY PROCESS
    SEGMENT: ?PR?_BEEP?LED

*** WARNING L16: UNCALLED SEGMENT, IGNORED FOR OVERLAY PROCESS
    SEGMENT: ?PR?_RELAY?LED

*** WARNING L16: UNCALLED SEGMENT, IGNORED FOR OVERLAY PROCESS
    SEGMENT: ?PR?_AD_READ?IIC

Program Size: data=58.5 xdata=0 code=2850
LINK/LOCATE RUN COMPLETE.  3 WARNING(S),  0 ERROR(S)
