:0300000002082BC8
:0C082B00787FE4F6D8FD75815402087255
:10097B0008320A0A0A0A0A0A0A0A082600000000B4
:10098B000000000008450000000000000000032EDE
:10099B00103B05013C11013D11014D19015219018B
:1009AB003F04014004C18301220001230001240004
:0309BB0001250013
:10053100300203020617D2021208B78F22E52265A4
:1005410023FFE522F45FF524E5225FF525852223CB
:1005510024FB601D24FD603814607A2405600302C9
:100561000617A201B39201E4200103F55322F531EC
:100571002220010E0553E55364036003020617F5BB
:1005810053220531E53164036003020617F5312278
:10059100200103020617E5311460181460262402B5
:1005A1007074153CD3E53C94C8748094804067E432
:1005B100F53C22154DD3E54D94C874809480405686
:1005C100E4F54D22153FC3E53F94047480948050B7
:1005D10045753F042230013EE53114601814602650
:1005E10024027032053CD3E53C941774809480401A
:1005F10025753C1722054DD3E54D94637480948095
:100601004014754D6322053FD3E53F9408748094EF
:06061100804003753F0864
:0106170022C0
:1003AE00300003020530D2003001030204BCE553D5
:1003BE0014604214700302045A2402600302050EF4
:1003CE00E52E75F00A84F532E52E75F00A8485F077
:1003DE003375340BE52F75F00A84F535E52F75F07E
:1003EE000A8485F03675370BE53075F00A84F538DA
:1003FE00E5300204FF755401C3E5549405748094EE
:10040E0080500B74322554F8760A055480EA753202
:10041E000CAF44AE43AD42AC4112027BEF75F00A15
:10042E0084F537EF75F00A8485F038E4FFFE7D2001
:10043E007C41AB44AA43A942A84112001E12027B82
:10044E007C007D0A12034B8D3902050E75380A7534
:10045E00370A75330A75320DAF51AE50AD4FAC4EF3
:10046E0012027BEF75F00A8485F034E4FFFE7D20E6
:10047E007C41AB51AA50A94FA84E12001E12027B0E
:10048E00EF75F00A8485F035E4FFFE7DC87C42AB43
:10049E0051AA50A94FA84E12001E12027B7C007D5D
:1004AE000A12034B8D36A205E433F539805275548A
:1004BE0002C3E554940674809480500B7432255414
:1004CE00F8760A055480EA75320EE53104F533E507
:1004DE003114601314602324027025E53C75F00A74
:1004EE0084F538E53C800AE54D75F00A84F538E56B
:1004FE004D75F00A8485F039800675380A853F39C6
:10050E0020010AE553640170047F0180027F008F91
:10051E002C20010AE553640270047F0180027F00E3
:03052E008F2822F1
:100618003004030206F2D204AF3D7E00C3EF940813
:10062800748094805014C3E52E940874809480508C
:1006380009E52EC3953D4002801BD3EF9408EE6474
:100648008094804015E52E9408748094804006E5D7
:100658002E953D40057545018003E4F545AC52E40F
:10066800120247AB44AA43A942A8411201C450044C
:100678007F0180027F008F46E53E2403FFE433FEBE
:100688007C007D3C12034BEDB5300820030575470F
:10069800018006300303E4F547755403C3E5549419
:1006A8000874809480501A300517E54014B5540436
:1006B8007F0180027F0074452554F8A60705548001
:1006C800DB755403C3E554940874809480501B2050
:1006D8000518E54014655460047F0180027F0074AA
:0B06E800452554F8A607055480DA22CF
:10079E0030070302082AD2077B007A00792E120A4C
:1007AE00537F41120B37AC07E4120247E4FBFA7990
:1007BE004C78421201278F518E508D4F8C4E120A5B
:1007CE00CB8F448E438D428C417FCD7ECC7D4C7C35
:1007DE003FAB51AA50A94FA84E1201C4500280013E
:1007EE00C39205300104E5316003853C3D300106BE
:1007FE00E53164016003854D52300106E531640236
:10080E006003853F40A205300601B3400930030C5A
:0D081E0085303EC20322A2059206D20322BD
:100C9000538EBF53890F758B18758DFCC28FD28E02
:050CA000D2AFD2AB222F
:03001B000206F3E7
:1006F300C0E0C0F0C083C082C0D075D000C000C0CD
:1007030001C002C003C004C005C006C007053BE525
:100713003B7002053AFFAE3ABE010BBF9008C20719
:10072300753A00753B00AE3AAF3B7C007D0A12037D
:100733004BED4C7002C202AE3AAF3B7C007D14120B
:10074300034BED4C7002C204AE3AAF3B7C007D64B8
:1007530012034BED4C7002C200E53B5407FBFF2430
:1007630032F8E6FD7C0074262BF8E6FB7A001209CA
:10077300C5E53B5407FF2445F8E6FD7C00120A90CB
:10078300D007D006D005D004D003D002D001D000CA
:0B079300D0D0D082D083D0F0D0E03274
:100BD700120C3D120C90120ACB7B007A00792E1270
:100BE700092A7F41120B371205311203AE1206187C
:050BF70012079E80F2D0
:100C3D00E4F580E5A0541F44A0F5A053A01F7580D6
:0D0C4D00FFE5A0541F4480F5A053A01F2216
:1008B700E4FFC2B4D2B5D2C2D2C420B0027F1320A3
:1008C700B1027F1220B2027F1120B3027F10D2B48F
:1008D700C2B5D2C2D2C420B0027F0F20B1027F0EB0
:1008E70020B2027F0D20B3027F0CD2B4D2B5C2C2B0
:1008F700D2C420B0027F0B20B1027F0A20B2027F50
:100907000920B3027F08D2B4D2B5D2C2C2C420B084
:10091700027F0720B1027F0620B2027F0520B302C3
:020927007F044B
:0109290022AB
:100CCE00C0F9A4B0999282F88090FFBFC6868C8836
:030CDE0083A18E61
:1009C5007580FFE5A0541F44E0F5A053A01FA807BC
:1009D5007401088002C333D8FCF580E5A0541F4498
:1009E500C0F5A053A01F74CE2DF582740C3CF58381
:1009F500E493F580EB4A600353807FE5A0541F44E0
:070A0500E0F5A053A01F2241
:0609BE00010C00010DFF19
:100A9000ED4C600FA8077401088002C333D8FC42F4
:100AA0000C800EA8077401088002C333D8FCF452EE
:100AB0000CE50C650D6013E50CF4F580E5A0541F02
:0A0AC0004480F5A053A01F850C0D23
:010ACA002209
:100C5A00E4FEEEC3940874809480500FC297EF1399
:0B0C6A0092A3EFC313FFD2970E80E7A8
:010C7500225C
:100CBA00C29300C29700D29300120C5AAF05120CCD
:040CCA005AC2932255
:0A0A0C00E50B25E0FFC374859FFF92
:100A1600E4FDC29300C29700D29300120C5AE4FF81
:100A2600EFC39408748094805011C297EDC313FDF0
:100A360030A303430580D2970F80E5C29300C29787
:0C0A460000D29700C2A300D2A300AF05AD
:010A52002281
:06092A008B088A09890A0E
:10093000E4FCFBFD7F8E120CBAECC394037480942C
:10094000805031AB08AA09A90A8C82758300120273
:10095000FCFF75F00A84C454F0FEEF75F00A84E5DC
:10096000F04EFBEC25E0FFC374849FFFAD03120C37
:0B097000BA0C80C57D807F8E020CBA9F
:060A53008B088A09890AE4
:100A5900E4F50BF50BC3E50B9403748094805026E1
:100A6900120A0CEFC4540F75F00AA4FC120A0CEF19
:100A7900540F2CAB08AA09A90A850B8275830012A9
:060A89000329050B80CFDC
:010A8F002244
:040C7600D2A07F0A7F
:100C7A00000000000000000000000000000000AEBC
:060C8A00071FEE70EB22D3
:0F0CE100D2A1120C76C2A17F0A120C7AC2A022F5
:0C0CF000C2A1120C76D2A17F0A020C7A7D
:020B0200AD073D
:100B0400E4FCECC39408748094805024C2A07F0A4F
:100B1400120C7AED30E704D2A18002C2A17F0A123E
:100B24000C7AD2A0ED25E0FD7F0A120C7A0C80D25B
:020B3400C2A05D
:010B3600229C
:100BB100E4FCECC39408748094805017120C76ED19
:100BC10025E0FD30A103430501C2A07F0A120C7A82
:050BD1000C80DFAF0500
:010BD60022FC
:030CA500120B022D
:100CA800120C76A2A1E433FDC2A07F0A120C7AAF1F
:010CB8000536
:010CB9002218
:10000300C2A0EF24FF92A17F0A120C7A120C76C2CF
:08001300A0D2A17F0A020C7AC1
:020B3700AB070A
:100B3900E4FD120CE17F90120CA5AF03120CA51273
:100B49000CE17F91120B02120CA8120BB1AD077FB9
:090B590001120003120CF0AF05BB
:010B62002270
:040C1F007F057E00CF
:100C2300EF1FAA0670011E4A600FE4FDEDC3940C8A
:090C33007480948050EA0D80F3F6
:010C3C002295
:020B6300A907E0
:100B6500E4FBEBC39408748094805012C294E9139B
:100B75009294120C1FD294E9C313F90B80E47F05FC
:050B85007E00020C23BC
:100BFC00E4FBEBC39408748094805014C294ECC34F
:100C0C0013FCD294309403430480120C1F0B80E22B
:020C1C00AF0423
:010C1E0022B3
:100B8A00C208D2947F0C7E00120C23C2947F507E3E
:100B9A0000120C23D2947F0A7E00120C23A2949294
:060BAA0008120C1FA20856
:010BB0002222
:100ACB00E4FFF9120B8A7FCC120B637F44120B638A
:100ADB00120B8A7FCC120B637FBE120B63120BFCC3
:100AEB00A907120BFCEFAD01FCEC120242E4FBFA7E
:070AFB007980784102012718
:10001E00EC4D6011E8497017ED33EC3304600DE4DC
:10002E00FCFFFEFD22E933E8330470F80202E7120A
:10003E0002B258046009E4CC24815006285009020B
:10004E0002F12840030202EEC0E0EB4A7044B98090
:10005E0006D0E0FB0202DDEF4E701CBD8008EBFF08
:10006E00EAFEE9FD80EBE98DF0A4FEE5F002010762
:10007E00E9CDF9EAFEEBFFEF89F0A4FCE5F0CE89BD
:10008E00F0A42EFFE435F0CD89F0A42DFEE435F07A
:10009E008067EF4E7005BD80D780C3EF8BF0A4ACA8
:1000AE00F0EE8BF0A42CFCE435F0F8EF8AF0A42CE3
:1000BE00E5F038FCE433CB8DF0A42CFCE5F03BF8F6
:1000CE00EE8AF0A42CFCE5F038F8E433CF89F0A4E6
:1000DE002CFCE5F038CF3400CE89F0A42FFFE5F0EC
:1000EE003EFEE433C98DF0A42EFEE5F039CD8AF044
:1000FE00A42FFFE5F03EFEE43DFD33D0E0FB5007BC
:10010E000BBB000F0202F1EC2CFCEF33FFEE33FEC3
:06011E00ED33FD0202C9F1
:100124000202F1EC5D046005E8590470030202E781
:100134001202B2580460F6EC4860F2EC7004FDFE62
:10014400FF22C860DB2481C85009C39860025006AE
:100154000202EE9850CAF582E9294B4A7005AB8237
:100164000202DD75F0007C1A7880C3EF9BEE9AEDF5
:1001740099400DC3EF9BFFEE9AFEED99FDE842F026
:10018400DC23ACF0D0E0FFD0E0FED0E0FDAB822079
:10019400E7101BEB60BAEC2CFCEF33FFEE33FEED03
:1001A40033FD0202C9E803F830E705C0F075F0003A
:1001B400EF2FFFEE33FEED33FD40B830E7C280AAE7
:1001C40074F8CC6480CCC86480C8F58204604FC3E2
:1001D400EB9FF5F0EA9E42F0E99D42F0E89C45F081
:1001E400603C501DE5825FFFE582D313CB5BCBF40B
:1001F4002B5582FB50280ABA002409B90020088034
:100204001DE5825BFBE582D313CF5FCFF4C3132FCD
:100214005582FF50090EBE00050DBD00010CC3EB55
:100224009FF5F0EA9E42F0E99D42F0E89C45F060BB
:0902340007CC4820E701B3EC22DD
:10023D0075F020800E75F010800575F0087D007E3C
:10024D00007F003392D530D5031203A0EC3340105C
:10025D00EF33FFEE33FEED33FDEC33FCD5F0ED2245
:0E026D00E5F0247EA2D513CC92E7CDCEFF2281
:10027B00EDD2E7CD33EC3392D524814006E4FFFE7B
:10028B00FDFC22FCE4CFCECDCC24E0501174FF80DA
:10029B00EDC3CC13CCCD13CDCE13CECF13CF047077
:0702AB00F030D5DE0203A0D4
:1002B200E9D2E7C933E833F892D5EDD2E7CD33EC92
:0702C20033FC5002B2D5220B
:1002C900EC30E7100FBF000C0EBE00080DBD000496
:1002D9000BEB6014A2D5EB13FCED92E7FD2274FF42
:1002E900FCFDFEFF22E480F8A2D574FF13FC7D809B
:0302F900E480EFAF
:10083700020BD7E493A3F8E493A34003F68001F2F5
:1008470008DFF48029E493A3F85407240CC8C333C2
:10085700C4540F4420C8834004F456800146F6DF91
:10086700E4800B010204081020408090097BE47E9D
:10087700019360BCA3FF543F30E509541FFEE49386
:10088700A360010ECF54C025E060A840B8E493A34D
:10089700FAE493A3F8E493A3C8C582C8CAC583CA78
:1008A700F0A3C8C582C8CAC583CADFE9DEE780BE30
:0109C4000032
:1002FC00BB010CE58229F582E5833AF583E02250B7
:10030C0006E92582F8E622BBFE06E92582F8E22200
:0D031C00E58229F582E5833AF583E493221A
:10032900F8BB010DE58229F582E5833AF583E8F00A
:10033900225006E92582C8F622BBFE05E92582C8B6
:02034900F2229E
:10034B00BC000BBE0029EF8DF084FFADF022E4CC96
:10035B00F875F008EF2FFFEE33FEEC33FCEE9DEC5F
:10036B00984005FCEE9DFE0FD5F0E9E4CEFD22EDA5
:10037B00F8F5F0EE8420D21CFEADF075F008EF2FEF
:10038B00FFED33FD4007985006D5F0F222C398FDE0
:05039B000FD5F0EA227D
:0E03A000C3E49FFFE49EFEE49DFDE49CFC226E
:00000001FF
