:10056E00C101C100082A0A0A0A0A0A0A0A0A08214F
:10057E000000000000000000083C00000000000029
:02058E0000006B
:10060800200119D2011204068F36E5366535FF55EB
:0D06180036F534E536F45FF53785363522CA
:10047900200045D20012053A8F3B8E3A8D398C38CF
:100489001201F2EF75F00A8475F00A8485F02AEFFB
:1004990075F00A8485F02B752201E4FFFE7D207C2E
:1004A90041AB3BAA3AA939A83812000E1201F27CD5
:0904B900007D0A1202858D2C223F
:0100030022DA
:10067300538E7F5389F0758A18758CFCC28DD28C8A
:05068300D2A9D2AF2254
:03000B000202E806
:1002E800C0E0C0F0C083C082C0D075D000C000C0DC
:1002F80001C002C003C004C005C006C0070533E53D
:100308003370020532C394F4E53294014008753223
:1003180000753300C200AE32AF337C007D0A120292
:1003280085ED4C7002C2010529E52964087002F5C3
:1003380029742A2529F8E6FD7C0074212529F8E688
:10034800FB7A00AF291204C2743C2529F8E624FF81
:100358009202AF29120503D007D006D005D004D0E9
:1003680003D002D001D000D0D0D082D083D0F0D03A
:02037800E03271
:10068800EF4E600F7D0C7CA9DCFEDDFCEF1F70F0E7
:030698001E80EDD4
:01069B00223C
:1006420012067312062512053A7FEE7E0212068802
:0B06520012060812047912000380F564
:10040600E4FFC2B4D2B5D2C2D2C420B0027F132058
:10041600B1027F1220B2027F1120B3027F10D2B444
:10042600C2B5D2C2D2C420B0027F0F20B1027F0E65
:1004360020B2027F0D20B3027F0CD2B4D2B5C2C265
:10044600D2C420B0027F0B20B1027F0A20B2027F05
:100456000920B3027F08D2B4D2B5D2C2C2C420B03A
:10046600027F0720B1027F0620B2027F0520B30279
:020476007F0401
:010478002261
:10069C00C0F9A4B0999282F88090FFBF01020408BF
:0406AC00102040805A
:1004C2007580FFE5A0541F44E0F5A053A01FEF90F4
:1004D20006A893F580E5A0541F44C0F5A053A01FC1
:1004E200749C2DF58274063CF583E493F580EB4A07
:1004F200600353807FE5A0541F44E0F5A053A01F82
:0105020022D6
:060590000108000109FF53
:1005030030020FA8077401088002C333D8FC4208E5
:10051300800EA8077401088002C333D8FCF4520884
:10052300E50865096010E508F4F580E5A0541F446B
:0605330080F5A053A01F9B
:01053900229F
:10062500E4F580E5A0541F44A0F5A053A01F7580F4
:0D063500FFE5A0541F4480F5A053A01F2234
:04065D007F057E0097
:100661007C007D0C120273EF1FAC0670011E4C70F2
:02067100F6226F
:02059700AB07B0
:10059900E4FAEAC39408748094805012C294EB136D
:1005A900929412065DD294EBC313FB0A80E47F0593
:0505B9007E0002066156
:1005E500E4FAEAC39408748094805014C294EBC36F
:1005F50013FBD29430940343038012065D0A80E214
:02060500AF0341
:0106070022D0
:1005BE00C203D2947F0C7E00120661C2947F507EDD
:1005CE0000120661D2947F0A7E00120661A29492F6
:0605DE000312065DA203FA
:0105E40022F4
:10053A001205BE7FCC1205977F441205971205BE9D
:10054A007FCC1205977FBE1205971205E5A90712FF
:10055A0005E5EFAD01FCEC1201B9E4FBFA7980780C
:04056A004102011732
:10000E00EC4D6011E8497017ED33EC3304600DE4EC
:10001E00FCFFFEFD22E933E8330470F802025E12A3
:10002E00022958046009E4CC2481500628500902A4
:10003E000268284003020265C0E0EB4A7044B980B2
:10004E0006D0E0FB020254EF4E701CBD8008EBFFA1
:10005E00EAFEE9FD80EBE98DF0A4FEE5F00200F783
:10006E00E9CDF9EAFEEBFFEF89F0A4FCE5F0CE89CD
:10007E00F0A42EFFE435F0CD89F0A42DFEE435F08A
:10008E008067EF4E7005BD80D780C3EF8BF0A4ACB8
:10009E00F0EE8BF0A42CFCE435F0F8EF8AF0A42CF3
:1000AE00E5F038FCE433CB8DF0A42CFCE5F03BF806
:1000BE00EE8AF0A42CFCE5F038F8E433CF89F0A4F6
:1000CE002CFCE5F038CF3400CE89F0A42FFFE5F0FC
:1000DE003EFEE433C98DF0A42EFEE5F039CD8AF054
:1000EE00A42FFFE5F03EFEE43DFD33D0E0FB5007CC
:1000FE000BBB000F020268EC2CFCEF33FFEE33FE5D
:06010E00ED33FD0202408A
:10011400020268EC5D046005E85904700302025EA3
:10012400120229580460F6EC4860F2EC7004FDFEFB
:10013400FF22C860DB2481C85009C39860025006BE
:100144000202659850CAF582E9294B4A7005AB82D0
:1001540002025475F0007C1A7880C3EF9BEE9AED8E
:1001640099400DC3EF9BFFEE9AFEED99FDE842F036
:10017400DC23ACF0D0E0FFD0E0FED0E0FDAB822089
:10018400E7101BEB60BAEC2CFCEF33FFEE33FEED13
:1001940033FD020240E803F830E705C0F075F000D3
:1001A400EF2FFFEE33FEED33FD40B830E7C280AAF7
:1001B40075F020800E75F010800575F0087D007EC6
:1001C400007F003392D530D5031202DAEC334010AD
:1001D400EF33FFEE33FEED33FDEC33FCD5F0ED22CF
:0E01E400E5F0247EA2D513CC92E7CDCEFF220B
:1001F200EDD2E7CD33EC3392D524814006E4FFFE05
:10020200FDFC22FCE4CFCECDCC24E0501174FF8063
:10021200EDC3CC13CCCD13CDCE13CECF13CF047000
:07022200F030D5DE0202DA24
:10022900E9D2E7C933E833F892D5EDD2E7CD33EC1B
:0702390033FC5002B2D52294
:10024000EC30E7100FBF000C0EBE00080DBD00041F
:100250000BEB6014A2D5EB13FCED92E7FD2274FFCB
:10026000FCFDFEFF22E480F8A2D574FF13FC7D8024
:03027000E480EF38
:0300000002037A7E
:0C037A00787FE4F6D8FD7581430203C1D2
:10027300EF8DF0A4A8F0CF8CF0A428CE8DF0A42E9F
:02028300FE2259
:10028500BC000BBE0029EF8DF084FFADF022E4CC5D
:10029500F875F008EF2FFFEE33FEEC33FCEE9DEC26
:1002A500984005FCEE9DFE0FD5F0E9E4CEFD22ED6C
:1002B500F8F5F0EE8420D21CFEADF075F008EF2FB6
:1002C500FFED33FD4007985006D5F0F222C398FDA7
:0502D5000FD5F0EA2244
:0E02DA00C3E49FFFE49EFEE49DFDE49CFC2235
:10038600020642E493A3F8E493A34003F68001F245
:1003960008DFF48029E493A3F85407240CC8C33378
:1003A600C4540F4420C8834004F456800146F6DF47
:1003B600E4800B010204081020408090056EE47E64
:1003C600019360BCA3FF543F30E509541FFEE4933C
:1003D600A360010ECF54C025E060A840B8E493A303
:1003E600FAE493A3F8E493A3C8C582C8CAC583CA2E
:1003F600F0A3C8C582C8CAC583CADFE9DEE780BEE6
:010596000064
:00000001FF
