BL51 BANKED LINKER/LOCATER V6.22.2.0                                                    05/18/2024  17:59:17  PAGE 1


BL51 BANKED LINKER/LOCATER V6.22.2.0, INVOKED BY:
D:\KEIL 5\C51\BIN\BL51.EXE .\Objects\STARTUP.obj, .\Objects\main.obj, .\Objects\Init.obj, .\Objects\Key.obj, .\Objects\S
>> eg.obj, .\Objects\LED.obj, .\Objects\Uwave.obj, .\Objects\ds1302.obj, .\Objects\iic.obj TO .\Objects\project PRINT (.
>> \Listings\project.m51) RAMSIZE (256)


MEMORY MODEL: SMALL WITH FLOATING POINT ARITHMETIC


INPUT MODULES INCLUDED:
  .\Objects\STARTUP.obj (?C_STARTUP)
  .\Objects\main.obj (MAIN)
  .\Objects\Init.obj (INIT)
  .\Objects\Key.obj (KEY)
  .\Objects\Seg.obj (SEG)
  .\Objects\LED.obj (LED)
  .\Objects\Uwave.obj (UWAVE)
  .\Objects\ds1302.obj (DS1302)
  .\Objects\iic.obj (IIC)
  D:\KEIL 5\C51\LIB\C51FPS.LIB (?C?FPADD)
  D:\KEIL 5\C51\LIB\C51FPS.LIB (?C?FPMUL)
  D:\KEIL 5\C51\LIB\C51FPS.LIB (?C?FPDIV)
  D:\KEIL 5\C51\LIB\C51FPS.LIB (?C?FCAST)
  D:\KEIL 5\C51\LIB\C51FPS.LIB (?C?CASTF)
  D:\KEIL 5\C51\LIB\C51FPS.LIB (?C?FPGETOPN)
  D:\KEIL 5\C51\LIB\C51S.LIB (?C_INIT)
  D:\KEIL 5\C51\LIB\C51S.LIB (?C?CLDOPTR)
  D:\KEIL 5\C51\LIB\C51S.LIB (?C?CSTOPTR)
  D:\KEIL 5\C51\LIB\C51S.LIB (?C?IMUL)
  D:\KEIL 5\C51\LIB\C51S.LIB (?C?UIDIV)
  D:\KEIL 5\C51\LIB\C51S.LIB (?C?LNEG)


LINK MAP OF MODULE:  .\Objects\project (?C_STARTUP)


            TYPE    BASE      LENGTH    RELOCATION   SEGMENT NAME
            -----------------------------------------------------

            * * * * * * *   D A T A   M E M O R Y   * * * * * * *
            REG     0000H     0008H     ABSOLUTE     "REG BANK 0"
            DATA    0008H     0004H     UNIT         _DATA_GROUP_
            DATA    000CH     0002H     UNIT         ?DT?LED
                    000EH     0012H                  *** GAP ***
            BIT     0020H.0   0001H.0   UNIT         ?BI?MAIN
            DATA    0021H     003FH     UNIT         ?DT?MAIN
            IDATA   0060H     0001H     UNIT         ?STACK

            * * * * * * *   C O D E   M E M O R Y   * * * * * * *
            CODE    0000H     0003H     ABSOLUTE     
            CODE    0003H     0018H     UNIT         ?PR?_I2CSENDACK?IIC
            CODE    001BH     0003H     ABSOLUTE     
            CODE    001EH     0421H     UNIT         ?C?LIB_CODE
            CODE    043FH     0219H     UNIT         ?PR?SEG_DEAL?MAIN
            CODE    0658H     0129H     UNIT         ?PR?INFOR_DEAL?MAIN
            CODE    0781H     0102H     UNIT         ?PR?TIMER1_SERVE?MAIN
            CODE    0883H     009EH     UNIT         ?PR?KEY_DEAL?MAIN
            CODE    0921H     008EH     UNIT         ?PR?LED_DEAL?MAIN
BL51 BANKED LINKER/LOCATER V6.22.2.0                                                  05/18/2024  17:59:17  PAGE 2


            CODE    09AFH     008CH     UNIT         ?C_C51STARTUP
            CODE    0A3BH     0073H     UNIT         ?PR?KEY_READ?KEY
            CODE    0AAEH     0051H     UNIT         ?PR?_DS1302_WRITE_RTC?DS1302
            CODE    0AFFH     0047H     UNIT         ?PR?_SEG_SHOW?SEG
            CODE    0B46H     0047H     UNIT         ?PR?_READ_DS1302_BYTE?DS1302
            CODE    0B8DH     0042H     UNIT         ?C_INITSEG
            CODE    0BCFH     003DH     UNIT         ?PR?_DS1302_READ_RTC?DS1302
            CODE    0C0CH     003BH     UNIT         ?PR?_LED_SHOW?LED
            CODE    0C47H     003BH     UNIT         ?PR?UWAVE_READ_D?UWAVE
            CODE    0C82H     0035H     UNIT         ?PR?_I2CSENDBYTE?IIC
            CODE    0CB7H     0027H     UNIT         ?PR?_AD_READ?IIC
            CODE    0CDEH     0026H     UNIT         ?PR?I2CRECEIVEBYTE?IIC
            CODE    0D04H     0022H     UNIT         ?PR?MAIN?MAIN
            CODE    0D26H     001DH     UNIT         ?PR?SYSTEM_INIT?INIT
            CODE    0D43H     001DH     UNIT         ?PR?I2CWAITACK?IIC
            CODE    0D60H     001CH     UNIT         ?PR?_WRITE_DS1302?DS1302
            CODE    0D7CH     001AH     UNIT         ?PR?UWAVE_INIT?UWAVE
            CODE    0D96H     001AH     UNIT         ?PR?_I2C_DELAY?IIC
            CODE    0DB0H     0017H     UNIT         ?CO?SEG
            CODE    0DC7H     0015H     UNIT         ?PR?TIMER1_INIT?MAIN
            CODE    0DDCH     0015H     UNIT         ?PR?_DA_WRITE?IIC
            CODE    0DF1H     0014H     UNIT         ?PR?_WRITE_DS1302_BYTE?DS1302
            CODE    0E05H     000FH     UNIT         ?PR?I2CSTART?IIC
            CODE    0E14H     000CH     UNIT         ?PR?I2CSTOP?IIC
            CODE    0E20H     0007H     UNIT         ?PR?DELAY12US?UWAVE



OVERLAY MAP OF MODULE:   .\Objects\project (?C_STARTUP)


SEGMENT                                 DATA_GROUP 
  +--> CALLED SEGMENT                 START    LENGTH
-----------------------------------------------------
?C_C51STARTUP                         -----    -----
  +--> ?PR?MAIN?MAIN
  +--> ?C_INITSEG

?PR?MAIN?MAIN                         -----    -----
  +--> ?PR?SYSTEM_INIT?INIT
  +--> ?PR?TIMER1_INIT?MAIN
  +--> ?PR?_DS1302_WRITE_RTC?DS1302
  +--> ?PR?_AD_READ?IIC
  +--> ?PR?KEY_DEAL?MAIN
  +--> ?PR?SEG_DEAL?MAIN
  +--> ?PR?LED_DEAL?MAIN
  +--> ?PR?INFOR_DEAL?MAIN

?PR?_DS1302_WRITE_RTC?DS1302          0008H    0003H
  +--> ?PR?_WRITE_DS1302_BYTE?DS1302

?PR?_WRITE_DS1302_BYTE?DS1302         -----    -----
  +--> ?PR?_WRITE_DS1302?DS1302

?PR?_AD_READ?IIC                      -----    -----
  +--> ?PR?I2CSTART?IIC
  +--> ?PR?I2CWAITACK?IIC
BL51 BANKED LINKER/LOCATER V6.22.2.0                                                  05/18/2024  17:59:17  PAGE 3


  +--> ?PR?_I2CSENDBYTE?IIC
  +--> ?PR?I2CRECEIVEBYTE?IIC
  +--> ?PR?_I2CSENDACK?IIC
  +--> ?PR?I2CSTOP?IIC

?PR?I2CSTART?IIC                      -----    -----
  +--> ?PR?_I2C_DELAY?IIC

?PR?I2CWAITACK?IIC                    -----    -----
  +--> ?PR?_I2CSENDBYTE?IIC
  +--> ?PR?_I2C_DELAY?IIC

?PR?_I2CSENDBYTE?IIC                  -----    -----
  +--> ?PR?_I2C_DELAY?IIC

?PR?I2CRECEIVEBYTE?IIC                -----    -----
  +--> ?PR?_I2C_DELAY?IIC

?PR?_I2CSENDACK?IIC                   -----    -----
  +--> ?PR?_I2C_DELAY?IIC

?PR?I2CSTOP?IIC                       -----    -----
  +--> ?PR?_I2C_DELAY?IIC

?PR?KEY_DEAL?MAIN                     -----    -----
  +--> ?PR?KEY_READ?KEY

?PR?INFOR_DEAL?MAIN                   -----    -----
  +--> ?PR?_DA_WRITE?IIC
  +--> ?PR?UWAVE_READ_D?UWAVE
  +--> ?PR?_AD_READ?IIC
  +--> ?PR?_DS1302_READ_RTC?DS1302

?PR?_DA_WRITE?IIC                     -----    -----
  +--> ?PR?I2CSTART?IIC
  +--> ?PR?_I2CSENDBYTE?IIC
  +--> ?PR?I2CWAITACK?IIC
  +--> ?PR?I2CSTOP?IIC

?PR?UWAVE_READ_D?UWAVE                -----    -----
  +--> ?PR?UWAVE_INIT?UWAVE

?PR?UWAVE_INIT?UWAVE                  -----    -----
  +--> ?PR?DELAY12US?UWAVE

?PR?_DS1302_READ_RTC?DS1302           0008H    0004H
  +--> ?PR?_READ_DS1302_BYTE?DS1302

?PR?_READ_DS1302_BYTE?DS1302          -----    -----
  +--> ?PR?_WRITE_DS1302?DS1302

*** NEW ROOT ***************************************************

?PR?TIMER1_SERVE?MAIN                 -----    -----
  +--> ?PR?_SEG_SHOW?SEG
  +--> ?PR?_LED_SHOW?LED

BL51 BANKED LINKER/LOCATER V6.22.2.0                                                  05/18/2024  17:59:17  PAGE 4


?PR?_SEG_SHOW?SEG                     -----    -----
  +--> ?CO?SEG



SYMBOL TABLE OF MODULE:  .\Objects\project (?C_STARTUP)

  VALUE           TYPE          NAME
  ----------------------------------

  -------         MODULE        ?C_STARTUP
  C:09AFH         SEGMENT       ?C_C51STARTUP
  I:0060H         SEGMENT       ?STACK
  C:0000H         PUBLIC        ?C_STARTUP
  D:00E0H         SYMBOL        ACC
  D:00F0H         SYMBOL        B
  D:0083H         SYMBOL        DPH
  D:0082H         SYMBOL        DPL
  N:0000H         SYMBOL        IBPSTACK
  N:0100H         SYMBOL        IBPSTACKTOP
  N:0080H         SYMBOL        IDATALEN
  C:09B2H         SYMBOL        IDATALOOP
  N:0000H         SYMBOL        PBPSTACK
  N:0100H         SYMBOL        PBPSTACKTOP
  N:0000H         SYMBOL        PDATALEN
  N:0000H         SYMBOL        PDATASTART
  N:0000H         SYMBOL        PPAGE
  N:0000H         SYMBOL        PPAGEENABLE
  D:00A0H         SYMBOL        PPAGE_SFR
  D:0081H         SYMBOL        SP
  C:09AFH         SYMBOL        STARTUP1
  N:0000H         SYMBOL        XBPSTACK
  N:0000H         SYMBOL        XBPSTACKTOP
  N:0000H         SYMBOL        XDATALEN
  N:0000H         SYMBOL        XDATASTART
  C:0000H         LINE#         126
  C:09AFH         LINE#         133
  C:09B1H         LINE#         134
  C:09B2H         LINE#         135
  C:09B3H         LINE#         136
  C:09B5H         LINE#         185
  C:09B8H         LINE#         196
  -------         ENDMOD        ?C_STARTUP

  -------         MODULE        MAIN
  C:0000H         SYMBOL        _ICE_DUMMY_
  D:0080H         PUBLIC        P0
  D:0090H         PUBLIC        P1
  D:00A0H         PUBLIC        P2
  C:0883H         PUBLIC        Key_Deal
  D:0025H         PUBLIC        Dist_Count
  D:00B0H         PUBLIC        P3
  D:0027H         PUBLIC        L5_Dist_New
  D:00C0H         PUBLIC        P4
  B:0020H.0       PUBLIC        Seg_Slow_Flag
  D:00C8H         PUBLIC        P5
  B:00A8H.7       PUBLIC        EA
BL51 BANKED LINKER/LOCATER V6.22.2.0                                                  05/18/2024  17:59:17  PAGE 5


  D:00E8H         PUBLIC        P6
  D:00F8H         PUBLIC        P7
  B:0020H.1       PUBLIC        Seg_Show_Mode
  D:0028H         PUBLIC        Seg_Point
  D:00A8H         PUBLIC        IE
  B:0020H.2       PUBLIC        Key_Slow_Flag
  D:0030H         PUBLIC        Rtc_Real_Buf
  D:0033H         PUBLIC        Get_Time
  D:0035H         PUBLIC        Dist
  D:0036H         PUBLIC        Dist_Old
  D:0037H         PUBLIC        Get_Time_Show
  D:00B8H         PUBLIC        IP
  D:0038H         PUBLIC        Data_Record_Index
  D:0039H         PUBLIC        Sec
  D:003AH         PUBLIC        Dist_Min
  C:0781H         PUBLIC        Timer1_Serve
  D:003BH         PUBLIC        Dist_Max
  D:003CH         PUBLIC        Seg_Buf
  D:0044H         PUBLIC        Get_Time_Set
  D:0045H         PUBLIC        Slow_Down
  D:00D8H         PUBLIC        CCON
  C:0D04H         PUBLIC        main
  B:0020H.3       PUBLIC        Num_Set_Mode
  C:0DC7H         PUBLIC        Timer1_Init
  D:0047H         PUBLIC        Dist_Num_Show
  D:0048H         PUBLIC        Dist_Sum
  C:0921H         PUBLIC        LED_Deal
  B:0020H.4       PUBLIC        Dist_Refresh_Mode
  D:0098H         PUBLIC        SCON
  D:0089H         PUBLIC        TMOD
  D:0088H         PUBLIC        TCON
  D:004AH         PUBLIC        Dist_Num_Set
  D:004BH         PUBLIC        Dist_Average
  B:0020H.5       PUBLIC        LED_Slow_Flag
  D:008EH         PUBLIC        AUXR
  B:00A8H.3       PUBLIC        ET1
  B:0088H.7       PUBLIC        TF1
  D:008DH         PUBLIC        TH1
  D:008BH         PUBLIC        TL1
  D:004FH         PUBLIC        LED_Buf
  B:0088H.6       PUBLIC        TR1
  C:0658H         PUBLIC        Infor_Deal
  D:0057H         PUBLIC        DA_Data
  D:005BH         PUBLIC        AD_Data_Old
  B:0020H.6       PUBLIC        Infor_Slow_Flag
  D:005CH         PUBLIC        Data_Show_Mode
  D:005DH         PUBLIC        i
  D:005EH         PUBLIC        AD_Data_New
  B:0020H.7       PUBLIC        Get_Dist_Flag
  C:043FH         PUBLIC        Seg_Deal
  D:005FH         PUBLIC        L5_Dist_Old
  D:00D0H         PUBLIC        PSW
  -------         PROC          KEY_DEAL
  -------         DO            
  D:0021H         SYMBOL        Key_New
  D:0022H         SYMBOL        Key_Old
  D:0023H         SYMBOL        Key_UP
BL51 BANKED LINKER/LOCATER V6.22.2.0                                                  05/18/2024  17:59:17  PAGE 6


  D:0024H         SYMBOL        Key_Down
  -------         ENDDO         
  C:0883H         LINE#         41
  C:0883H         LINE#         42
  C:0883H         LINE#         46
  C:0889H         LINE#         47
  C:088BH         LINE#         49
  C:0890H         LINE#         50
  C:089BH         LINE#         51
  C:08A0H         LINE#         52
  C:08A3H         LINE#         54
  C:08B2H         LINE#         55
  C:08B2H         LINE#         57
  C:08B2H         LINE#         58
  C:08B7H         LINE#         59
  C:08B8H         LINE#         61
  C:08B8H         LINE#         62
  C:08BBH         LINE#         63
  C:08BBH         LINE#         64
  C:08C3H         LINE#         65
  C:08C5H         LINE#         66
  C:08C6H         LINE#         68
  C:08CBH         LINE#         69
  C:08CCH         LINE#         71
  C:08CCH         LINE#         72
  C:08CFH         LINE#         73
  C:08CFH         LINE#         74
  C:08D9H         LINE#         75
  C:08E4H         LINE#         76
  C:08E4H         LINE#         77
  C:08E5H         LINE#         79
  C:08E5H         LINE#         80
  C:08EBH         LINE#         81
  C:08EBH         LINE#         82
  C:08F5H         LINE#         83
  C:08F9H         LINE#         84
  C:0907H         LINE#         85
  C:0908H         LINE#         86
  C:090EH         LINE#         87
  C:090EH         LINE#         88
  C:0914H         LINE#         89
  C:091DH         LINE#         90
  C:0920H         LINE#         91
  C:0920H         LINE#         92
  C:0920H         LINE#         93
  C:0920H         LINE#         96
  -------         ENDPROC       KEY_DEAL
  -------         PROC          SEG_DEAL
  C:043FH         LINE#         99
  C:043FH         LINE#         100
  C:043FH         LINE#         101
  C:0445H         LINE#         102
  C:0447H         LINE#         105
  C:045EH         LINE#         108
  C:0464H         LINE#         109
  C:0464H         LINE#         110
  C:0476H         LINE#         111
BL51 BANKED LINKER/LOCATER V6.22.2.0                                                  05/18/2024  17:59:17  PAGE 7


  C:0476H         LINE#         113
  C:0476H         LINE#         114
  C:047EH         LINE#         115
  C:0487H         LINE#         116
  C:048AH         LINE#         117
  C:0492H         LINE#         118
  C:049BH         LINE#         119
  C:049EH         LINE#         120
  C:04A6H         LINE#         121
  C:04A8H         LINE#         122
  C:04ABH         LINE#         124
  C:04ABH         LINE#         125
  C:04C4H         LINE#         126
  C:04C7H         LINE#         127
  C:04D2H         LINE#         128
  C:04DFH         LINE#         129
  C:04ECH         LINE#         130
  C:04F5H         LINE#         131
  C:0506H         LINE#         132
  C:0506H         LINE#         133
  C:0511H         LINE#         134
  C:0518H         LINE#         136
  C:0518H         LINE#         137
  C:051CH         LINE#         138
  C:051CH         LINE#         140
  C:051CH         LINE#         142
  C:051FH         LINE#         143
  C:0531H         LINE#         144
  C:0531H         LINE#         146
  C:0531H         LINE#         147
  C:0534H         LINE#         148
  C:0541H         LINE#         149
  C:054EH         LINE#         150
  C:0550H         LINE#         151
  C:0553H         LINE#         153
  C:0553H         LINE#         154
  C:0556H         LINE#         155
  C:056DH         LINE#         156
  C:0579H         LINE#         157
  C:058CH         LINE#         158
  C:05AAH         LINE#         159
  C:05B8H         LINE#         160
  C:05B8H         LINE#         161
  C:05C0H         LINE#         162
  C:05C7H         LINE#         164
  C:05C7H         LINE#         165
  C:05CBH         LINE#         166
  C:05CBH         LINE#         168
  C:05CBH         LINE#         169
  C:05CEH         LINE#         170
  C:05DBH         LINE#         171
  C:05E8H         LINE#         172
  C:05F1H         LINE#         173
  C:05F1H         LINE#         174
  C:05F1H         LINE#         175
  C:0605H         LINE#         176
  C:0605H         LINE#         177
BL51 BANKED LINKER/LOCATER V6.22.2.0                                                  05/18/2024  17:59:17  PAGE 8


  C:060DH         LINE#         178
  C:0614H         LINE#         180
  C:0614H         LINE#         181
  C:0618H         LINE#         182
  C:0618H         LINE#         183
  C:0618H         LINE#         184
  C:0618H         LINE#         187
  C:0618H         LINE#         188
  C:0631H         LINE#         189
  C:0634H         LINE#         190
  C:063AH         LINE#         191
  C:063CH         LINE#         193
  C:063FH         LINE#         194
  C:063FH         LINE#         195
  C:0642H         LINE#         196
  C:0645H         LINE#         197
  C:0646H         LINE#         200
  C:0646H         LINE#         201
  C:064EH         LINE#         202
  C:0657H         LINE#         203
  C:0657H         LINE#         204
  C:0657H         LINE#         205
  -------         ENDPROC       SEG_DEAL
  -------         PROC          LED_DEAL
  C:0921H         LINE#         208
  C:0921H         LINE#         209
  C:0921H         LINE#         210
  C:0927H         LINE#         211
  C:0929H         LINE#         214
  C:0937H         LINE#         215
  C:0950H         LINE#         217
  C:095BH         LINE#         219
  C:099BH         LINE#         221
  C:09AEH         LINE#         222
  -------         ENDPROC       LED_DEAL
  -------         PROC          INFOR_DEAL
  C:0658H         LINE#         225
  C:0658H         LINE#         226
  C:0658H         LINE#         228
  C:0670H         LINE#         229
  C:0673H         LINE#         230
  C:0673H         LINE#         231
  C:0678H         LINE#         232
  C:067EH         LINE#         233
  C:067EH         LINE#         234
  C:0686H         LINE#         235
  C:0690H         LINE#         236
  C:0697H         LINE#         237
  C:069AH         LINE#         238
  C:06A1H         LINE#         239
  C:06A4H         LINE#         240
  C:06A7H         LINE#         241
  C:06A7H         LINE#         242
  C:06A7H         LINE#         245
  C:06ADH         LINE#         246
  C:06AFH         LINE#         249
  C:06B6H         LINE#         250
BL51 BANKED LINKER/LOCATER V6.22.2.0                                                  05/18/2024  17:59:17  PAGE 9


  C:06BFH         LINE#         254
  C:06CDH         LINE#         255
  C:06DAH         LINE#         256
  C:06E5H         LINE#         257
  C:06F2H         LINE#         259
  C:071BH         LINE#         262
  C:0721H         LINE#         263
  C:0724H         LINE#         264
  C:072AH         LINE#         265
  C:072DH         LINE#         268
  C:0734H         LINE#         269
  C:0737H         LINE#         270
  C:0740H         LINE#         274
  C:0765H         LINE#         275
  C:0765H         LINE#         276
  C:076DH         LINE#         277
  C:0772H         LINE#         278
  C:077DH         LINE#         279
  C:077DH         LINE#         282
  C:0780H         LINE#         284
  -------         ENDPROC       INFOR_DEAL
  -------         PROC          TIMER1_INIT
  C:0DC7H         LINE#         287
  C:0DC7H         LINE#         288
  C:0DC7H         LINE#         289
  C:0DCAH         LINE#         290
  C:0DCDH         LINE#         291
  C:0DD0H         LINE#         292
  C:0DD3H         LINE#         293
  C:0DD5H         LINE#         294
  C:0DD7H         LINE#         295
  C:0DD9H         LINE#         296
  C:0DDBH         LINE#         297
  -------         ENDPROC       TIMER1_INIT
  -------         PROC          TIMER1_SERVE
  C:0781H         LINE#         300
  C:079EH         LINE#         302
  C:07B7H         LINE#         303
  C:07C8H         LINE#         304
  C:07D9H         LINE#         305
  C:07EAH         LINE#         306
  C:0802H         LINE#         307
  C:0811H         LINE#         309
  C:082FH         LINE#         310
  C:082FH         LINE#         311
  C:0837H         LINE#         312
  C:0862H         LINE#         313
  C:0865H         LINE#         314
  C:0868H         LINE#         315
  C:0868H         LINE#         316
  -------         ENDPROC       TIMER1_SERVE
  -------         PROC          MAIN
  C:0D04H         LINE#         319
  C:0D04H         LINE#         320
  C:0D04H         LINE#         321
  C:0D07H         LINE#         322
  C:0D0AH         LINE#         323
BL51 BANKED LINKER/LOCATER V6.22.2.0                                                  05/18/2024  17:59:17  PAGE 10


  C:0D13H         LINE#         324
  C:0D18H         LINE#         326
  C:0D18H         LINE#         327
  C:0D18H         LINE#         328
  C:0D1BH         LINE#         329
  C:0D1EH         LINE#         330
  C:0D21H         LINE#         331
  C:0D24H         LINE#         332
  -------         ENDPROC       MAIN
  -------         ENDMOD        MAIN

  -------         MODULE        INIT
  C:0000H         SYMBOL        _ICE_DUMMY_
  C:0D26H         PUBLIC        System_Init
  D:0080H         PUBLIC        P0
  D:0090H         PUBLIC        P1
  D:00A0H         PUBLIC        P2
  D:00B0H         PUBLIC        P3
  D:00C0H         PUBLIC        P4
  D:00C8H         PUBLIC        P5
  D:00E8H         PUBLIC        P6
  D:00F8H         PUBLIC        P7
  D:00A8H         PUBLIC        IE
  D:00B8H         PUBLIC        IP
  D:00D8H         PUBLIC        CCON
  D:0098H         PUBLIC        SCON
  D:0088H         PUBLIC        TCON
  D:00D0H         PUBLIC        PSW
  -------         PROC          SYSTEM_INIT
  C:0D26H         LINE#         5
  C:0D26H         LINE#         6
  C:0D26H         LINE#         7
  C:0D29H         LINE#         8
  C:0D31H         LINE#         9
  C:0D34H         LINE#         11
  C:0D37H         LINE#         12
  C:0D3FH         LINE#         13
  C:0D42H         LINE#         14
  -------         ENDPROC       SYSTEM_INIT
  -------         ENDMOD        INIT

  -------         MODULE        KEY
  C:0000H         SYMBOL        _ICE_DUMMY_
  D:0080H         PUBLIC        P0
  D:0090H         PUBLIC        P1
  D:00A0H         PUBLIC        P2
  D:00B0H         PUBLIC        P3
  D:00C0H         PUBLIC        P4
  D:00C8H         PUBLIC        P5
  D:00E8H         PUBLIC        P6
  D:00F8H         PUBLIC        P7
  C:0A3BH         PUBLIC        Key_Read
  D:00A8H         PUBLIC        IE
  D:00B8H         PUBLIC        IP
  D:00D8H         PUBLIC        CCON
  B:00B0H.0       PUBLIC        P30
  D:0098H         PUBLIC        SCON
BL51 BANKED LINKER/LOCATER V6.22.2.0                                                  05/18/2024  17:59:17  PAGE 11


  B:00B0H.1       PUBLIC        P31
  D:0088H         PUBLIC        TCON
  B:00B0H.2       PUBLIC        P32
  B:00C0H.2       PUBLIC        P42
  B:00B0H.3       PUBLIC        P33
  B:00B0H.4       PUBLIC        P34
  B:00C0H.4       PUBLIC        P44
  B:00B0H.5       PUBLIC        P35
  D:00D0H         PUBLIC        PSW
  -------         PROC          KEY_READ
  -------         DO            
  D:0007H         SYMBOL        temp
  -------         ENDDO         
  C:0A3BH         LINE#         4
  C:0A3BH         LINE#         5
  C:0A3BH         LINE#         6
  C:0A3DH         LINE#         7
  C:0A45H         LINE#         8
  C:0A4AH         LINE#         9
  C:0A4FH         LINE#         10
  C:0A54H         LINE#         11
  C:0A59H         LINE#         12
  C:0A61H         LINE#         13
  C:0A66H         LINE#         14
  C:0A6BH         LINE#         15
  C:0A70H         LINE#         16
  C:0A75H         LINE#         17
  C:0A7DH         LINE#         18
  C:0A82H         LINE#         19
  C:0A87H         LINE#         20
  C:0A8CH         LINE#         21
  C:0A91H         LINE#         22
  C:0A99H         LINE#         23
  C:0A9EH         LINE#         24
  C:0AA3H         LINE#         25
  C:0AA8H         LINE#         26
  C:0AADH         LINE#         27
  C:0AADH         LINE#         28
  -------         ENDPROC       KEY_READ
  -------         ENDMOD        KEY

  -------         MODULE        SEG
  C:0000H         SYMBOL        _ICE_DUMMY_
  D:0080H         PUBLIC        P0
  D:0090H         PUBLIC        P1
  D:00A0H         PUBLIC        P2
  D:00B0H         PUBLIC        P3
  D:00C0H         PUBLIC        P4
  D:00C8H         PUBLIC        P5
  D:00E8H         PUBLIC        P6
  D:00F8H         PUBLIC        P7
  D:00A8H         PUBLIC        IE
  D:00B8H         PUBLIC        IP
  C:0AFFH         PUBLIC        _Seg_Show
  D:00D8H         PUBLIC        CCON
  D:0098H         PUBLIC        SCON
  D:0088H         PUBLIC        TCON
BL51 BANKED LINKER/LOCATER V6.22.2.0                                                  05/18/2024  17:59:17  PAGE 12


  C:0DB0H         PUBLIC        Seg_Table
  D:00D0H         PUBLIC        PSW
  -------         PROC          _SEG_SHOW
  D:0007H         SYMBOL        addr
  D:0004H         SYMBOL        Table
  D:0002H         SYMBOL        Point
  C:0AFFH         LINE#         31
  C:0AFFH         LINE#         32
  C:0AFFH         LINE#         33
  C:0B02H         LINE#         34
  C:0B0AH         LINE#         35
  C:0B0DH         LINE#         37
  C:0B1AH         LINE#         38
  C:0B22H         LINE#         39
  C:0B25H         LINE#         41
  C:0B33H         LINE#         42
  C:0B37H         LINE#         43
  C:0B3AH         LINE#         44
  C:0B42H         LINE#         45
  C:0B45H         LINE#         46
  -------         ENDPROC       _SEG_SHOW
  -------         ENDMOD        SEG

  -------         MODULE        LED
  C:0000H         SYMBOL        _ICE_DUMMY_
  D:0080H         PUBLIC        P0
  D:0090H         PUBLIC        P1
  D:00A0H         PUBLIC        P2
  D:00B0H         PUBLIC        P3
  D:00C0H         PUBLIC        P4
  D:00C8H         PUBLIC        P5
  D:00E8H         PUBLIC        P6
  D:00F8H         PUBLIC        P7
  D:00A8H         PUBLIC        IE
  D:00B8H         PUBLIC        IP
  D:00D8H         PUBLIC        CCON
  D:0098H         PUBLIC        SCON
  D:0088H         PUBLIC        TCON
  C:0C0CH         PUBLIC        _LED_Show
  D:00D0H         PUBLIC        PSW
  -------         PROC          _LED_SHOW
  D:0007H         SYMBOL        addr
  D:0004H         SYMBOL        enable
  -------         DO            
  D:000CH         SYMBOL        temp_new
  D:000DH         SYMBOL        temp_old
  -------         ENDDO         
  C:0C0CH         LINE#         4
  C:0C0CH         LINE#         5
  C:0C0CH         LINE#         9
  C:0C10H         LINE#         10
  C:0C1FH         LINE#         12
  C:0C2DH         LINE#         14
  C:0C33H         LINE#         15
  C:0C33H         LINE#         16
  C:0C38H         LINE#         17
  C:0C40H         LINE#         18
BL51 BANKED LINKER/LOCATER V6.22.2.0                                                  05/18/2024  17:59:17  PAGE 13


  C:0C43H         LINE#         19
  C:0C46H         LINE#         20
  C:0C46H         LINE#         21
  -------         ENDPROC       _LED_SHOW
  -------         ENDMOD        LED

  -------         MODULE        UWAVE
  C:0000H         SYMBOL        _ICE_DUMMY_
  D:0080H         PUBLIC        P0
  D:0090H         PUBLIC        P1
  C:0D7CH         PUBLIC        Uwave_Init
  D:00A0H         PUBLIC        P2
  D:00B0H         PUBLIC        P3
  D:00C0H         PUBLIC        P4
  D:00C8H         PUBLIC        P5
  D:00E8H         PUBLIC        P6
  D:00F8H         PUBLIC        P7
  B:00D8H.7       PUBLIC        CF
  D:00F9H         PUBLIC        CH
  C:0C47H         PUBLIC        Uwave_Read_D
  D:00A8H         PUBLIC        IE
  D:00E9H         PUBLIC        CL
  B:00D8H.6       PUBLIC        CR
  D:00B8H         PUBLIC        IP
  D:00D9H         PUBLIC        CMOD
  D:00D8H         PUBLIC        CCON
  D:0098H         PUBLIC        SCON
  D:0088H         PUBLIC        TCON
  C:0E20H         PUBLIC        Delay12us
  B:0090H.1       PUBLIC        Rx
  B:0090H.0       PUBLIC        Tx
  D:00D0H         PUBLIC        PSW
  -------         PROC          DELAY12US
  -------         DO            
  D:0007H         SYMBOL        i
  -------         ENDDO         
  C:0E20H         LINE#         8
  C:0E20H         LINE#         9
  C:0E20H         LINE#         12
  C:0E21H         LINE#         13
  C:0E22H         LINE#         14
  C:0E24H         LINE#         15
  C:0E26H         LINE#         16
  -------         ENDPROC       DELAY12US
  -------         PROC          UWAVE_INIT
  -------         DO            
  D:0006H         SYMBOL        i
  -------         ENDDO         
  C:0D7CH         LINE#         18
  C:0D7CH         LINE#         19
  C:0D7CH         LINE#         20
  C:0D7EH         LINE#         21
  C:0D88H         LINE#         22
  C:0D88H         LINE#         23
  C:0D8AH         LINE#         24
  C:0D8DH         LINE#         25
  C:0D8FH         LINE#         26
BL51 BANKED LINKER/LOCATER V6.22.2.0                                                  05/18/2024  17:59:17  PAGE 14


  C:0D92H         LINE#         27
  C:0D95H         LINE#         28
  -------         ENDPROC       UWAVE_INIT
  -------         PROC          UWAVE_READ_D
  -------         DO            
  D:0004H         SYMBOL        time
  -------         ENDDO         
  C:0C47H         LINE#         30
  C:0C47H         LINE#         31
  C:0C47H         LINE#         32
  C:0C4AH         LINE#         33
  C:0C4CH         LINE#         34
  C:0C50H         LINE#         35
  C:0C53H         LINE#         36
  C:0C55H         LINE#         37
  C:0C5BH         LINE#         38
  C:0C5DH         LINE#         40
  C:0C60H         LINE#         41
  C:0C60H         LINE#         42
  C:0C62H         LINE#         43
  C:0C65H         LINE#         44
  C:0C65H         LINE#         46
  C:0C65H         LINE#         47
  C:0C6CH         LINE#         48
  C:0C81H         LINE#         49
  C:0C81H         LINE#         50
  -------         ENDPROC       UWAVE_READ_D
  -------         ENDMOD        UWAVE

  -------         MODULE        DS1302
  C:0000H         SYMBOL        _ICE_DUMMY_
  D:0080H         PUBLIC        P0
  D:0090H         PUBLIC        P1
  D:00A0H         PUBLIC        P2
  D:00B0H         PUBLIC        P3
  D:00C0H         PUBLIC        P4
  D:00C8H         PUBLIC        P5
  D:00E8H         PUBLIC        P6
  D:00F8H         PUBLIC        P7
  D:00A8H         PUBLIC        IE
  D:00B8H         PUBLIC        IP
  D:00D8H         PUBLIC        CCON
  D:0098H         PUBLIC        SCON
  D:0088H         PUBLIC        TCON
  C:0BCFH         PUBLIC        _DS1302_Read_Rtc
  C:0B50H         PUBLIC        _Read_Ds1302_Byte
  B:00A0H.3       PUBLIC        SDA
  C:0AAEH         PUBLIC        _DS1302_Write_Rtc
  B:0090H.7       PUBLIC        SCK
  C:0DF1H         PUBLIC        _Write_Ds1302_Byte
  C:0D60H         PUBLIC        _Write_Ds1302
  B:0090H.3       PUBLIC        RST
  D:00D0H         PUBLIC        PSW
  -------         PROC          _WRITE_DS1302
  D:0007H         SYMBOL        temp
  -------         DO            
  D:0006H         SYMBOL        i
BL51 BANKED LINKER/LOCATER V6.22.2.0                                                  05/18/2024  17:59:17  PAGE 15


  -------         ENDDO         
  C:0D60H         LINE#         15
  C:0D60H         LINE#         16
  C:0D60H         LINE#         18
  C:0D6CH         LINE#         19
  C:0D6CH         LINE#         20
  C:0D6EH         LINE#         21
  C:0D72H         LINE#         22
  C:0D76H         LINE#         23
  C:0D78H         LINE#         24
  C:0D7BH         LINE#         25
  -------         ENDPROC       _WRITE_DS1302
  -------         PROC          _WRITE_DS1302_BYTE
  D:0007H         SYMBOL        address
  D:0005H         SYMBOL        dat
  C:0DF1H         LINE#         28
  C:0DF1H         LINE#         29
  C:0DF1H         LINE#         30
  C:0DF4H         LINE#         31
  C:0DF7H         LINE#         32
  C:0DFAH         LINE#         33
  C:0DFDH         LINE#         34
  C:0E02H         LINE#         35
  C:0E04H         LINE#         36
  -------         ENDPROC       _WRITE_DS1302_BYTE
  -------         PROC          L?0019
  -------         ENDPROC       L?0019
  -------         PROC          _READ_DS1302_BYTE
  D:0007H         SYMBOL        address
  -------         DO            
  D:0007H         SYMBOL        i
  D:0005H         SYMBOL        temp
  -------         ENDDO         
  C:0B50H         LINE#         39
  C:0B50H         LINE#         40
  C:0B50H         LINE#         41
  C:0B52H         LINE#         42
  C:0B55H         LINE#         43
  C:0B58H         LINE#         44
  C:0B5BH         LINE#         45
  C:0B5EH         LINE#         46
  C:0B6AH         LINE#         47
  C:0B6AH         LINE#         48
  C:0B6CH         LINE#         49
  C:0B70H         LINE#         50
  C:0B73H         LINE#         51
  C:0B76H         LINE#         52
  C:0B78H         LINE#         53
  C:0B7BH         LINE#         54
  C:0B7EH         LINE#         55
  C:0B81H         LINE#         56
  C:0B84H         LINE#         57
  C:0B87H         LINE#         58
  C:0B8AH         LINE#         59
  C:0B8CH         LINE#         60
  -------         ENDPROC       _READ_DS1302_BYTE
  -------         PROC          _DS1302_WRITE_RTC
BL51 BANKED LINKER/LOCATER V6.22.2.0                                                  05/18/2024  17:59:17  PAGE 16


  D:0008H         SYMBOL        pRtc
  -------         DO            
  D:0004H         SYMBOL        i
  D:0003H         SYMBOL        temp
  -------         ENDDO         
  C:0AAEH         LINE#         62
  C:0AB4H         LINE#         63
  C:0AB4H         LINE#         64
  C:0AB6H         LINE#         65
  C:0AB7H         LINE#         66
  C:0ABDH         LINE#         67
  C:0AC7H         LINE#         68
  C:0AC7H         LINE#         69
  C:0AE7H         LINE#         70
  C:0AF5H         LINE#         71
  C:0AF8H         LINE#         72
  -------         ENDPROC       _DS1302_WRITE_RTC
  -------         PROC          _DS1302_READ_RTC
  D:0008H         SYMBOL        pRtc
  -------         DO            
  D:000BH         SYMBOL        i
  -------         ENDDO         
  C:0BCFH         LINE#         75
  C:0BD5H         LINE#         76
  C:0BD5H         LINE#         77
  C:0BD8H         LINE#         78
  C:0BE5H         LINE#         79
  C:0BE5H         LINE#         80
  C:0C07H         LINE#         81
  C:0C0BH         LINE#         82
  -------         ENDPROC       _DS1302_READ_RTC
  -------         ENDMOD        DS1302

  -------         MODULE        IIC
  C:0000H         SYMBOL        _ICE_DUMMY_
  D:0080H         PUBLIC        P0
  D:0090H         PUBLIC        P1
  D:00A0H         PUBLIC        P2
  D:00B0H         PUBLIC        P3
  D:00C0H         PUBLIC        P4
  D:00C8H         PUBLIC        P5
  D:00E8H         PUBLIC        P6
  D:00F8H         PUBLIC        P7
  D:00A8H         PUBLIC        IE
  C:0D9AH         SYMBOL        _I2C_Delay
  D:00B8H         PUBLIC        IP
  C:0CDEH         PUBLIC        I2CReceiveByte
  D:00D8H         PUBLIC        CCON
  D:0098H         PUBLIC        SCON
  D:0088H         PUBLIC        TCON
  B:00A0H.1       PUBLIC        sda
  B:00A0H.0       PUBLIC        scl
  C:0E05H         PUBLIC        I2CStart
  C:0003H         PUBLIC        _I2CSendAck
  C:0C82H         PUBLIC        _I2CSendByte
  C:0CB7H         PUBLIC        _AD_Read
  C:0D4EH         PUBLIC        I2CWaitAck
BL51 BANKED LINKER/LOCATER V6.22.2.0                                                  05/18/2024  17:59:17  PAGE 17


  C:0E14H         PUBLIC        I2CStop
  C:0DDCH         PUBLIC        _DA_Write
  D:00D0H         PUBLIC        PSW
  C:0D96H         SYMBOL        L?0024
  -------         PROC          L?0023
  -------         ENDPROC       L?0023
  C:0D96H         SYMBOL        L?0024
  -------         PROC          _I2C_DELAY
  D:0007H         SYMBOL        n
  C:0D9AH         LINE#         16
  C:0D9AH         LINE#         17
  C:0D9AH         LINE#         19
  C:0D9AH         LINE#         20
  C:0D9FH         LINE#         21
  C:0DA4H         LINE#         22
  C:0DA9H         LINE#         23
  C:0DA9H         LINE#         24
  C:0DAFH         LINE#         25
  -------         ENDPROC       _I2C_DELAY
  -------         PROC          I2CSTART
  C:0E05H         LINE#         28
  C:0E05H         LINE#         29
  C:0E05H         LINE#         30
  C:0E07H         LINE#         31
  C:0E07H         LINE#         32
  C:0E0AH         LINE#         33
  C:0E0CH         LINE#         34
  C:0E11H         LINE#         35
  C:0E13H         LINE#         36
  -------         ENDPROC       I2CSTART
  -------         PROC          I2CSTOP
  C:0E14H         LINE#         39
  C:0E14H         LINE#         40
  C:0E14H         LINE#         41
  C:0E16H         LINE#         42
  C:0E16H         LINE#         43
  C:0E19H         LINE#         44
  C:0E1BH         LINE#         45
  -------         ENDPROC       I2CSTOP
  -------         PROC          _I2CSENDBYTE
  D:0005H         SYMBOL        byt
  -------         DO            
  D:0004H         SYMBOL        i
  -------         ENDDO         
  C:0C82H         LINE#         49
  C:0C84H         LINE#         50
  C:0C84H         LINE#         53
  C:0C90H         LINE#         54
  C:0C92H         LINE#         55
  C:0C97H         LINE#         56
  C:0C9BH         LINE#         57
  C:0C9DH         LINE#         58
  C:0C9FH         LINE#         59
  C:0C9FH         LINE#         60
  C:0CA1H         LINE#         61
  C:0CA1H         LINE#         62
  C:0CA6H         LINE#         63
BL51 BANKED LINKER/LOCATER V6.22.2.0                                                  05/18/2024  17:59:17  PAGE 18


  C:0CA8H         LINE#         64
  C:0CACH         LINE#         65
  C:0CB1H         LINE#         66
  C:0CB4H         LINE#         68
  C:0CB6H         LINE#         69
  -------         ENDPROC       _I2CSENDBYTE
  -------         PROC          I2CRECEIVEBYTE
  -------         DO            
  D:0005H         SYMBOL        da
  D:0004H         SYMBOL        i
  -------         ENDDO         
  C:0CDEH         LINE#         71
  C:0CDEH         LINE#         72
  C:0CDEH         LINE#         75
  C:0CEAH         LINE#         76
  C:0CEAH         LINE#         77
  C:0CEDH         LINE#         78
  C:0CF1H         LINE#         79
  C:0CF4H         LINE#         80
  C:0CF7H         LINE#         81
  C:0CF9H         LINE#         82
  C:0CFEH         LINE#         83
  C:0D01H         LINE#         84
  C:0D03H         LINE#         85
  -------         ENDPROC       I2CRECEIVEBYTE
  -------         PROC          L?0022
  -------         ENDPROC       L?0022
  -------         PROC          I2CWAITACK
  -------         DO            
  D:0005H         SYMBOL        ackbit
  -------         ENDDO         
  C:0D4EH         LINE#         88
  C:0D4EH         LINE#         89
  C:0D4EH         LINE#         92
  C:0D4EH         LINE#         93
  C:0D51H         LINE#         94
  C:0D56H         LINE#         95
  C:0D58H         LINE#         96
  C:0D5DH         LINE#         98
  C:0D5FH         LINE#         99
  -------         ENDPROC       I2CWAITACK
  -------         PROC          _I2CSENDACK
  D:0007H         SYMBOL        ackbit
  C:0003H         LINE#         102
  C:0003H         LINE#         103
  C:0003H         LINE#         104
  C:0005H         LINE#         105
  C:000AH         LINE#         106
  C:000FH         LINE#         107
  C:000FH         LINE#         108
  C:0012H         LINE#         109
  C:0014H         LINE#         110
  C:0016H         LINE#         111
  -------         ENDPROC       _I2CSENDACK
  -------         PROC          _DA_WRITE
  D:0003H         SYMBOL        dat
  C:0DDCH         LINE#         114
BL51 BANKED LINKER/LOCATER V6.22.2.0                                                  05/18/2024  17:59:17  PAGE 19


  C:0DDEH         LINE#         115
  C:0DDEH         LINE#         116
  C:0DE1H         LINE#         117
  C:0DE6H         LINE#         118
  C:0DE9H         LINE#         119
  C:0DEBH         LINE#         120
  C:0DEBH         LINE#         121
  C:0DEBH         LINE#         122
  C:0DEEH         LINE#         123
  -------         ENDPROC       _DA_WRITE
  -------         PROC          _AD_READ
  D:0003H         SYMBOL        addr
  -------         DO            
  D:0005H         SYMBOL        temp
  -------         ENDDO         
  C:0CB7H         LINE#         125
  C:0CB9H         LINE#         126
  C:0CB9H         LINE#         127
  C:0CBBH         LINE#         128
  C:0CBEH         LINE#         129
  C:0CC0H         LINE#         130
  C:0CC0H         LINE#         131
  C:0CC0H         LINE#         132
  C:0CC3H         LINE#         134
  C:0CC6H         LINE#         135
  C:0CCBH         LINE#         136
  C:0CCEH         LINE#         137
  C:0CD3H         LINE#         138
  C:0CD8H         LINE#         139
  C:0CDBH         LINE#         140
  C:0CDDH         LINE#         141
  -------         ENDPROC       _AD_READ
  -------         ENDMOD        IIC

  -------         MODULE        ?C?FPADD
  C:0025H         PUBLIC        ?C?FPADD
  C:0021H         PUBLIC        ?C?FPSUB
  -------         ENDMOD        ?C?FPADD

  -------         MODULE        ?C?FPMUL
  C:0116H         PUBLIC        ?C?FPMUL
  -------         ENDMOD        ?C?FPMUL

  -------         MODULE        ?C?FPDIV
  C:021FH         PUBLIC        ?C?FPDIV
  -------         ENDMOD        ?C?FPDIV

  -------         MODULE        ?C?FCAST
  C:02C6H         PUBLIC        ?C?FCASTC
  C:02C1H         PUBLIC        ?C?FCASTI
  C:02BCH         PUBLIC        ?C?FCASTL
  -------         ENDMOD        ?C?FCAST

  -------         MODULE        ?C?CASTF
  C:02FAH         PUBLIC        ?C?CASTF
  -------         ENDMOD        ?C?CASTF

BL51 BANKED LINKER/LOCATER V6.22.2.0                                                  05/18/2024  17:59:17  PAGE 20


  -------         MODULE        ?C?CLDOPTR
  C:037BH         PUBLIC        ?C?CLDOPTR
  -------         ENDMOD        ?C?CLDOPTR

  -------         MODULE        ?C?CSTOPTR
  C:03A8H         PUBLIC        ?C?CSTOPTR
  -------         ENDMOD        ?C?CSTOPTR

  -------         MODULE        ?C?IMUL
  C:03CAH         PUBLIC        ?C?IMUL
  -------         ENDMOD        ?C?IMUL

  -------         MODULE        ?C?UIDIV
  C:03DCH         PUBLIC        ?C?UIDIV
  -------         ENDMOD        ?C?UIDIV

  -------         MODULE        ?C?LNEG
  C:0431H         PUBLIC        ?C?LNEG
  -------         ENDMOD        ?C?LNEG

Program Size: data=79.0 xdata=0 code=3623
LINK/LOCATE RUN COMPLETE.  0 WARNING(S),  0 ERROR(S)
