BL51 BANKED LINKER/LOCATER V6.22.2.0                                                    01/19/2024  22:37:17  PAGE 1


BL51 BANKED LINKER/LOCATER V6.22.2.0, INVOKED BY:
D:\KEIL 5\C51\BIN\BL51.EXE .\Objects\STARTUP.obj, .\Objects\main.obj TO .\Objects\Project PRINT (.\Listings\Project.m51)
>>  RAMSIZE (256)


MEMORY MODEL: SMALL


INPUT MODULES INCLUDED:
  .\Objects\STARTUP.obj (?C_STARTUP)
  .\Objects\main.obj (MAIN)


LINK MAP OF MODULE:  .\Objects\Project (?C_STARTUP)


            TYPE    BASE      LENGTH    RELOCATION   SEGMENT NAME
            -----------------------------------------------------

            * * * * * * *   D A T A   M E M O R Y   * * * * * * *
            REG     0000H     0008H     ABSOLUTE     "REG BANK 0"
            IDATA   0008H     0001H     UNIT         ?STACK

            * * * * * * *   C O D E   M E M O R Y   * * * * * * *
            CODE    0000H     0003H     ABSOLUTE     
            CODE    0003H     0041H     UNIT         ?PR?MAIN?MAIN
            CODE    0044H     002BH     UNIT         ?PR?_SELECT_LATCH?MAIN
            CODE    006FH     0017H     UNIT         ?PR?GET_KEYNUM?MAIN
            CODE    0086H     000CH     UNIT         ?C_C51STARTUP



OVERLAY MAP OF MODULE:   .\Objects\Project (?C_STARTUP)


SEGMENT
  +--> CALLED SEGMENT
---------------------
?C_C51STARTUP
  +--> ?PR?MAIN?MAIN

?PR?MAIN?MAIN
  +--> ?PR?_SELECT_LATCH?MAIN
  +--> ?PR?GET_KEYNUM?MAIN



SYMBOL TABLE OF MODULE:  .\Objects\Project (?C_STARTUP)

  VALUE           TYPE          NAME
  ----------------------------------

  -------         MODULE        ?C_STARTUP
  C:0086H         SEGMENT       ?C_C51STARTUP
  I:0008H         SEGMENT       ?STACK
  C:0000H         PUBLIC        ?C_STARTUP
  D:00E0H         SYMBOL        ACC
  D:00F0H         SYMBOL        B
BL51 BANKED LINKER/LOCATER V6.22.2.0                                                  01/19/2024  22:37:17  PAGE 2


  D:0083H         SYMBOL        DPH
  D:0082H         SYMBOL        DPL
  N:0000H         SYMBOL        IBPSTACK
  N:0100H         SYMBOL        IBPSTACKTOP
  N:0080H         SYMBOL        IDATALEN
  C:0089H         SYMBOL        IDATALOOP
  N:0000H         SYMBOL        PBPSTACK
  N:0100H         SYMBOL        PBPSTACKTOP
  N:0000H         SYMBOL        PDATALEN
  N:0000H         SYMBOL        PDATASTART
  N:0000H         SYMBOL        PPAGE
  N:0000H         SYMBOL        PPAGEENABLE
  D:00A0H         SYMBOL        PPAGE_SFR
  D:0081H         SYMBOL        SP
  C:0086H         SYMBOL        STARTUP1
  N:0000H         SYMBOL        XBPSTACK
  N:0000H         SYMBOL        XBPSTACKTOP
  N:0000H         SYMBOL        XDATALEN
  N:0000H         SYMBOL        XDATASTART
  C:0000H         LINE#         126
  C:0086H         LINE#         133
  C:0088H         LINE#         134
  C:0089H         LINE#         135
  C:008AH         LINE#         136
  C:008CH         LINE#         185
  C:008FH         LINE#         196
  -------         ENDMOD        ?C_STARTUP

  -------         MODULE        MAIN
  C:0000H         SYMBOL        _ICE_DUMMY_
  D:0080H         PUBLIC        P0
  D:0090H         PUBLIC        P1
  D:00A0H         PUBLIC        P2
  D:00B0H         PUBLIC        P3
  D:00C0H         PUBLIC        P4
  D:00C8H         PUBLIC        P5
  D:00E8H         PUBLIC        P6
  D:00F8H         PUBLIC        P7
  D:00A8H         PUBLIC        IE
  D:00B8H         PUBLIC        IP
  D:00D8H         PUBLIC        CCON
  C:0003H         PUBLIC        main
  C:0044H         PUBLIC        _Select_Latch
  B:00B0H.0       PUBLIC        P30
  B:0080H.3       PUBLIC        P03
  D:0098H         PUBLIC        SCON
  B:00B0H.1       PUBLIC        P31
  B:0080H.4       PUBLIC        P04
  D:0088H         PUBLIC        TCON
  B:00B0H.2       PUBLIC        P32
  B:0080H.5       PUBLIC        P05
  B:00B0H.3       PUBLIC        P33
  B:0080H.6       PUBLIC        P06
  C:006FH         PUBLIC        Get_KeyNum
  D:00D0H         PUBLIC        PSW
  -------         PROC          _SELECT_LATCH
  D:0007H         SYMBOL        Latch_Num
BL51 BANKED LINKER/LOCATER V6.22.2.0                                                  01/19/2024  22:37:17  PAGE 3


  C:0044H         LINE#         5
  C:0044H         LINE#         6
  C:0044H         LINE#         7
  C:0053H         LINE#         8
  C:0053H         LINE#         9
  C:005AH         LINE#         10
  C:0061H         LINE#         11
  C:0068H         LINE#         12
  C:006EH         LINE#         13
  C:006EH         LINE#         14
  -------         ENDPROC       _SELECT_LATCH
  -------         PROC          GET_KEYNUM
  -------         DO            
  D:0007H         SYMBOL        Key_Temp
  -------         ENDDO         
  C:006FH         LINE#         16
  C:006FH         LINE#         17
  C:006FH         LINE#         18
  C:0071H         LINE#         20
  C:0076H         LINE#         21
  C:007BH         LINE#         22
  C:0080H         LINE#         23
  C:0085H         LINE#         25
  C:0085H         LINE#         26
  -------         ENDPROC       GET_KEYNUM
  -------         PROC          MAIN
  -------         DO            
  D:0006H         SYMBOL        KeyNum
  -------         ENDDO         
  C:0003H         LINE#         28
  C:0003H         LINE#         29
  C:0003H         LINE#         30
  C:0005H         LINE#         32
  C:0008H         LINE#         33
  C:000DH         LINE#         35
  C:000DH         LINE#         36
  C:000DH         LINE#         37
  C:0012H         LINE#         38
  C:001EH         LINE#         39
  C:002AH         LINE#         40
  C:0036H         LINE#         41
  C:0042H         LINE#         42
  -------         ENDPROC       MAIN
  -------         ENDMOD        MAIN

Program Size: data=9.0 xdata=0 code=146
LINK/LOCATE RUN COMPLETE.  0 WARNING(S),  0 ERROR(S)
