:10100300CAB1BCE4A3BA2532642D2532642D25323E
:10101300640D0A00CEC2B6C8A3BA252E3166B6C87F
:101023000D0A00B5E7D1B9A3BA252E3266B7FC0D78
:101033000A00C6B5C2CAA3BA2575BAD5D7C80D0A60
:1010430000BEE0C0EBA3BA2564C0E5C3D70D0A0018
:101053004F4B212121202563203D2025630D0A00CC
:101063004545524F52212121202563203D202563F0
:101073000D0A004545524F522121212025730D0AA7
:10108300004F4B0D0A004552524F520D0A00454581
:10109300524F5221212120556172745F52785F496A
:0C10A3006E646578203D2025750D0A0064
:1014590008620A0A0A0A0A0A0A0A085A0000000067
:1014690000000000087E00000000000000000347A3
:0F147900173B38013F00014000014100014200D4
:100F1B00300A03021002D20A1212858F3FE53F6599
:100F2B0040FFE53FF45FF541E53F5FF542853F400C
:100F3B0024FB601B1460341460492403600302100B
:100F4B00020544E54464056003021002F54422E502
:100F5B00446003021002FB7A007947F528752903D8
:100F6B00FDFC12150BD20DE4F55022E54460030293
:100F7B00100275471775483B754938FB7A0079475E
:100F8B000212E3200B71E5441460271460381460DF
:100F9B00491460542404705F7BFF7A107903752623
:100FAB0000854727752800854829752A0085492B18
:100FBB0080427BFF7A1079178558298557288556EB
:100FCB0027855526802E7BFF7A1079268554298517
:100FDB005328855227855126801A7BFF7A10793545
:100FEB00854526854627800C7BFF7A10794475262C
:070FFB0000854C271206A43B
:0110020022CB
:100AB100300903020CC1D209E544146055147003D6
:100AC100020B68147003020BE1147003020C7A2408
:100AD100046003020CC1E4785FF608F6E54775F09F
:100AE1000A847862F6E54775F00A8408A6F008766C
:100AF1000BE54875F00A8408F6E54875F00A8408A4
:100B0100A6F008760BE54975F00A8408F6E5490276
:100B11000CBAE4785FF60876017862760E755901B1
:100B2100C3E559940574809480500B74622559F87B
:100B3100760A055980EAAF58AE57AD56AC55120248
:100B41000AEF75F00A8475F00A847867A6F0EF75EC
:100B5100F00A8408A6F0E4FFFE7D207C41AB58AA90
:100B610057A956A8558067E47860F618760175593B
:100B710001C3E559940574809480500B7462255922
:100B8100F8760A055980EA78627612AF54AE53AD11
:100B910052AC5112020AEF75F00A847867A6F0E4AC
:100BA100FFFE7D207C41AB54AA53A952A8511200EB
:100BB1002612020A7C007D0A12057D7868A605E4EA
:100BC100FFFE7DC87C42AB54AA53A952A851120022
:100BD1002612020A7C007D0A12057D7869A605228B
:100BE100E4785FF608F6786276117864760A18760A
:100BF1000AAE45AF467C277D1012057D7C007D0A3B
:100C010012057D7865A605AE45AF467C037DE812E9
:100C1100057D7C007D0A12057D7866A605AE45AF8F
:100C2100467C007D6412057D7C007D0A12057D787D
:100C310067A605AE45AF467C007D0A12057D7C00A6
:100C41007D0A12057D7868A605AE45AF467C007D1C
:100C51000A12057D7869A605755903C3E5599407FC
:100C610074809480505A74622559F8E67052746207
:100C71002559F8760A055980E2E4785FF608F67896
:100C810062760F755901C3E55994057480948050BB
:100C91000B74622559F8760A055980EAE54C75F01E
:100CA100648475F00A847867A6F0E54C75F00A84CF
:100CB10075F00A8408A6F0E54C75F00A8408A6F0E0
:010CC1002210
:1015AC00200C26D20CE4F559C3E5599405748094AB
:1015BC00805016E559B544047F0180027F00747E8B
:0A15CC002559F8A607055980DF2213
:10113B00E4FFFE7D4C7C42AB54AA53A952A851123A
:10114B00002612020A1217B5A20DE433FF121695F0
:10115B00D3E54C94327480948040047F0180027FED
:10116B00001216B8200E38D20E7B007A0079471287
:10117B0014181215788F588E578D568C557F431235
:10118B001670AC07E41201D6E4FBFA794C784212E4
:10119B00012F8F548E538D528C511214D08F4C22A1
:100CC200E54F7003020E26D3E543940A74809480A4
:100CD2005003020E26C20BE4F543E54F24EF7003E6
:100CE200020D7624086003020E05786AE6644C70F1
:100CF2007108E66445706B08E664447065786EE6D8
:100D02006420705E08E6643D705808E66420705204
:100D12007872E6643B704B786DE6FFC39436402FE1
:100D2200EFD3943850297871E6FF64316004EFB450
:100D3200301D7871E6FF24D0FE786DE6FD244DF873
:100D4200A6067BFF7A1079538D268F27020E117B20
:100D5200FF7A107963786DE6F5267871E6F5270259
:100D62000E1175260075270075286A7BFF7A1079A7
:100D720076020E11786AE664536003020DFD08E6FE
:100D82006465707708E66467707108E6645F706B8B
:100D920008E66453706508E66468705F08E6646F8D
:100DA200705908E66477705308E6645F704D08E690
:100DB200644D704708E6646F704108E66464703BF6
:100DC20008E66465703508E66420702F08E6643D25
:100DD200702908E66420702308E6FFC394304013AC
:100DE200EFD39434500DEF24D0F5447BFF7A107981
:100DF20084801C7BFF7A10798980147BFF7A1079BA
:100E020089800C7BFF7A107991752600854F271215
:100E120006A4AF4F7E007D007B007A00796A12063D
:050E220016E4F54F226B
:1017DE00538E7F5389F0438905E4F58AF58CC28DCB
:0317EE00D28C2278
:1017A000538EBF53890F758B18758DFCC28FD28EE7
:0517B000D2AFD2AB2214
:03001B00020E27AB
:100E2700C0E0C0F0C083C082C0D075D000C000C091
:100E370001C002C003C004C005C006C007054EE5D7
:100E47004E7002054DFFAE4DBE010BBF9008C20E9E
:100E5700754D00754E00AE4DAF4E7C007D0A1205F4
:100E67007DED4C7002C20AAE4DAF4E7C007D141270
:100E7700057DED4C7002C20CAE4DAF4E7C007D641B
:100E870012057DED4C7002C209E54E5407FBFF24A5
:100E970062F8E6FD7C00745A2BF8E6FB7A00121321
:100EA7008AE54E5407FF247EF8E6FD7C0012149570
:100EB700300D0C0550E550644B7004F550C20D051C
:100EC7004BE54B7002054AFFAE4ABE0319BFE81651
:100ED700AF8CEFAD8AF545EDF546758C00758A0048
:100EE700754A00754B00300B100543D3E543940A50
:100EF70074809480400375430BD007D006D005D08B
:100F070004D003D002D001D000D0D0D082D083D07B
:040F1700F0D0E03204
:030023000211AB1C
:1011AB00C0E0C0F0C083C082C0D075D000C000C00A
:1011BB0001C002C003C004C005C006C007309811AF
:1011CB00C298754300D20BAF4F054F746A2FF8A628
:1011DB0099D3E54F94137480948040177E007F144D
:1011EB007D007B007A00796A120616754F00C20BE0
:1011FB00754300D007D006D005D004D003D002D061
:0E120B0001D000D0D0D082D083D0F0D0E0321D
:10121900E4F52212171C1217A01217DE12178912F1
:1012290015787B007A0079227528007529017D08D7
:101239007C00121340E52264347011FB7A0079476F
:10124900F528752903FDFC12134080167522347B9D
:10125900007A0079227528007529017D087C001221
:10126900150B7B007A0079471212E3120F1B120A41
:0C127900B11215AC120CC212113B80EF38
:030000000210AF3C
:0C10AF00787FE4F6D8FD7581850210F60C
:10171C00E4F580E5A0541F44A0F5A053A01F7580EC
:0D172C00FFE5A0541F4480F5A053A01F222C
:10128500E4FFC2ABD2B4C2B5D2C2D2C420B0027F91
:101295000F20B1027F0E20B2027F0D20B3027F0C1A
:1012A500D2B4D2B5C2C2D2C420B0027F0B20B102E3
:1012B5007F0A20B2027F0920B3027F08D2B4D2B5DB
:1012C500D2C2C2C420B0027F0720B1027F0620B27D
:0D12D500027F0520B3027F0475B0FFD2AB8D
:0112E20022E9
:1017F100C0F9A4B0999282F88090FFBF8883C6A1F6
:03180100868EC10F
:10138A007580FFE5A0541F44E0F5A053A01FA807ED
:10139A007401088002C333D8FCF580E5A0541F44C9
:1013AA00C0F5A053A01F74F12DF58274173CF58384
:1013BA00E493F580EB4A600353807FE5A0541F4411
:0713CA00E0F5A053A01F2273
:0C1488000108000109FF010B00010AFF30
:10149500ED4C600FA8077401088002C333D8FC42E5
:1014A50008800EA8077401088002C333D8FCF452E3
:1014B50008E50865096013E508F4F580E5A0541F03
:0A14C5004480F5A053A01F8508091C
:0114CF0022FA
:10169500EF6005430B408003530BBFE50B650A6004
:1016A50011850B80E5A0541F44A0F5A053A01F850C
:0316B5000B0A22FB
:1016B800EF6005430B108003530BEFE50B650A60E1
:1016C80011850B80E5A0541F44A0F5A053A01F85E9
:0316D8000B0A22D8
:10178900759850438E01538EFB75D7E675D6FF4386
:071799008E10D2AFD2AC228A
:08181F008F993099FDC2992256
:0416FE007F057E00E6
:10170200EF1FAA0670011E4A600FE4FDEDC3940CA0
:091712007480948050EA0D80F30C
:01171B0022AB
:0215D600A90763
:1015D800E4FBEBC39408748094805012C294E9131E
:1015E80092941216FED294E9C313F90B80E47F0596
:0515F8007E0002170255
:1016DB00E4FBEBC39408748094805014C294ECC365
:1016EB0013FCD2943094034304801216FE0B80E259
:0216FB00AF043A
:0116FD0022CA
:1015FD00C200D2947F0C7E00121702C2947F507EDF
:10160D0000121702D2947F0A7E00121702A2949242
:06161D00001216FEA200FF
:0116230022A4
:101578001215FD7FCC1215D67F441215D61215FD13
:101588007FCC1215D67FBE1215D61216DBA907120C
:1015980016DBEFAD01FCEC1201D1E4FBFA7980789F
:0415A8004102012FCC
:04175500D2A07F059A
:10175900000000000000000000000000000000AED2
:06176900071FEE70EB22E9
:0F180400D2A1121755C2A17F05121759C2A022F7
:0C181300C2A1121755D2A17F050217597F
:02154300AD07F2
:10154500E4FCECC39408748094805024C2A07F0509
:10155500121759ED30E704D2A18002C2A17F05120E
:101565001759D2A0ED25E0FD7F051217590C80D241
:02157500C2A012
:011577002251
:10162400E4FCECC39408748094805017121755EDB1
:1016340025E0FD30A103430501C2A07F051217591F
:051644000C80DFAF0582
:01164900227E
:10164A00AB05AA041218047FA012154312165EAF46
:04165A00031215431F
:10165E00121755A2A1E433FDC2A07F05121759AF90
:01166E000576
:01166F002258
:10000300C2A0EF24FF92A17F05121759121755C200
:08001300A0D2A17F05021759DC
:02167000AB07C6
:101672001218047F901216531218047F9112154308
:1016820012165E121624AD077F0112000312181300
:02169200AF05A2
:011694002233
:1017B500AB071218047F9012154312165E7F411273
:0517C500165302181389
:10150B008B238A24892512164AE5291529AE2870C2
:10151B000215284E601FAB230525E525AA24700272
:10152B00052414F9120525FF12154312165E7FC808
:08153B0012175980D4021813A5
:101340008B238A24892512164A1218047FA11215AC
:101350004312165EE5291529AE28700215284E6045
:1013600026121624AB230525E525AA2470020524A0
:1013700014F9EF12056BE52945286004E4FF8002AB
:0A1380007F0112000380CD02181354
:0618270000007F21DFFE3E
:01182D002298
:10176F00E4FEEEC3940874809480500DD29012184A
:09177F0027C2901218270E80E920
:01178800223E
:1014D000E4FDFCF5D9F5E9F5F912176FD2DE30918C
:1014E0000330DFFAC2DE30DF05C2DF7F0022AFF952
:1014F000EFADE9FCEDAE04FFE41201D17B967A4337
:0A150000798B783C12002612020AD3
:01150A0022BE
:10173900E4FEEEC3940874809480500FC297EF13AF
:0B17490092A3EFC313FFD2970E80E7BE
:011754002272
:1017CA00C29300C29700D29300121739AF051217BD
:0417DA0039C293225B
:0A13D100E52625E0FFC374859FFFA9
:1013DB00E4FDC29300C29700D29300121739E4FFC9
:1013EB00EFC39408748094805011C297EDC313FD22
:1013FB0030A303430580D2970F80E5C29300C297B9
:0C140B0000D29700C2A300D2A300AF05DE
:0114170022B2
:0612E3008B238A248925FB
:1012E900E4FCFD7F8E1217CAECC3940374809480CA
:1012F900503EAB23AA24A925120525FF75F00A84BF
:10130900C454F0FEEF75F00A84E5F04E12056BEC5B
:1013190025E0FFC374849FFFAB230525E525AA2497
:101329007002052414F9120525FD1217CA0C80B89C
:071339007D807F8E0217CAC0
:061418008B238A248925C4
:10141E00E4F526F526C3E526940374809480502ABD
:10142E001213D1EFC4540F75F00AA4FC1213D1EFAE
:10143E00540F2CFFAB230525E525AA2470020524A5
:0A144E0014F9EF12056B052680CBA0
:011458002271
:10002600EC4D6011E8497017ED33EC3304600DE4D4
:10003600FCFFFEFD22E933E8330470F80202761273
:10004600024158046009E4CC248150062850090274
:10005600028028400302027DC0E0EB4A7044B9806A
:1000660006D0E0FB02026CEF4E701CBD8008EBFF71
:10007600EAFEE9FD80EBE98DF0A4FEE5F002010F52
:10008600E9CDF9EAFEEBFFEF89F0A4FCE5F0CE89B5
:10009600F0A42EFFE435F0CD89F0A42DFEE435F072
:1000A6008067EF4E7005BD80D780C3EF8BF0A4ACA0
:1000B600F0EE8BF0A42CFCE435F0F8EF8AF0A42CDB
:1000C600E5F038FCE433CB8DF0A42CFCE5F03BF8EE
:1000D600EE8AF0A42CFCE5F038F8E433CF89F0A4DE
:1000E6002CFCE5F038CF3400CE89F0A42FFFE5F0E4
:1000F6003EFEE433C98DF0A42EFEE5F039CD8AF03C
:10010600A42FFFE5F03EFEE43DFD33D0E0FB5007B3
:100116000BBB000F020280EC2CFCEF33FFEE33FE2C
:06012600ED33FD0202585A
:10012C00020280EC5D046005E8590470030202765B
:10013C00120241580460F6EC4860F2EC7004FDFECB
:10014C00FF22C860DB2481C85009C39860025006A6
:10015C0002027D9850CAF582E9294B4A7005AB82A0
:10016C0002026C75F0007C1A7880C3EF9BEE9AED5E
:10017C0099400DC3EF9BFFEE9AFEED99FDE842F01E
:10018C00DC23ACF0D0E0FFD0E0FED0E0FDAB822071
:10019C00E7101BEB60BAEC2CFCEF33FFEE33FEEDFB
:1001AC0033FD020258E803F830E705C0F075F000A3
:1001BC00EF2FFFEE33FEED33FD40B830E7C280AADF
:1001CC0075F020800E75F010800575F0087D007EAE
:1001DC00007F003392D530D5031205D2EC3340109A
:1001EC00EF33FFEE33FEED33FDEC33FCD5F0ED22B7
:0E01FC00E5F0247EA2D513CC92E7CDCEFF22F3
:10020A00EDD2E7CD33EC3392D524814006E4FFFEEC
:10021A00FDFC22FCE4CFCECDCC24E0501174FF804B
:10022A00EDC3CC13CCCD13CDCE13CECF13CF0470E8
:07023A00F030D5DE0205D211
:10064200E53A2426F8E6053A22782330070278268E
:10065200E475F0011205E00205252000EB7F2ED2A1
:10066200008018EF540F2490D43440D4FF30040B90
:10067200EF24BFB41A0050032461FFE53B6002156A
:100682003B053EE53E7002053D30070D7823E475DB
:10069200F0011205E0EF02056B02181F7403D20786
:1006A2008003E4C207F53A8B238A248925E4F53BCB
:1006B200F53DF53EE53B60077F2012067D80F5752E
:1006C2003CFFC201C200C202C203C205C206C20886
:1006D20012064BFF700D3007057F0012068EAF3EEB
:1006E200AE3D22B4255FC2D5C20412064BFF24D010
:1006F200B40A00501A75F00A783B30D50508B6FFE7
:100702000106C6A426F620D5047002D20380D9249D
:10071200CFB41A00EF5004C2E5D20402097BD20121
:1007220080C6D20080C0D20280BCD2D580BAD205A7
:1007320080B47F2012067D2002077401B53B004081
:10074200F1120642FF12067D0206B6D208D20680D8
:1007520095120642FB120642FA120642F94A4B7001
:100762000679727A0A7BFF20022EE53B602A7E0020
:100772008E8275830012053E60060EEE653C70F0B7
:10078200C2D5EBC0E0EAC0E0E9C0E0EE1209DBD07E
:10079200E0F9D0E0FAD0E0FB120525FF60AAEBC039
:1007A200E0EAC0E0E9C0E012067DD0E02401F9D021
:1007B200E03400FAD0E0FBE53C0460DCD53CD980B3
:1007C20087D20280A21209BE60F7E53C70010412D2
:1007D200028BA93C600DE53C600914F53C120A65E8
:1007E200EF60F3EA30E702F404C3995077EAF425A4
:1007F2003C0430E701E404F53C800D1209BE60C1FF
:10080200EA053C253C12028BEA7839F630E701E42E
:10081200253C04D53C04200501141209DBE4C0E0A8
:10082200120A657839E6601320E70714F6120665A6
:10083200802204F6D0E014C0E07F00120665E53C99
:10084200600712065C153C800B30050312065CD073
:10085200E00206B6D0E00480C51209BE60A0E53C05
:100862000412028B7839EAF6E53C200502600104A5
:0508720024041209DB63
:1008770074FF04C0E0120A65120665E53C20050214
:10088700600312065CD0E0B53CE87F4512066F783E
:1008970039E67F2B30E7047F2DF404C0E012067D94
:1008A700D0E075F00A84C0F0120666D0E012066642
:1008B7000206B6791080027908C206C2088008D2FB
:1008C700D5790A8004790AC2D5E53C047002F53C63
:1008D700E4FAFDFEFF120642FC7B08200113120614
:1008E70042FD7B1030000A120642FE120642FF7BD1
:1008F70020EC3382D592D55013C3E43000069FFF16
:10090700E49EFEE42001039DFDE49CFCE4CBF8C2D9
:1009170001EC700CCFCECDCCE824F8F870F380173B
:10092700C3EF33FFEE33FEED33FDEC33FCEB33FB6C
:10093700994002FB0FD8E9EB300105F8D0E0C44835
:10094700B201C0E00AEC4D4E4F78207B0070C2EA3E
:10095700B53C0040BCC0E01209DDD0F0D0E020017A
:1009670004C4C0E0C4B201C0F0120666D0F0D5F0EE
:10097700EB0206B61205F007535308BA5807244C82
:1009870007204208BE4F08C64408C649073943082E
:10099700CC5507FD46085B4507C7470A925007280D
:1009A7002D072C2E074F2B073023074D200A7B2AB4
:1009B70006E84800000747E53CB4FF03753C06120C
:1009C7000642FC120642FD120642FE120642FF785C
:1009D700320202BA790AA2D5200314300509B910E8
:1009E700020404B9080104A2D5200602500104201C
:1009F70002689202B53B005034C0E07F20300319F3
:100A07007F30A20272067205500F120A34C202C268
:100A170006C205C2087F30800F300503E9C0E01227
:100A2700067D300503D0E0F9D0E0B53BCC300517A3
:100A37007F30B9100C12067D7F583004077F78800D
:100A470003B9080312067D3002057F2D02067D7F5C
:100A5700202008F87F2B2006F322920280CF7F0008
:100A6700B4070050052432F8E6FF22286E756C6C37
:100A77002900D2011206423001F8C201783B30D575
:100A87000108F60206E82D5043495812064224038E
:100A9700B405004001E4900A8D9312066E743A1271
:0A0AA700066ED203753B040208BA84
:10024100E9D2E7C933E833F892D5EDD2E7CD33EC03
:0702510033FC5002B2D5227C
:10025800EC30E7100FBF000C0EBE00080DBD000407
:100268000BEB6014A2D5EB13FCED92E7FD2274FFB3
:10027800FCFDFEFF22E480F8A2D574FF13FC7D800C
:03028800E480EF20
:10028B00F920E72824F950037907E4F42402FB183A
:10029B00DBFDE624FB5014E9600DE4F618E604F6EA
:0F02AB00B40A08E4F6D9F57401F60A22C2D52286
:1002BA00ED33EC3392D5FA602AB4FF33EDC2E77B13
:1002CA00FF60067A0279DFE4227A0279E820D5040F
:1002DA007A0279E3224E614E002B494E46002D499F
:1002EA004E4600E47A08F608DAFC7B00740722E836
:1002FA00C0E0ECC0E0EDC0E0EEC0E0EFC0E0EA75BF
:10030A00F010A4CAABF075F04DA42BFBE435F0FC59
:10031A00EA2410FAEB34C5FBEC34D9FCEDC2E7FF52
:10032A0075F056A4F42411C5F0F434C58FF0A42A4C
:10033A00E5F03BE43CF620E7141204E5D0E0FFD0F8
:10034A00E0FED0E0FDD0E0FC12012F8014F404128C
:10035A0004E5D0E0FFD0E0FED0E0FDD0E0FC1200E2
:10036A0026D0E0F8E6FAEDD2E7CD33EC332482FB6F
:10037A00E4C3CF33CFCE33CECD33CD33DBF37B07DC
:10038A0075F00A846004F6081B0AE5F0F6088FF097
:10039A00740AA4FFACF08EF0740AA42CFEACF050E0
:1003AA00010C8DF0740AA42CFDE435F0F608DBDEAE
:0303BA00740722A3
:1003BD00020276E86480F8E933E83360110460F0F6
:1003CD00ED33EC337009E8FCE9FDEAFEEBFF2204A6
:1003DD0060DED3EB9FEA9EE99DE8C2E78CF0C2F7A1
:1003ED0095F0400CE8CCF8E9CDF9EACEFAEBCFFB6D
:1003FD0012024185D0F05804700320D5B3E8047083
:10040D00075002B2D502028092D5EC0460F7E4CC1D
:10041D00C0E0C398F8603B94186008400DD0E0FB35
:10042D00020258E4FBFAC9FC8028E830E406E4C96E
:10043D00FBE4CAFCE830E305E4C9CACBFCE8540789
:10044D006010F8C3E913F9EA13FAEB13FBEC13FC94
:10045D00D8F130F52FC3E49CFCEF9BFFEE9AFEED37
:10046D0099FDD0E0FBEF4E4D4C701222DB030202E2
:10047D007DEC2CFCEF33FFEE33FEED33FDED30E77D
:10048D00EB020258EF2BFFEE3AFEED39FDD0E0FB0B
:10049D0050130BBB0003020280ED13FDEE13FEEFB4
:0804AD0013FFEC13FC020258DE
:1004B5003F8000004120000042C80000447A00004F
:1004C500461C400047C35000497424004B189680D1
:1004D5004CBEBC205A0E1BCA6753C21C749DC5AEC8
:1004E500FB60065407601C2323120513EB54386088
:1004F500091204FF12050E120026ECF8EDF9EEFACA
:10050500EFCB22EB12050E80F1543803241C900426
:10051500B5FE93FC0EEE93FD0EEE930ECE93FF22E9
:1010BB00021219E493A3F8E493A34003F68001F220
:1010CB0008DFF48029E493A3F85407240CC8C33336
:1010DB00C4540F4420C8834004F456800146F6DF05
:1010EB00E4800B0102040810204080901459E47E28
:1010FB00019360BCA3FF543F30E509541FFEE493FA
:10110B00A360010ECF54C025E060A840B8E493A3C0
:10111B00FAE493A3F8E493A3C8C582C8CAC583CAEB
:10112B00F0A3C8C582C8CAC583CADFE9DEE780BEA3
:011494000057
:10052500BB010689828A83E0225002E722BBFE02D4
:09053500E32289828A83E4932207
:10053E00BB010CE58229F582E5833AF583E0225072
:10054E0006E92582F8E622BBFE06E92582F8E222BC
:0D055E00E58229F582E5833AF583E49322D6
:10056B00BB010689828A83F0225002F722BBFE016F
:02057B00F32269
:10057D00BC000BBE0029EF8DF084FFADF022E4CC62
:10058D00F875F008EF2FFFEE33FEEC33FCEE9DEC2B
:10059D00984005FCEE9DFE0FD5F0E9E4CEFD22ED71
:1005AD00F8F5F0EE8420D21CFEADF075F008EF2FBB
:1005BD00FFED33FD4007985006D5F0F222C398FDAC
:0505CD000FD5F0EA2249
:0E05D200C3E49FFFE49EFEE49DFDE49CFC223A
:1005E000FAE6FB0808E6F925F0F618E6CA3AF6221C
:1005F000D083D082F8E4937012740193700DA3A39A
:1006000093F8740193F5828883E4737402936860AD
:06061000EFA3A3A380DFAD
:10061600EF4E6012EF60010EEDBB010B89828A83FB
:10062600F0A3DFFCDEFA2289F05007F709DFFCA908
:0C063600F022BBFEFCF309DFFCA9F0225F
:00000001FF
