:10026700082D0A0A0A0A0A0A0A0A082500000000D5
:100277000000000008370000000000000000012116
:0A0287000001220001230001240001
:1002DE00200119D2011201238F23E5236524FF5536
:0C02EE0023F521E523F45FF5228523248D
:0102FA0022E1
:06000300200002D20022E1
:0100090022D4
:10033200538E7F5389F0758A18758CFCC28DD28CCE
:05034200D2A9D2AF2298
:03000B0002009A56
:10009A00C0E0C0F0C083C082C0D075D000C000C02C
:1000AA0001C002C003C004C005C006C0070536E58A
:1000BA003670020535FFAE35BE010BBF9008C2008F
:1000CA00753500753600AE35AF367C007D0A1201F3
:1000DA0096ED4C7002C201E5365407FBFF242DF859
:1000EA00E6FD7C0074252BF8E6FB7A001201EBE5AD
:1000FA00365407FF2437F8E6FD7C0012022CD0079D
:10010A00D006D005D004D003D002D001D000D0D080
:09011A00D082D083D0F0D0E03295
:10034700EF4E600F7D0C7CA9DCFEDDFCEF1F70F02B
:030357001E80ED18
:01035A002280
:10035B001202FB1203321202DE120003120009809A
:01036B00F59C
:1002FB00E4F580E5A0541F44A0F5A053A01F758022
:0D030B00FFE5A0541F4480F5A053A01F2261
:10012300E4FFC2B4D2B5D2C2D2C420B0027F13203E
:10013300B1027F1220B2027F1120B3027F10D2B42A
:10014300C2B5D2C2D2C420B0027F0F20B1027F0E4B
:1001530020B2027F0D20B3027F0CD2B4D2B5C2C24B
:10016300D2C420B0027F0B20B1027F0A20B2027FEB
:100173000920B3027F08D2B4D2B5D2C2C2C420B020
:10018300027F0720B1027F0620B2027F0520B3025F
:020193007F04E7
:010195002247
:10031800C0F9A4B0999282F88090FFBF8883C6A1E3
:0A032800868E0102040810204080B8
:1001EB007580FFE5A0541F44E0F5A053A01FEF90CE
:1001FB00032A93F580E5A0541F44C0F5A053A01F1C
:10020B0074182DF58274033CF583E493F580EB4A67
:10021B00600353807FE5A0541F44E0F5A053A01F5B
:01022B0022B0
:060291000109000108FF55
:10022C00ED4C600FA8077401088002C333D8FC4260
:10023C0009800EA8077401088002C333D8FCF4525D
:10024C0009E50965086013E509F4F580E5A0541F7C
:0B025C004480F5A053A01F8509082274
:10029800EF600543094080035309BFE5096508601D
:1002A80011850980E5A0541F44A0F5A053A01F851F
:0302B80009082210
:1002BB00EF600543091080035309EFE509650860FA
:1002CB0011850980E5A0541F44A0F5A053A01F85FC
:0302DB00090822ED
:0300000002000EED
:0C000E00787FE4F6D8FD75813E020055B5
:10019600BC000BBE0029EF8DF084FFADF022E4CC4D
:1001A600F875F008EF2FFFEE33FEEC33FCEE9DEC16
:1001B600984005FCEE9DFE0FD5F0E9E4CEFD22ED5C
:1001C600F8F5F0EE8420D21CFEADF075F008EF2FA6
:1001D600FFED33FD4007985006D5F0F222C398FD97
:0501E6000FD5F0EA2234
:10001A0002035BE493A3F8E493A34003F68001F29E
:10002A0008DFF48029E493A3F85407240CC8C333E7
:10003A00C4540F4420C8834004F456800146F6DFB6
:10004A00E4800B0102040810204080900267E47EDD
:10005A00019360BCA3FF543F30E509541FFEE493AB
:10006A00A360010ECF54C025E060A840B8E493A372
:10007A00FAE493A3F8E493A3C8C582C8CAC583CA9D
:10008A00F0A3C8C582C8CAC583CADFE9DEE780BE55
:010297000066
:00000001FF
