:10022300E4FF20B0027F0720B1027F0620B2027FE5
:060233000520B3027F0468
:0102390022A2
:100117000C08C0F9A4B0999282F88090FF8808145F
:080127000102040810204080D1
:100154008F408C418D428A438B447D077FFF12027E
:100164005D74142540F8E6FF7D0612025D740825CF
:1001740042F8E6F580E5444543600353807F7F07FA
:03018400020187EE
:10018700EF24FB601214601714601C24037023E52E
:10019700A0541F44808016E5A0541F44A0800EE59C
:1001A700A0541F44C08006E5A0541F44E0F5A053A7
:0301B700A01F2264
:09025D00AE058F80AF0602018797
:06012F00011C00011DFF90
:1001BA0030000FA8077401088002C333D8FC421C20
:1001CA00800EA8077401088002C333D8FCF4521CBD
:1001DA00E51C651D600CE51CF4FF7D0412025D85BB
:0201EA001C1DDA
:0101EC0022F0
:1001350008290A0A0A0A0A0A0A0A08210000000010
:0E01450000000000083800000000000000006C
:10020900E53470157534011202238F36E5366535EC
:0A0219005536F533F53785363522EA
:0E024F00E53170097531017529017521032211
:0100030022DA
:10023A00538E7F5389F0758A18758CFCC28DD28CC7
:05024A00D2A9D2AF2291
:03000B0002009A56
:10009A00C0E0C0F0C083C082C0D075D000C000C02C
:1000AA0001C002C003C004C005C006C0070534E58C
:1000BA0034640A7002F5340531AF317E00BE0106A0
:1000CA00BFF4037531000532E53264087002F53277
:1000DA0074292532F8E6FD74212532F8E6FBAF32A1
:1000EA0012015474382532F8E624FF9200AF321216
:1000FA0001BAD007D006D005D004D003D002D0016F
:0D010A00D000D0D0D082D083D0F0D0E03231
:1001ED007D047FFF12025D7D05E4FF12025D1202A8
:0C01FD003A12020912024F12000380F5B2
:0300000002000EED
:0C000E00787FE4F6D8FD758144020055AF
:10001A000201EDE493A3F8E493A34003F68001F20E
:10002A0008DFF48029E493A3F85407240CC8C333E7
:10003A00C4540F4420C8834004F456800146F6DFB6
:10004A00E4800B0102040810204080900117E47E2E
:10005A00019360BCA3FF543F30E509541FFEE493AB
:10006A00A360010ECF54C025E060A840B8E493A372
:10007A00FAE493A3F8E493A3C8C582C8CAC583CA9D
:10008A00F0A3C8C582C8CAC583CADFE9DEE780BE55
:0101530000AB
:00000001FF
