:10029000082D0A0A0A0A0A0A0A0A082500000000AC
:1002A00000000000083700000000000000000121ED
:0A02B00000012200012300012400D8
:10030D00200119D2011201458F23E5236524FF55E4
:0C031D0023F521E523F45FF5228523245D
:0103290022B1
:06000300200002D20022E1
:06039E00200202D202223F
:0603A400200302D2032237
:10036100538E7F5389F0758A18758CFCC28DD28C9F
:05037100D2A9D2AF2269
:03000B0002000EE2
:10000E00C0E0C0F0C083C082C0D075D000C000C0B8
:10001E0001C002C003C004C005C006C0070536E516
:10002E003670020535FFAE35BE010BBF9008C20318
:10003E00753500753600AE35AF367C007D0A12017F
:10004E00BFED4C7002C201AE35AF367C007D14128E
:10005E0001BFED4C7002C202AE35AF367C007DC8DA
:10006E001201BFED4C7002C200E5365407FBFF24AF
:10007E002DF8E6FD7C0074252BF8E6FB7A001202C3
:10008E0014E5365407FF2437F8E6FD7C00120255BE
:10009E00D007D006D005D004D003D002D001D000B6
:0B00AE00D0D0D082D083D0F0D0E03260
:10037600EF4E600F7D0C7CA9DCFEDDFCEF1F70F0FC
:030386001E80EDE9
:010389002251
:10038A0012032A12036112030D12000312039E12B2
:04039A0003A480F246
:10032A00E4F580E5A0541F44A0F5A053A01F7580F2
:0D033A00FFE5A0541F4480F5A053A01F2232
:10014500E4FFC2A9C2B4D2B5D2C2D2C420B0027FE4
:100155001320B1027F1220B2027F1120B3027F105B
:10016500D2B4C2B5D2C2D2C420B0027F0F20B10230
:100175007F0E20B2027F0D20B3027F0CD2B4D2B520
:10018500C2C2D2C420B0027F0B20B1027F0A20B2C6
:10019500027F0920B3027F08D2B4D2B5D2C2C2C44D
:1001A50020B0027F0720B1027F0620B2027F052022
:0901B500B3027F0475B0FFD2A96A
:0101BE00221E
:10034700C0F9A4B0999282F88090FFBF8883C6A1B4
:0A035700868E010204081020408089
:100214007580FFE5A0541F44E0F5A053A01FEF90A4
:10022400035993F580E5A0541F44C0F5A053A01FC3
:1002340074472DF58274033CF583E493F580EB4A0F
:10024400600353807FE5A0541F44E0F5A053A01F32
:010254002287
:0C02BA000108000109FF010B00010AFF10
:10025500ED4C600FA8077401088002C333D8FC4237
:1002650008800EA8077401088002C333D8FCF45235
:1002750008E50865096013E508F4F580E5A0541F55
:0A0285004480F5A053A01F8508096E
:01028F00224C
:1002C700EF6005430B408003530BBFE50B650A60E6
:1002D70011850B80E5A0541F44A0F5A053A01F85EE
:0302E7000B0A22DD
:1002EA00EF6005430B108003530BEFE50B650A60C3
:1002FA0011850B80E5A0541F44A0F5A053A01F85CB
:03030A000B0A22B9
:030000000200B942
:0C00B900787FE4F6D8FD75813F0201005D
:1001BF00BC000BBE0029EF8DF084FFADF022E4CC24
:1001CF00F875F008EF2FFFEE33FEEC33FCEE9DECED
:1001DF00984005FCEE9DFE0FD5F0E9E4CEFD22ED33
:1001EF00F8F5F0EE8420D21CFEADF075F008EF2F7D
:1001FF00FFED33FD4007985006D5F0F222C398FD6E
:05020F000FD5F0EA220A
:1000C50002038AE493A3F8E493A34003F68001F2C4
:1000D50008DFF48029E493A3F85407240CC8C3333C
:1000E500C4540F4420C8834004F456800146F6DF0B
:1000F500E4800B0102040810204080900290E47E09
:10010500019360BCA3FF543F30E509541FFEE493FF
:10011500A360010ECF54C025E060A840B8E493A3C6
:10012500FAE493A3F8E493A3C8C582C8CAC583CAF1
:10013500F0A3C8C582C8CAC583CADFE9DEE780BEA9
:0102C6000037
:00000001FF
