BL51 BANKED LINKER/LOCATER V6.22.2.0                                                    03/21/2024  12:56:22  PAGE 1


BL51 BANKED LINKER/LOCATER V6.22.2.0, INVOKED BY:
D:\KEIL 5\C51\BIN\BL51.EXE .\Objects\main.obj, .\Objects\Init.obj, .\Objects\Key.obj, .\Objects\Seg.obj, .\Objects\LED.o
>> bj, .\Objects\Uart.obj, .\Objects\iic.obj, .\Objects\onewire.obj TO .\Objects\2303002124 PRINT (.\Listings\2303002124
>> .m51) RAMSIZE (256)


MEMORY MODEL: SMALL WITH FLOATING POINT ARITHMETIC


INPUT MODULES INCLUDED:
  .\Objects\main.obj (MAIN)
  .\Objects\Init.obj (INIT)
  .\Objects\Key.obj (KEY)
  .\Objects\Seg.obj (SEG)
  .\Objects\LED.obj (LED)
  .\Objects\Uart.obj (UART)
  .\Objects\iic.obj (IIC)
  .\Objects\onewire.obj (ONEWIRE)
  D:\KEIL 5\C51\LIB\C51FPS.LIB (?C?FPMUL)
  D:\KEIL 5\C51\LIB\C51FPS.LIB (?C?FPDIV)
  D:\KEIL 5\C51\LIB\C51FPS.LIB (?C?FPCMP)
  D:\KEIL 5\C51\LIB\C51FPS.LIB (?C?FCAST)
  D:\KEIL 5\C51\LIB\C51FPS.LIB (?C?CASTF)
  D:\KEIL 5\C51\LIB\C51FPS.LIB (PRINTF)
  D:\KEIL 5\C51\LIB\C51FPS.LIB (?C?FPGETOPN)
  D:\KEIL 5\C51\LIB\C51FPS.LIB (?C?FPROUND)
  D:\KEIL 5\C51\LIB\C51FPS.LIB (?C?FPCONVERT)
  D:\KEIL 5\C51\LIB\C51FPS.LIB (?C?FPADD)
  D:\KEIL 5\C51\LIB\C51FPS.LIB (?C?FTNPWR)
  D:\KEIL 5\C51\LIB\C51S.LIB (?C_STARTUP)
  D:\KEIL 5\C51\LIB\C51S.LIB (?C?CLDPTR)
  D:\KEIL 5\C51\LIB\C51S.LIB (?C?CLDOPTR)
  D:\KEIL 5\C51\LIB\C51S.LIB (?C?CSTPTR)
  D:\KEIL 5\C51\LIB\C51S.LIB (?C?UIDIV)
  D:\KEIL 5\C51\LIB\C51S.LIB (?C?LNEG)
  D:\KEIL 5\C51\LIB\C51S.LIB (?C?PLDIIDATA)
  D:\KEIL 5\C51\LIB\C51S.LIB (?C?CCASE)
  D:\KEIL 5\C51\LIB\C51S.LIB (?C_INIT)


LINK MAP OF MODULE:  .\Objects\2303002124 (MAIN)


            TYPE    BASE      LENGTH    RELOCATION   SEGMENT NAME
            -----------------------------------------------------

            * * * * * * *   D A T A   M E M O R Y   * * * * * * *
            REG     0000H     0008H     ABSOLUTE     "REG BANK 0"
            DATA    0008H     0006H     UNIT         ?DT?LED
                    000EH     0012H                  *** GAP ***
            BIT     0020H.0   0001H.1   UNIT         _BIT_GROUP_
            BIT     0021H.1   0001H.0   UNIT         ?BI?MAIN
                    0022H.1   0000H.7                *** GAP ***
            DATA    0023H     002EH     UNIT         ?DT?MAIN
            DATA    0051H     001CH     UNIT         _DATA_GROUP_
            IDATA   006DH     0001H     UNIT         ?STACK

            * * * * * * *   C O D E   M E M O R Y   * * * * * * *
BL51 BANKED LINKER/LOCATER V6.22.2.0                                                  03/21/2024  12:56:22  PAGE 2


            CODE    0000H     0003H     ABSOLUTE     
            CODE    0003H     0008H     UNIT         ?PR?_PUTCHAR?UART
            CODE    000BH     0003H     ABSOLUTE     
            CODE    000EH     0015H     UNIT         ?PR?TIMER0_INIT?MAIN
            CODE    0023H     0003H     ABSOLUTE     
            CODE    0026H     0669H     UNIT         ?C?LIB_CODE
            CODE    068FH     046FH     UNIT         ?PR?PRINTF?PRINTF
            CODE    0AFEH     00CEH     UNIT         ?PR?TIMER0_SERVE?MAIN
            CODE    0BCCH     009BH     UNIT         ?PR?SEG_DEAL?MAIN
            CODE    0C67H     0094H     UNIT         ?PR?LED_DEAL?MAIN
            CODE    0CFBH     008CH     UNIT         ?C_C51STARTUP
            CODE    0D87H     007AH     UNIT         ?PR?KEY_READ?KEY
            CODE    0E01H     005EH     UNIT         ?PR?KEY_DEAL?MAIN
            CODE    0E5FH     0041H     UNIT         ?PR?_SEG_SHOW?SEG
            CODE    0EA0H     003DH     UNIT         ?C_INITSEG
            CODE    0EDDH     003BH     UNIT         ?PR?_LED_SHOW?LED
            CODE    0F18H     0035H     UNIT         ?PR?_I2CSENDBYTE?IIC
            CODE    0F4DH     0034H     UNIT         ?PR?DS18B20_READ_T?ONEWIRE
            CODE    0F81H     002EH     UNIT         ?PR?INFOR_DEAL?MAIN
            CODE    0FAFH     002CH     UNIT         ?PR?_AD_READ?IIC
            CODE    0FDBH     002AH     UNIT         ?PR?UART1_SEVRE?MAIN
            CODE    1005H     0027H     UNIT         ?PR?_WRITE_DS18B20?ONEWIRE
            CODE    102CH     0027H     UNIT         ?PR?INIT_DS18B20?ONEWIRE
            CODE    1053H     0026H     UNIT         ?PR?I2CRECEIVEBYTE?IIC
            CODE    1079H     0024H     UNIT         ?PR?MAIN?MAIN
            CODE    109DH     0023H     UNIT         ?PR?_BEEP?LED
            CODE    10C0H     0023H     UNIT         ?PR?_RELAY?LED
            CODE    10E3H     0023H     UNIT         ?PR?READ_DS18B20?ONEWIRE
            CODE    1106H     0022H     UNIT         ?PR?UART_DEAL?MAIN
            CODE    1128H     001EH     UNIT         ?PR?_DELAY_ONEWIRE?ONEWIRE
            CODE    1146H     001DH     UNIT         ?PR?SYSTEM_INIT?INIT
            CODE    1163H     001BH     UNIT         ?CO?SEG
            CODE    117EH     001BH     UNIT         ?PR?UART_INIT?UART
            CODE    1199H     001AH     UNIT         ?CO?MAIN
            CODE    11B3H     001AH     UNIT         ?PR?_I2C_DELAY?IIC
            CODE    11CDH     0018H     UNIT         ?PR?_I2CSENDACK?IIC
            CODE    11E5H     0015H     UNIT         ?PR?I2CWAITACK?IIC
            CODE    11FAH     0014H     UNIT         ?PR?_DELAY_MS?MAIN
            CODE    120EH     000FH     UNIT         ?PR?I2CSTART?IIC
            CODE    121DH     000CH     UNIT         ?PR?I2CSTOP?IIC



OVERLAY MAP OF MODULE:   .\Objects\2303002124 (MAIN)


SEGMENT                               BIT_GROUP          DATA_GROUP 
  +--> CALLED SEGMENT              START    LENGTH     START    LENGTH
----------------------------------------------------------------------
?PR?TIMER0_SERVE?MAIN              -----    -----      -----    -----
  +--> ?PR?_SEG_SHOW?SEG
  +--> ?PR?_LED_SHOW?LED

?PR?_SEG_SHOW?SEG                  -----    -----      -----    -----
  +--> ?CO?SEG

*** NEW ROOT ***************************************************
BL51 BANKED LINKER/LOCATER V6.22.2.0                                                  03/21/2024  12:56:22  PAGE 3



?C_C51STARTUP                      -----    -----      -----    -----
  +--> ?PR?MAIN?MAIN
  +--> ?C_INITSEG

?PR?MAIN?MAIN                      -----    -----      -----    -----
  +--> ?PR?SYSTEM_INIT?INIT
  +--> ?PR?TIMER0_INIT?MAIN
  +--> ?PR?UART_INIT?UART
  +--> ?PR?DS18B20_READ_T?ONEWIRE
  +--> ?PR?_DELAY_MS?MAIN
  +--> ?PR?KEY_DEAL?MAIN
  +--> ?PR?SEG_DEAL?MAIN
  +--> ?PR?LED_DEAL?MAIN
  +--> ?PR?INFOR_DEAL?MAIN
  +--> ?PR?UART_DEAL?MAIN

?PR?DS18B20_READ_T?ONEWIRE         -----    -----      -----    -----
  +--> ?PR?INIT_DS18B20?ONEWIRE
  +--> ?PR?_WRITE_DS18B20?ONEWIRE
  +--> ?PR?READ_DS18B20?ONEWIRE

?PR?INIT_DS18B20?ONEWIRE           0020H.0  0000H.1    -----    -----
  +--> ?PR?_DELAY_ONEWIRE?ONEWIRE

?PR?_WRITE_DS18B20?ONEWIRE         -----    -----      -----    -----
  +--> ?PR?_DELAY_ONEWIRE?ONEWIRE

?PR?READ_DS18B20?ONEWIRE           -----    -----      -----    -----
  +--> ?PR?_DELAY_ONEWIRE?ONEWIRE

?PR?KEY_DEAL?MAIN                  -----    -----      -----    -----
  +--> ?PR?KEY_READ?KEY
  +--> ?CO?MAIN
  +--> ?PR?PRINTF?PRINTF

?PR?PRINTF?PRINTF                  0020H.0  0001H.1    0051H    001CH
  +--> ?PR?_PUTCHAR?UART

?PR?LED_DEAL?MAIN                  -----    -----      -----    -----
  +--> ?PR?_RELAY?LED
  +--> ?PR?_BEEP?LED

?PR?INFOR_DEAL?MAIN                -----    -----      -----    -----
  +--> ?PR?_AD_READ?IIC
  +--> ?PR?DS18B20_READ_T?ONEWIRE

?PR?_AD_READ?IIC                   -----    -----      -----    -----
  +--> ?PR?I2CSTART?IIC
  +--> ?PR?I2CWAITACK?IIC
  +--> ?PR?_I2CSENDBYTE?IIC
  +--> ?PR?I2CRECEIVEBYTE?IIC
  +--> ?PR?_I2CSENDACK?IIC
  +--> ?PR?I2CSTOP?IIC

?PR?I2CSTART?IIC                   -----    -----      -----    -----
  +--> ?PR?_I2C_DELAY?IIC
BL51 BANKED LINKER/LOCATER V6.22.2.0                                                  03/21/2024  12:56:22  PAGE 4



?PR?I2CWAITACK?IIC                 -----    -----      -----    -----
  +--> ?PR?_I2CSENDBYTE?IIC
  +--> ?PR?_I2C_DELAY?IIC

?PR?_I2CSENDBYTE?IIC               -----    -----      -----    -----
  +--> ?PR?_I2C_DELAY?IIC

?PR?I2CRECEIVEBYTE?IIC             -----    -----      -----    -----
  +--> ?PR?_I2C_DELAY?IIC

?PR?_I2CSENDACK?IIC                -----    -----      -----    -----
  +--> ?PR?_I2C_DELAY?IIC

?PR?I2CSTOP?IIC                    -----    -----      -----    -----
  +--> ?PR?_I2C_DELAY?IIC



SYMBOL TABLE OF MODULE:  .\Objects\2303002124 (MAIN)

  VALUE           TYPE          NAME
  ----------------------------------

  -------         MODULE        MAIN
  C:0000H         SYMBOL        _ICE_DUMMY_
  D:0080H         PUBLIC        P0
  D:0090H         PUBLIC        P1
  D:00A0H         PUBLIC        P2
  C:0E01H         PUBLIC        Key_Deal
  B:0021H.1       PUBLIC        Uart_Slow_Flag
  D:00B0H         PUBLIC        P3
  D:00C0H         PUBLIC        P4
  B:0021H.2       PUBLIC        Seg_Slow_Flag
  D:00C8H         PUBLIC        P5
  B:00A8H.7       PUBLIC        EA
  D:00E8H         PUBLIC        P6
  D:00F8H         PUBLIC        P7
  D:0027H         PUBLIC        Timer0_100ms
  B:0021H.3       PUBLIC        Seg_Show_Mode
  D:0028H         PUBLIC        Seg_Point
  D:00A8H         PUBLIC        IE
  B:0021H.4       PUBLIC        Key_Slow_Flag
  D:00B8H         PUBLIC        IP
  B:0098H.0       PUBLIC        RI
  C:0AFEH         PUBLIC        Timer0_Serve
  D:0030H         PUBLIC        Seg_Buf
  D:0038H         PUBLIC        Slow_Down
  D:00D8H         PUBLIC        CCON
  D:003AH         PUBLIC        Uart_Rx_Index
  C:1079H         PUBLIC        main
  C:000EH         PUBLIC        Timer0_Init
  C:0C67H         PUBLIC        LED_Deal
  D:0099H         PUBLIC        SBUF
  C:11FAH         PUBLIC        _Delay_ms
  D:0098H         PUBLIC        SCON
  D:0089H         PUBLIC        TMOD
BL51 BANKED LINKER/LOCATER V6.22.2.0                                                  03/21/2024  12:56:22  PAGE 5


  D:0088H         PUBLIC        TCON
  C:0FDBH         PUBLIC        Uart1_Sevre
  B:0021H.5       PUBLIC        LED_Slow_Flag
  D:008EH         PUBLIC        AUXR
  D:003BH         PUBLIC        Uart_Rx_Buf
  B:00A8H.1       PUBLIC        ET0
  B:0088H.5       PUBLIC        TF0
  D:008CH         PUBLIC        TH0
  D:008AH         PUBLIC        TL0
  D:0040H         PUBLIC        T
  D:0044H         PUBLIC        LED_Buf
  B:0088H.4       PUBLIC        TR0
  B:0021H.6       PUBLIC        L3_Star_Flag
  C:0F81H         PUBLIC        Infor_Deal
  D:004CH         PUBLIC        AD_Data
  B:0021H.7       PUBLIC        Mode_Flag
  B:0022H.0       PUBLIC        Infor_Slow_Flag
  D:0050H         PUBLIC        i
  C:1106H         PUBLIC        Uart_Deal
  C:0BCCH         PUBLIC        Seg_Deal
  D:00D0H         PUBLIC        PSW
  -------         PROC          KEY_DEAL
  -------         DO            
  D:0023H         SYMBOL        Key_Down
  D:0024H         SYMBOL        Key_UP
  D:0025H         SYMBOL        Key_New
  D:0026H         SYMBOL        Key_Old
  -------         ENDDO         
  C:0E01H         LINE#         31
  C:0E01H         LINE#         32
  C:0E01H         LINE#         36
  C:0E04H         LINE#         37
  C:0E06H         LINE#         39
  C:0E0BH         LINE#         40
  C:0E14H         LINE#         41
  C:0E1AH         LINE#         42
  C:0E1DH         LINE#         44
  C:0E2BH         LINE#         45
  C:0E2BH         LINE#         47
  C:0E2BH         LINE#         48
  C:0E2DH         LINE#         49
  C:0E2EH         LINE#         51
  C:0E2EH         LINE#         52
  C:0E31H         LINE#         53
  C:0E33H         LINE#         54
  C:0E34H         LINE#         56
  C:0E34H         LINE#         57
  C:0E39H         LINE#         58
  C:0E4BH         LINE#         60
  C:0E5EH         LINE#         61
  C:0E5EH         LINE#         62
  C:0E5EH         LINE#         64
  -------         ENDPROC       KEY_DEAL
  -------         PROC          SEG_DEAL
  C:0BCCH         LINE#         67
  C:0BCCH         LINE#         68
  C:0BCCH         LINE#         69
BL51 BANKED LINKER/LOCATER V6.22.2.0                                                  03/21/2024  12:56:22  PAGE 6


  C:0BD2H         LINE#         70
  C:0BD4H         LINE#         72
  C:0BD7H         LINE#         74
  C:0BDAH         LINE#         75
  C:0BDAH         LINE#         76
  C:0BDDH         LINE#         77
  C:0BE0H         LINE#         78
  C:0BE3H         LINE#         79
  C:0BF5H         LINE#         80
  C:0BFDH         LINE#         81
  C:0C0CH         LINE#         82
  C:0C0EH         LINE#         85
  C:0C0EH         LINE#         86
  C:0C11H         LINE#         87
  C:0C14H         LINE#         88
  C:0C17H         LINE#         89
  C:0C2AH         LINE#         90
  C:0C48H         LINE#         91
  C:0C66H         LINE#         92
  C:0C66H         LINE#         93
  -------         ENDPROC       SEG_DEAL
  -------         PROC          LED_DEAL
  C:0C67H         LINE#         96
  C:0C67H         LINE#         97
  C:0C67H         LINE#         98
  C:0C6DH         LINE#         99
  C:0C6FH         LINE#         103
  C:0C8CH         LINE#         104
  C:0CABH         LINE#         107
  C:0CB9H         LINE#         108
  C:0CD1H         LINE#         110
  C:0CD4H         LINE#         111
  C:0CDCH         LINE#         113
  C:0CE1H         LINE#         115
  C:0CEFH         LINE#         116
  C:0CFAH         LINE#         117
  -------         ENDPROC       LED_DEAL
  -------         PROC          INFOR_DEAL
  C:0F81H         LINE#         120
  C:0F81H         LINE#         121
  C:0F81H         LINE#         122
  C:0F84H         LINE#         123
  C:0F86H         LINE#         126
  C:0FA3H         LINE#         127
  C:0FAEH         LINE#         131
  -------         ENDPROC       INFOR_DEAL
  -------         PROC          UART_DEAL
  C:1106H         LINE#         134
  C:1106H         LINE#         135
  C:1106H         LINE#         136
  C:1109H         LINE#         137
  C:110BH         LINE#         139
  C:1114H         LINE#         140
  C:1114H         LINE#         141
  C:1119H         LINE#         142
  C:111DH         LINE#         143
  C:1122H         LINE#         144
BL51 BANKED LINKER/LOCATER V6.22.2.0                                                  03/21/2024  12:56:22  PAGE 7


  C:1124H         LINE#         145
  C:1127H         LINE#         146
  C:1127H         LINE#         147
  -------         ENDPROC       UART_DEAL
  -------         PROC          TIMER0_INIT
  C:000EH         LINE#         150
  C:000EH         LINE#         151
  C:000EH         LINE#         152
  C:0011H         LINE#         153
  C:0014H         LINE#         154
  C:0017H         LINE#         155
  C:001AH         LINE#         156
  C:001CH         LINE#         157
  C:001EH         LINE#         158
  C:0020H         LINE#         159
  C:0022H         LINE#         160
  -------         ENDPROC       TIMER0_INIT
  -------         PROC          TIMER0_SERVE
  C:0AFEH         LINE#         163
  C:0B1BH         LINE#         165
  C:0B34H         LINE#         166
  C:0B45H         LINE#         167
  C:0B56H         LINE#         168
  C:0B67H         LINE#         169
  C:0B78H         LINE#         170
  C:0B90H         LINE#         171
  C:0B9FH         LINE#         173
  C:0BA2H         LINE#         174
  C:0BA2H         LINE#         175
  C:0BAAH         LINE#         176
  C:0BAAH         LINE#         177
  C:0BACH         LINE#         178
  C:0BB1H         LINE#         179
  C:0BB1H         LINE#         180
  C:0BB1H         LINE#         181
  -------         ENDPROC       TIMER0_SERVE
  -------         PROC          UART1_SEVRE
  C:0FDBH         LINE#         182
  C:0FE6H         LINE#         184
  C:0FECH         LINE#         185
  C:0FECH         LINE#         186
  C:0FF6H         LINE#         187
  C:0FF8H         LINE#         188
  C:0FFAH         LINE#         190
  C:0FFCH         LINE#         191
  -------         ENDPROC       UART1_SEVRE
  -------         PROC          _DELAY_MS
  D:0006H         SYMBOL        xms
  -------         DO            
  D:0005H         SYMBOL        i
  D:0004H         SYMBOL        j
  -------         ENDDO         
  C:11FAH         LINE#         194
  C:11FAH         LINE#         195
  C:11FAH         LINE#         197
  C:11FEH         LINE#         198
  C:11FEH         LINE#         199
BL51 BANKED LINKER/LOCATER V6.22.2.0                                                  03/21/2024  12:56:22  PAGE 8


  C:1200H         LINE#         200
  C:1202H         LINE#         202
  C:1202H         LINE#         203
  C:1204H         LINE#         204
  C:1206H         LINE#         205
  C:120BH         LINE#         206
  C:120DH         LINE#         207
  -------         ENDPROC       _DELAY_MS
  -------         PROC          MAIN
  C:1079H         LINE#         210
  C:1079H         LINE#         211
  C:1079H         LINE#         212
  C:107CH         LINE#         213
  C:107FH         LINE#         214
  C:1082H         LINE#         215
  C:1085H         LINE#         216
  C:108CH         LINE#         218
  C:108CH         LINE#         219
  C:108CH         LINE#         220
  C:108FH         LINE#         221
  C:1092H         LINE#         222
  C:1095H         LINE#         223
  C:1098H         LINE#         224
  C:109BH         LINE#         225
  -------         ENDPROC       MAIN
  -------         ENDMOD        MAIN

  -------         MODULE        INIT
  C:0000H         SYMBOL        _ICE_DUMMY_
  C:1146H         PUBLIC        System_Init
  D:0080H         PUBLIC        P0
  D:0090H         PUBLIC        P1
  D:00A0H         PUBLIC        P2
  D:00B0H         PUBLIC        P3
  D:00C0H         PUBLIC        P4
  D:00C8H         PUBLIC        P5
  D:00E8H         PUBLIC        P6
  D:00F8H         PUBLIC        P7
  D:00A8H         PUBLIC        IE
  D:00B8H         PUBLIC        IP
  D:00D8H         PUBLIC        CCON
  D:0098H         PUBLIC        SCON
  D:0088H         PUBLIC        TCON
  D:00D0H         PUBLIC        PSW
  -------         PROC          SYSTEM_INIT
  C:1146H         LINE#         7
  C:1146H         LINE#         8
  C:1146H         LINE#         9
  C:1149H         LINE#         10
  C:1151H         LINE#         11
  C:1154H         LINE#         13
  C:1157H         LINE#         14
  C:115FH         LINE#         15
  C:1162H         LINE#         16
  -------         ENDPROC       SYSTEM_INIT
  -------         ENDMOD        INIT

BL51 BANKED LINKER/LOCATER V6.22.2.0                                                  03/21/2024  12:56:22  PAGE 9


  -------         MODULE        KEY
  C:0000H         SYMBOL        _ICE_DUMMY_
  D:0080H         PUBLIC        P0
  D:0090H         PUBLIC        P1
  D:00A0H         PUBLIC        P2
  D:00B0H         PUBLIC        P3
  D:00C0H         PUBLIC        P4
  D:00C8H         PUBLIC        P5
  D:00E8H         PUBLIC        P6
  D:00F8H         PUBLIC        P7
  C:0D87H         PUBLIC        Key_Read
  D:00A8H         PUBLIC        IE
  D:00B8H         PUBLIC        IP
  D:00D8H         PUBLIC        CCON
  B:00B0H.0       PUBLIC        P30
  D:0098H         PUBLIC        SCON
  B:00B0H.1       PUBLIC        P31
  D:0088H         PUBLIC        TCON
  B:00B0H.2       PUBLIC        P32
  B:00C0H.2       PUBLIC        P42
  B:00B0H.3       PUBLIC        P33
  B:00B0H.4       PUBLIC        P34
  B:00C0H.4       PUBLIC        P44
  B:00B0H.5       PUBLIC        P35
  B:00A8H.1       PUBLIC        ET0
  D:00D0H         PUBLIC        PSW
  -------         PROC          KEY_READ
  -------         DO            
  D:0007H         SYMBOL        temp
  -------         ENDDO         
  C:0D87H         LINE#         7
  C:0D87H         LINE#         8
  C:0D87H         LINE#         9
  C:0D89H         LINE#         10
  C:0D8BH         LINE#         11
  C:0D93H         LINE#         12
  C:0D98H         LINE#         13
  C:0D9DH         LINE#         14
  C:0DA2H         LINE#         15
  C:0DA7H         LINE#         16
  C:0DAFH         LINE#         17
  C:0DB4H         LINE#         18
  C:0DB9H         LINE#         19
  C:0DBEH         LINE#         20
  C:0DC3H         LINE#         21
  C:0DCBH         LINE#         22
  C:0DD0H         LINE#         23
  C:0DD5H         LINE#         24
  C:0DDAH         LINE#         25
  C:0DDFH         LINE#         26
  C:0DE7H         LINE#         27
  C:0DECH         LINE#         28
  C:0DF1H         LINE#         29
  C:0DF6H         LINE#         30
  C:0DFBH         LINE#         31
  C:0DFEH         LINE#         32
  C:0E00H         LINE#         33
BL51 BANKED LINKER/LOCATER V6.22.2.0                                                  03/21/2024  12:56:22  PAGE 10


  C:0E00H         LINE#         34
  -------         ENDPROC       KEY_READ
  -------         ENDMOD        KEY

  -------         MODULE        SEG
  C:0000H         SYMBOL        _ICE_DUMMY_
  D:0080H         PUBLIC        P0
  D:0090H         PUBLIC        P1
  D:00A0H         PUBLIC        P2
  D:00B0H         PUBLIC        P3
  D:00C0H         PUBLIC        P4
  D:00C8H         PUBLIC        P5
  D:00E8H         PUBLIC        P6
  D:00F8H         PUBLIC        P7
  D:00A8H         PUBLIC        IE
  D:00B8H         PUBLIC        IP
  C:1176H         PUBLIC        Seg_Wula
  C:0E5FH         PUBLIC        _Seg_Show
  D:00D8H         PUBLIC        CCON
  D:0098H         PUBLIC        SCON
  D:0088H         PUBLIC        TCON
  C:1163H         PUBLIC        Seg_Table
  D:00D0H         PUBLIC        PSW
  -------         PROC          _SEG_SHOW
  D:0007H         SYMBOL        Wula
  D:0004H         SYMBOL        Table
  D:0002H         SYMBOL        Point
  C:0E5FH         LINE#         30
  C:0E5FH         LINE#         31
  C:0E5FH         LINE#         32
  C:0E62H         LINE#         33
  C:0E6AH         LINE#         34
  C:0E6DH         LINE#         36
  C:0E74H         LINE#         37
  C:0E7CH         LINE#         38
  C:0E7FH         LINE#         40
  C:0E8DH         LINE#         41
  C:0E91H         LINE#         42
  C:0E94H         LINE#         43
  C:0E9CH         LINE#         44
  C:0E9FH         LINE#         45
  -------         ENDPROC       _SEG_SHOW
  -------         ENDMOD        SEG

  -------         MODULE        LED
  C:0000H         SYMBOL        _ICE_DUMMY_
  C:10C0H         PUBLIC        _Relay
  D:0080H         PUBLIC        P0
  D:0090H         PUBLIC        P1
  D:00A0H         PUBLIC        P2
  D:00B0H         PUBLIC        P3
  D:00C0H         PUBLIC        P4
  D:00C8H         PUBLIC        P5
  D:00E8H         PUBLIC        P6
  D:00F8H         PUBLIC        P7
  D:00A8H         PUBLIC        IE
  D:00B8H         PUBLIC        IP
BL51 BANKED LINKER/LOCATER V6.22.2.0                                                  03/21/2024  12:56:22  PAGE 11


  D:00D8H         PUBLIC        CCON
  D:0098H         PUBLIC        SCON
  D:0088H         PUBLIC        TCON
  C:0EDDH         PUBLIC        _LED_Show
  D:00D0H         PUBLIC        PSW
  C:109DH         PUBLIC        _Beep
  -------         PROC          _LED_SHOW
  D:0007H         SYMBOL        addr
  D:0004H         SYMBOL        enable
  -------         DO            
  D:0008H         SYMBOL        temp_new
  D:0009H         SYMBOL        temp_old
  -------         ENDDO         
  C:0EDDH         LINE#         7
  C:0EDDH         LINE#         8
  C:0EDDH         LINE#         12
  C:0EE1H         LINE#         13
  C:0EF0H         LINE#         15
  C:0EFEH         LINE#         17
  C:0F04H         LINE#         18
  C:0F04H         LINE#         19
  C:0F09H         LINE#         20
  C:0F11H         LINE#         21
  C:0F14H         LINE#         22
  C:0F17H         LINE#         23
  C:0F17H         LINE#         24
  -------         ENDPROC       _LED_SHOW
  -------         PROC          _BEEP
  D:0007H         SYMBOL        flag
  -------         DO            
  D:000AH         SYMBOL        temp_new_beep
  D:000BH         SYMBOL        temp_old_beep
  -------         ENDDO         
  C:109DH         LINE#         26
  C:109DH         LINE#         27
  C:109DH         LINE#         31
  C:10A0H         LINE#         32
  C:10A5H         LINE#         34
  C:10A8H         LINE#         36
  C:10AEH         LINE#         37
  C:10AEH         LINE#         38
  C:10B1H         LINE#         39
  C:10B9H         LINE#         40
  C:10BCH         LINE#         41
  C:10BFH         LINE#         42
  C:10BFH         LINE#         43
  -------         ENDPROC       _BEEP
  -------         PROC          _RELAY
  D:0007H         SYMBOL        flag
  -------         DO            
  D:000CH         SYMBOL        temp_new_relay
  D:000DH         SYMBOL        temp_old_relay
  -------         ENDDO         
  C:10C0H         LINE#         45
  C:10C0H         LINE#         46
  C:10C0H         LINE#         49
  C:10C3H         LINE#         50
BL51 BANKED LINKER/LOCATER V6.22.2.0                                                  03/21/2024  12:56:22  PAGE 12


  C:10C8H         LINE#         52
  C:10CBH         LINE#         54
  C:10D1H         LINE#         55
  C:10D1H         LINE#         56
  C:10D4H         LINE#         57
  C:10DCH         LINE#         58
  C:10DFH         LINE#         59
  C:10E2H         LINE#         60
  C:10E2H         LINE#         61
  -------         ENDPROC       _RELAY
  -------         ENDMOD        LED

  -------         MODULE        UART
  C:0000H         SYMBOL        _ICE_DUMMY_
  D:0080H         PUBLIC        P0
  D:0090H         PUBLIC        P1
  D:00A0H         PUBLIC        P2
  D:00B0H         PUBLIC        P3
  D:00C0H         PUBLIC        P4
  D:00C8H         PUBLIC        P5
  B:00A8H.7       PUBLIC        EA
  D:00E8H         PUBLIC        P6
  D:00F8H         PUBLIC        P7
  D:00A8H         PUBLIC        IE
  C:117EH         PUBLIC        Uart_Init
  B:00A8H.4       PUBLIC        ES
  D:00B8H         PUBLIC        IP
  B:0098H.1       PUBLIC        TI
  D:00D8H         PUBLIC        CCON
  D:0099H         PUBLIC        SBUF
  D:0098H         PUBLIC        SCON
  D:0089H         PUBLIC        TMOD
  D:0088H         PUBLIC        TCON
  D:008EH         PUBLIC        AUXR
  B:00A8H.3       PUBLIC        ET1
  D:008DH         PUBLIC        TH1
  D:008BH         PUBLIC        TL1
  B:0088H.6       PUBLIC        TR1
  D:00D0H         PUBLIC        PSW
  C:0003H         PUBLIC        _putchar
  -------         PROC          UART_INIT
  C:117EH         LINE#         6
  C:117EH         LINE#         7
  C:117EH         LINE#         8
  C:1181H         LINE#         9
  C:1184H         LINE#         10
  C:1187H         LINE#         11
  C:118AH         LINE#         12
  C:118DH         LINE#         13
  C:1190H         LINE#         14
  C:1192H         LINE#         15
  C:1194H         LINE#         16
  C:1196H         LINE#         17
  C:1198H         LINE#         18
  -------         ENDPROC       UART_INIT
  -------         PROC          _PUTCHAR
  D:0007H         SYMBOL        string
BL51 BANKED LINKER/LOCATER V6.22.2.0                                                  03/21/2024  12:56:22  PAGE 13


  C:0003H         LINE#         20
  C:0003H         LINE#         21
  C:0003H         LINE#         22
  C:0005H         LINE#         23
  C:0008H         LINE#         24
  C:000AH         LINE#         25
  C:000AH         LINE#         26
  -------         ENDPROC       _PUTCHAR
  -------         ENDMOD        UART

  -------         MODULE        IIC
  C:0000H         SYMBOL        _ICE_DUMMY_
  D:0080H         PUBLIC        P0
  D:0090H         PUBLIC        P1
  D:00A0H         PUBLIC        P2
  D:00B0H         PUBLIC        P3
  D:00C0H         PUBLIC        P4
  D:00C8H         PUBLIC        P5
  D:00E8H         PUBLIC        P6
  D:00F8H         PUBLIC        P7
  D:00A8H         PUBLIC        IE
  C:11B7H         SYMBOL        _I2C_Delay
  D:00B8H         PUBLIC        IP
  C:1053H         PUBLIC        I2CReceiveByte
  D:00D8H         PUBLIC        CCON
  D:0098H         PUBLIC        SCON
  D:0088H         PUBLIC        TCON
  B:00A0H.1       PUBLIC        sda
  B:00A0H.0       PUBLIC        scl
  C:120EH         PUBLIC        I2CStart
  C:11CDH         PUBLIC        _I2CSendAck
  C:0F18H         PUBLIC        _I2CSendByte
  C:0FAFH         PUBLIC        _AD_Read
  C:11E8H         PUBLIC        I2CWaitAck
  C:121DH         PUBLIC        I2CStop
  D:00D0H         PUBLIC        PSW
  C:11B3H         SYMBOL        L?0022
  -------         PROC          L?0021
  -------         ENDPROC       L?0021
  C:11B3H         SYMBOL        L?0022
  -------         PROC          _I2C_DELAY
  D:0007H         SYMBOL        n
  C:11B7H         LINE#         16
  C:11B7H         LINE#         17
  C:11B7H         LINE#         19
  C:11B7H         LINE#         20
  C:11BCH         LINE#         21
  C:11C1H         LINE#         22
  C:11C6H         LINE#         23
  C:11C6H         LINE#         24
  C:11CCH         LINE#         25
  -------         ENDPROC       _I2C_DELAY
  -------         PROC          I2CSTART
  C:120EH         LINE#         28
  C:120EH         LINE#         29
  C:120EH         LINE#         30
  C:1210H         LINE#         31
BL51 BANKED LINKER/LOCATER V6.22.2.0                                                  03/21/2024  12:56:22  PAGE 14


  C:1210H         LINE#         32
  C:1213H         LINE#         33
  C:1215H         LINE#         34
  C:121AH         LINE#         35
  C:121CH         LINE#         36
  -------         ENDPROC       I2CSTART
  -------         PROC          I2CSTOP
  C:121DH         LINE#         39
  C:121DH         LINE#         40
  C:121DH         LINE#         41
  C:121FH         LINE#         42
  C:121FH         LINE#         43
  C:1222H         LINE#         44
  C:1224H         LINE#         45
  -------         ENDPROC       I2CSTOP
  -------         PROC          _I2CSENDBYTE
  D:0005H         SYMBOL        byt
  -------         DO            
  D:0004H         SYMBOL        i
  -------         ENDDO         
  C:0F18H         LINE#         49
  C:0F1AH         LINE#         50
  C:0F1AH         LINE#         53
  C:0F26H         LINE#         54
  C:0F28H         LINE#         55
  C:0F2DH         LINE#         56
  C:0F31H         LINE#         57
  C:0F33H         LINE#         58
  C:0F35H         LINE#         59
  C:0F35H         LINE#         60
  C:0F37H         LINE#         61
  C:0F37H         LINE#         62
  C:0F3CH         LINE#         63
  C:0F3EH         LINE#         64
  C:0F42H         LINE#         65
  C:0F47H         LINE#         66
  C:0F4AH         LINE#         68
  C:0F4CH         LINE#         69
  -------         ENDPROC       _I2CSENDBYTE
  -------         PROC          I2CRECEIVEBYTE
  -------         DO            
  D:0005H         SYMBOL        da
  D:0004H         SYMBOL        i
  -------         ENDDO         
  C:1053H         LINE#         72
  C:1053H         LINE#         73
  C:1053H         LINE#         76
  C:105FH         LINE#         77
  C:105FH         LINE#         78
  C:1062H         LINE#         79
  C:1066H         LINE#         80
  C:1069H         LINE#         81
  C:106CH         LINE#         82
  C:106EH         LINE#         83
  C:1073H         LINE#         84
  C:1076H         LINE#         85
  C:1078H         LINE#         86
BL51 BANKED LINKER/LOCATER V6.22.2.0                                                  03/21/2024  12:56:22  PAGE 15


  -------         ENDPROC       I2CRECEIVEBYTE
  -------         PROC          L?0023
  -------         ENDPROC       L?0023
  -------         PROC          I2CWAITACK
  -------         DO            
  D:0005H         SYMBOL        ackbit
  -------         ENDDO         
  C:11E8H         LINE#         89
  C:11E8H         LINE#         90
  C:11E8H         LINE#         93
  C:11E8H         LINE#         94
  C:11EBH         LINE#         95
  C:11F0H         LINE#         96
  C:11F2H         LINE#         97
  C:11F7H         LINE#         99
  C:11F9H         LINE#         100
  -------         ENDPROC       I2CWAITACK
  -------         PROC          _I2CSENDACK
  D:0007H         SYMBOL        ackbit
  C:11CDH         LINE#         103
  C:11CDH         LINE#         104
  C:11CDH         LINE#         105
  C:11CFH         LINE#         106
  C:11D4H         LINE#         107
  C:11D9H         LINE#         108
  C:11D9H         LINE#         109
  C:11DCH         LINE#         110
  C:11DEH         LINE#         111
  C:11E0H         LINE#         112
  -------         ENDPROC       _I2CSENDACK
  -------         PROC          _AD_READ
  D:0003H         SYMBOL        addr
  -------         DO            
  D:0005H         SYMBOL        temp
  -------         ENDDO         
  C:0FAFH         LINE#         115
  C:0FB1H         LINE#         116
  C:0FB1H         LINE#         117
  C:0FB3H         LINE#         118
  C:0FB6H         LINE#         119
  C:0FB8H         LINE#         120
  C:0FBBH         LINE#         121
  C:0FBDH         LINE#         122
  C:0FC0H         LINE#         124
  C:0FC3H         LINE#         125
  C:0FC8H         LINE#         126
  C:0FCBH         LINE#         127
  C:0FD0H         LINE#         128
  C:0FD5H         LINE#         129
  C:0FD8H         LINE#         130
  C:0FDAH         LINE#         131
  -------         ENDPROC       _AD_READ
  -------         ENDMOD        IIC

  -------         MODULE        ONEWIRE
  C:0000H         SYMBOL        _ICE_DUMMY_
  D:0080H         PUBLIC        P0
BL51 BANKED LINKER/LOCATER V6.22.2.0                                                  03/21/2024  12:56:22  PAGE 16


  D:0090H         PUBLIC        P1
  D:00A0H         PUBLIC        P2
  D:00B0H         PUBLIC        P3
  D:00C0H         PUBLIC        P4
  C:10E3H         PUBLIC        Read_DS18B20
  D:00C8H         PUBLIC        P5
  D:00E8H         PUBLIC        P6
  D:00F8H         PUBLIC        P7
  D:00A8H         PUBLIC        IE
  C:112CH         PUBLIC        _Delay_OneWire
  C:1005H         PUBLIC        _Write_DS18B20
  B:0090H.4       PUBLIC        DQ
  D:00B8H         PUBLIC        IP
  C:102CH         PUBLIC        init_ds18b20
  D:00D8H         PUBLIC        CCON
  D:0098H         PUBLIC        SCON
  D:0088H         PUBLIC        TCON
  C:0F4DH         PUBLIC        DS18B20_Read_T
  D:00D0H         PUBLIC        PSW
  C:1128H         SYMBOL        L?0020
  -------         PROC          L?0019
  -------         ENDPROC       L?0019
  C:1128H         SYMBOL        L?0020
  -------         PROC          _DELAY_ONEWIRE
  D:0006H         SYMBOL        t
  -------         DO            
  D:0005H         SYMBOL        i
  -------         ENDDO         
  C:112CH         LINE#         13
  C:112CH         LINE#         14
  C:112CH         LINE#         16
  C:1136H         LINE#         17
  C:1145H         LINE#         18
  C:1145H         LINE#         19
  -------         ENDPROC       _DELAY_ONEWIRE
  -------         PROC          _WRITE_DS18B20
  D:0001H         SYMBOL        dat
  -------         DO            
  D:0003H         SYMBOL        i
  -------         ENDDO         
  C:1005H         LINE#         22
  C:1007H         LINE#         23
  C:1007H         LINE#         25
  C:1013H         LINE#         26
  C:1013H         LINE#         27
  C:1015H         LINE#         28
  C:1019H         LINE#         29
  C:101CH         LINE#         30
  C:101EH         LINE#         31
  C:1022H         LINE#         32
  C:1025H         LINE#         33
  -------         ENDPROC       _WRITE_DS18B20
  -------         PROC          READ_DS18B20
  -------         DO            
  D:0003H         SYMBOL        i
  D:0004H         SYMBOL        dat
  -------         ENDDO         
BL51 BANKED LINKER/LOCATER V6.22.2.0                                                  03/21/2024  12:56:22  PAGE 17


  C:10E3H         LINE#         37
  C:10E3H         LINE#         38
  C:10E3H         LINE#         42
  C:10EFH         LINE#         43
  C:10EFH         LINE#         44
  C:10F1H         LINE#         45
  C:10F5H         LINE#         46
  C:10F7H         LINE#         47
  C:10FAH         LINE#         48
  C:10FAH         LINE#         49
  C:10FDH         LINE#         50
  C:10FDH         LINE#         51
  C:1100H         LINE#         52
  C:1103H         LINE#         53
  C:1105H         LINE#         54
  -------         ENDPROC       READ_DS18B20
  -------         PROC          INIT_DS18B20
  -------         DO            
  B:0020H.0       SYMBOL        initflag
  -------         ENDDO         
  C:102CH         LINE#         57
  C:102CH         LINE#         58
  C:102CH         LINE#         59
  C:102EH         LINE#         61
  C:1030H         LINE#         62
  C:1037H         LINE#         63
  C:1039H         LINE#         64
  C:1040H         LINE#         65
  C:1042H         LINE#         66
  C:1049H         LINE#         67
  C:104DH         LINE#         68
  C:1050H         LINE#         70
  C:1052H         LINE#         71
  -------         ENDPROC       INIT_DS18B20
  -------         PROC          DS18B20_READ_T
  -------         DO            
  D:0001H         SYMBOL        low
  D:0007H         SYMBOL        high
  -------         ENDDO         
  C:0F4DH         LINE#         73
  C:0F4DH         LINE#         74
  C:0F4DH         LINE#         76
  C:0F50H         LINE#         77
  C:0F55H         LINE#         78
  C:0F5AH         LINE#         79
  C:0F5DH         LINE#         80
  C:0F62H         LINE#         81
  C:0F67H         LINE#         82
  C:0F6CH         LINE#         83
  C:0F6FH         LINE#         84
  -------         ENDPROC       DS18B20_READ_T
  -------         ENDMOD        ONEWIRE

  -------         MODULE        ?C?FPMUL
  C:0026H         PUBLIC        ?C?FPMUL
  -------         ENDMOD        ?C?FPMUL

BL51 BANKED LINKER/LOCATER V6.22.2.0                                                  03/21/2024  12:56:22  PAGE 18


  -------         MODULE        ?C?FPDIV
  C:012FH         PUBLIC        ?C?FPDIV
  -------         ENDMOD        ?C?FPDIV

  -------         MODULE        ?C?FPCMP
  C:01CEH         PUBLIC        ?C?FPCMP
  C:01CCH         PUBLIC        ?C?FPCMP3
  -------         ENDMOD        ?C?FPCMP

  -------         MODULE        ?C?FCAST
  C:024FH         PUBLIC        ?C?FCASTC
  C:024AH         PUBLIC        ?C?FCASTI
  C:0245H         PUBLIC        ?C?FCASTL
  -------         ENDMOD        ?C?FCAST

  -------         MODULE        ?C?CASTF
  C:0283H         PUBLIC        ?C?CASTF
  -------         ENDMOD        ?C?CASTF

  -------         MODULE        PRINTF
  D:0051H         PUBLIC        ?_PRINTF?BYTE
  D:0051H         PUBLIC        ?_SPRINTF?BYTE
  C:06F1H         PUBLIC        _PRINTF
  C:06EBH         PUBLIC        _SPRINTF
  -------         ENDMOD        PRINTF

  -------         MODULE        ?C?FPROUND
  C:0304H         PUBLIC        ?C?FPROUND
  -------         ENDMOD        ?C?FPROUND

  -------         MODULE        ?C?FPCONVERT
  C:0333H         PUBLIC        ?C?FPCONVERT
  -------         ENDMOD        ?C?FPCONVERT

  -------         MODULE        ?C?FPADD
  C:043DH         PUBLIC        ?C?FPADD
  C:0439H         PUBLIC        ?C?FPSUB
  -------         ENDMOD        ?C?FPADD

  -------         MODULE        ?C?FTNPWR
  C:055EH         PUBLIC        ?C?FTNPWR
  -------         ENDMOD        ?C?FTNPWR

  -------         MODULE        ?C?CLDPTR
  C:059EH         PUBLIC        ?C?CLDPTR
  -------         ENDMOD        ?C?CLDPTR

  -------         MODULE        ?C?CLDOPTR
  C:05B7H         PUBLIC        ?C?CLDOPTR
  -------         ENDMOD        ?C?CLDOPTR

  -------         MODULE        ?C?CSTPTR
  C:05E4H         PUBLIC        ?C?CSTPTR
  -------         ENDMOD        ?C?CSTPTR

  -------         MODULE        ?C?UIDIV
  C:05F6H         PUBLIC        ?C?UIDIV
BL51 BANKED LINKER/LOCATER V6.22.2.0                                                  03/21/2024  12:56:22  PAGE 19


  -------         ENDMOD        ?C?UIDIV

  -------         MODULE        ?C?LNEG
  C:064BH         PUBLIC        ?C?LNEG
  -------         ENDMOD        ?C?LNEG

  -------         MODULE        ?C?PLDIIDATA
  C:0659H         PUBLIC        ?C?PLDIIDATA
  -------         ENDMOD        ?C?PLDIIDATA

  -------         MODULE        ?C?CCASE
  C:0669H         PUBLIC        ?C?CCASE
  -------         ENDMOD        ?C?CCASE

Program Size: data=91.1 xdata=0 code=4649
LINK/LOCATE RUN COMPLETE.  0 WARNING(S),  0 ERROR(S)
